Component: ARM Compiler 6.9 Tool: armlink [5ced1b00]

==============================================================================

Section Cross References

    main.o(.text.main) refers to zf_common_clock.o(.text.clock_init) for clock_init
    main.o(.text.main) refers to zf_common_debug.o(.text.debug_init) for debug_init
    main.o(.text.main) refers to motor.o(.text.motor_init) for motor_init
    main.o(.text.main) refers to zf_device_wireless_uart.o(.text.seekfree_wireless_init) for seekfree_wireless_init
    main.o(.text.main) refers to flash.o(.text.FlashReadParams) for FlashReadParams
    main.o(.text.main) refers to parameter.o(.data.pwm_mid_angle) for pwm_mid_angle
    main.o(.text.main) refers to ffltui.o(.text) for __aeabi_ui2f
    main.o(.text.main) refers to parameter.o(.data.duoji) for duoji
    main.o(.text.main) refers to zf_device_icm20602.o(.text.icm20602_init) for icm20602_init
    main.o(.text.main) refers to button.o(.text.button_init) for button_init
    main.o(.text.main) refers to motor.o(.text.servo_motor_init) for servo_motor_init
    main.o(.text.main) refers to zf_device_gps_tau1201.o(.text.gps_init) for gps_init
    main.o(.text.main) refers to zf_device_tft180.o(.text.tft180_init) for tft180_init
    main.o(.text.main) refers to route_generating.o(.text.generating_route_init) for generating_route_init
    main.o(.text.main) refers to zf_device_tft180.o(.text.tft180_full) for tft180_full
    main.o(.text.main) refers to zf_driver_delay.o(.text.system_delay) for system_delay
    main.o(.text.main) refers to zf_common_clock.o(.data.system_clock) for system_clock
    main.o(.text.main) refers to zf_driver_pit.o(.text.pit_init) for pit_init
==============================================================================

Removing Unused input sections from the image.

    Removing main.o(.text), (0 bytes).
    Removing main.o(.ARM.exidx.text.main), (8 bytes).
    Removing main.o(.bss.a), (4 bytes).
    Removing main.o(.bss.return_state), (1 bytes).
    Removing isr.o(.text), (0 bytes).
    Removing isr.o(.ARM.exidx.text.TIM1_UP_IRQHandler), (8 bytes).
    Removing isr.o(.ARM.exidx.text.TIM2_IRQHandler), (8 bytes).
    Removing isr.o(.ARM.exidx.text.TIM3_IRQHandler), (8 bytes).
    Removing isr.o(.ARM.exidx.text.TIM4_IRQHandler), (8 bytes).
    Removing isr.o(.ARM.exidx.text.TIM5_IRQHandler), (8 bytes).
    Removing isr.o(.ARM.exidx.text.TIM6_IRQHandler), (8 bytes).
    Removing isr.o(.ARM.exidx.text.TIM7_IRQHandler), (8 bytes).
    Removing isr.o(.ARM.exidx.text.TIM8_UP_IRQHandler), (8 bytes).
    Removing isr.o(.ARM.exidx.text.UART1_IRQHandler), (8 bytes).
    Removing isr.o(.ARM.exidx.text.UART2_IRQHandler), (8 bytes).
    Removing isr.o(.ARM.exidx.text.UART3_IRQHandler), (8 bytes).
    Removing isr.o(.ARM.exidx.text.UART4_IRQHandler), (8 bytes).
    Removing isr.o(.ARM.exidx.text.UART5_IRQHandler), (8 bytes).
==============================================================================

Image Symbol Table

    Local Symbols

    Symbol Name                              Value     Ov Type        Size  Object(Section)

    ../clib/../cmprslib/zerorunl2.c          0x00000000   Number         0  __dczerorl2.o ABSOLUTE
    ../clib/microlib/division.c              0x00000000   Number         0  uidiv.o ABSOLUTE
    ../clib/microlib/division.c              0x00000000   Number         0  uldiv.o ABSOLUTE
    ../clib/microlib/errno.c                 0x00000000   Number         0  errno.o ABSOLUTE
    ../clib/microlib/init/entry.s            0x00000000   Number         0  entry9b.o ABSOLUTE
    ../clib/microlib/init/entry.s            0x00000000   Number         0  entry5.o ABSOLUTE
    ../clib/microlib/init/entry.s            0x00000000   Number         0  entry11b.o ABSOLUTE
    ../clib/microlib/init/entry.s            0x00000000   Number         0  entry4.o ABSOLUTE
    ../clib/microlib/init/entry.s            0x00000000   Number         0  entry7a.o ABSOLUTE
    ../clib/microlib/init/entry.s            0x00000000   Number         0  entry11a.o ABSOLUTE
    ../clib/microlib/init/entry.s            0x00000000   Number         0  entry8b.o ABSOLUTE
    ../clib/microlib/init/entry.s            0x00000000   Number         0  entry.o ABSOLUTE
    ../clib/microlib/init/entry.s            0x00000000   Number         0  entry10b.o ABSOLUTE
    ../clib/microlib/init/entry.s            0x00000000   Number         0  entry8a.o ABSOLUTE
    ../clib/microlib/init/entry.s            0x00000000   Number         0  entry10a.o ABSOLUTE
    ../clib/microlib/init/entry.s            0x00000000   Number         0  entry9a.o ABSOLUTE
    ../clib/microlib/init/entry.s            0x00000000   Number         0  entry7b.o ABSOLUTE
    ../clib/microlib/longlong.c              0x00000000   Number         0  llsshr.o ABSOLUTE
    ../clib/microlib/longlong.c              0x00000000   Number         0  llshl.o ABSOLUTE
    ../clib/microlib/longlong.c              0x00000000   Number         0  llushr.o ABSOLUTE
    ../clib/microlib/printf/printf.c         0x00000000   Number         0  printfa.o ABSOLUTE
    ../clib/microlib/stdio/streams.c         0x00000000   Number         0  stdout.o ABSOLUTE
    ../clib/microlib/string/memcmp.c         0x00000000   Number         0  memcmp.o ABSOLUTE
    ../clib/microlib/string/memcpy.c         0x00000000   Number         0  memcpya.o ABSOLUTE
    ../clib/microlib/string/memcpy.c         0x00000000   Number         0  memcpyb.o ABSOLUTE
    ../clib/microlib/string/memset.c         0x00000000   Number         0  memseta.o ABSOLUTE
    ../clib/microlib/string/strchr.c         0x00000000   Number         0  strchr.o ABSOLUTE
    ../clib/microlib/string/strcmp.c         0x00000000   Number         0  strcmp.o ABSOLUTE
    ../clib/microlib/string/strcpy.c         0x00000000   Number         0  strcpy.o ABSOLUTE
    ../clib/microlib/string/strlen.c         0x00000000   Number         0  strlen.o ABSOLUTE
    ../clib/microlib/string/strncmp.c        0x00000000   Number         0  strncmp.o ABSOLUTE
    ../clib/microlib/string/strncpy.c        0x00000000   Number         0  strncpy.o ABSOLUTE
    ../clib/microlib/string/strstr.c         0x00000000   Number         0  strstr.o ABSOLUTE
    ../clib/microlib/stubs.s                 0x00000000   Number         0  iusefp.o ABSOLUTE
    ../fplib/microlib/d2f.c                  0x00000000   Number         0  d2f.o ABSOLUTE
    ../fplib/microlib/f2d.c                  0x00000000   Number         0  f2d.o ABSOLUTE
    ../fplib/microlib/fpadd.c                0x00000000   Number         0  dadd.o ABSOLUTE
    ../fplib/microlib/fpadd.c                0x00000000   Number         0  fadd.o ABSOLUTE
    ../fplib/microlib/fpcmp.c                0x00000000   Number         0  dcmple.o ABSOLUTE
    ../fplib/microlib/fpcmp.c                0x00000000   Number         0  fcmple.o ABSOLUTE
    ../fplib/microlib/fpcmp.c                0x00000000   Number         0  dcmplt.o ABSOLUTE
    ../fplib/microlib/fpcmp.c                0x00000000   Number         0  dcmpeq.o ABSOLUTE
    ../fplib/microlib/fpcmp.c                0x00000000   Number         0  fcmplt.o ABSOLUTE
    ../fplib/microlib/fpcmp.c                0x00000000   Number         0  dcmpge.o ABSOLUTE
    ../fplib/microlib/fpcmp.c                0x00000000   Number         0  fcmpge.o ABSOLUTE
    ../fplib/microlib/fpdiv.c                0x00000000   Number         0  ddiv.o ABSOLUTE
    ../fplib/microlib/fpdiv.c                0x00000000   Number         0  fdiv.o ABSOLUTE
    ../fplib/microlib/fpepilogue.c           0x00000000   Number         0  fepilogue.o ABSOLUTE
    ../fplib/microlib/fpepilogue.c           0x00000000   Number         0  depilogue.o ABSOLUTE
    ../fplib/microlib/fpfix.c                0x00000000   Number         0  ffixui.o ABSOLUTE
    ../fplib/microlib/fpfix.c                0x00000000   Number         0  ffixi.o ABSOLUTE
    ../fplib/microlib/fpfix.c                0x00000000   Number         0  dfixi.o ABSOLUTE
    ../fplib/microlib/fpfix.c                0x00000000   Number         0  dfixul.o ABSOLUTE
    ../fplib/microlib/fpfix.c                0x00000000   Number         0  dfixui.o ABSOLUTE
    ../fplib/microlib/fpflt.c                0x00000000   Number         0  ffltui.o ABSOLUTE
    ../fplib/microlib/fpflt.c                0x00000000   Number         0  dflti.o ABSOLUTE
    ../fplib/microlib/fpflt.c                0x00000000   Number         0  dfltui.o ABSOLUTE
    ../fplib/microlib/fpflt.c                0x00000000   Number         0  fflti.o ABSOLUTE
    ../fplib/microlib/fpmul.c                0x00000000   Number         0  dmul.o ABSOLUTE
    ../fplib/microlib/fpmul.c                0x00000000   Number         0  fmul.o ABSOLUTE
    ../fplib/microlib/fprem.c                0x00000000   Number         0  drem.o ABSOLUTE
    ../fplib/microlib/fpscalb.c              0x00000000   Number         0  dscalb.o ABSOLUTE
    ../fplib/microlib/fpsqrt.c               0x00000000   Number         0  dsqrt.o ABSOLUTE
    ../mathlib/asin.c                        0x00000000   Number         0  asin_x.o ABSOLUTE
    ../mathlib/asin.c                        0x00000000   Number         0  asin.o ABSOLUTE
    ../mathlib/atan.c                        0x00000000   Number         0  atan_x.o ABSOLUTE
    ../mathlib/atan.c                        0x00000000   Number         0  atan.o ABSOLUTE
    ../mathlib/atan2.c                       0x00000000   Number         0  atan2_x.o ABSOLUTE
    ../mathlib/atan2.c                       0x00000000   Number         0  atan2.o ABSOLUTE
    ../mathlib/cos.c                         0x00000000   Number         0  cos_x.o ABSOLUTE
    ../mathlib/cos.c                         0x00000000   Number         0  cos.o ABSOLUTE
    ../mathlib/cos_i.c                       0x00000000   Number         0  cos_i.o ABSOLUTE
    ../mathlib/dunder.c                      0x00000000   Number         0  dunder.o ABSOLUTE
    ../mathlib/fmod.c                        0x00000000   Number         0  fmod_x.o ABSOLUTE
    ../mathlib/fmod.c                        0x00000000   Number         0  fmod.o ABSOLUTE
    ../mathlib/fpclassify.c                  0x00000000   Number         0  fpclassify.o ABSOLUTE
    ../mathlib/poly.c                        0x00000000   Number         0  poly.o ABSOLUTE
    ../mathlib/pow.c                         0x00000000   Number         0  pow_x.o ABSOLUTE
    ../mathlib/pow.c                         0x00000000   Number         0  pow.o ABSOLUTE
    ../mathlib/qnan.c                        0x00000000   Number         0  qnan.o ABSOLUTE
    ../mathlib/rred.c                        0x00000000   Number         0  rred.o ABSOLUTE
    ../mathlib/sin.c                         0x00000000   Number         0  sin_x.o ABSOLUTE
    ../mathlib/sin.c                         0x00000000   Number         0  sin.o ABSOLUTE
    ../mathlib/sin_i.c                       0x00000000   Number         0  sin_i_x.o ABSOLUTE
    ../mathlib/sin_i.c                       0x00000000   Number         0  sin_i.o ABSOLUTE
    ../mathlib/sqrt.c                        0x00000000   Number         0  sqrt.o ABSOLUTE
    ../mathlib/sqrt.c                        0x00000000   Number         0  sqrt_x.o ABSOLUTE
    ..\..\libraries\sdk\mdk\startup_mm32f3277g.s 0x00000000   Number         0  startup_mm32f3277g.o ABSOLUTE
    Vofa.c                                   0x00000000   Number         0  vofa.o ABSOLUTE
    button.c                                 0x00000000   Number         0  button.o ABSOLUTE
    cdcmple.s                                0x00000000   Number         0  cdcmple.o ABSOLUTE
    cdrcmple.s                               0x00000000   Number         0  cdrcmple.o ABSOLUTE
    dc.s                                     0x00000000   Number         0  dc.o ABSOLUTE
    diskio.c                                 0x00000000   Number         0  diskio.o ABSOLUTE
    ff.c                                     0x00000000   Number         0  ff.o ABSOLUTE
    ffsystem.c                               0x00000000   Number         0  ffsystem.o ABSOLUTE
    ffunicode.c                              0x00000000   Number         0  ffunicode.o ABSOLUTE
    flash.c                                  0x00000000   Number         0  flash.o ABSOLUTE
    gps.c                                    0x00000000   Number         0  gps.o ABSOLUTE
    hal_adc.c                                0x00000000   Number         0  hal_adc.o ABSOLUTE
    hal_comp.c                               0x00000000   Number         0  hal_comp.o ABSOLUTE
    hal_dac.c                                0x00000000   Number         0  hal_dac.o ABSOLUTE
    hal_dma.c                                0x00000000   Number         0  hal_dma.o ABSOLUTE
    hal_exti.c                               0x00000000   Number         0  hal_exti.o ABSOLUTE
    hal_fsmc.c                               0x00000000   Number         0  hal_fsmc.o ABSOLUTE
    hal_gpio.c                               0x00000000   Number         0  hal_gpio.o ABSOLUTE
    hal_i2c.c                                0x00000000   Number         0  hal_i2c.o ABSOLUTE
    hal_iwdg.c                               0x00000000   Number         0  hal_iwdg.o ABSOLUTE
    hal_rcc.c                                0x00000000   Number         0  hal_rcc.o ABSOLUTE
    hal_rtc.c                                0x00000000   Number         0  hal_rtc.o ABSOLUTE
    hal_sdio.c                               0x00000000   Number         0  hal_sdio.o ABSOLUTE
    hal_spi.c                                0x00000000   Number         0  hal_spi.o ABSOLUTE
    hal_syscfg.c                             0x00000000   Number         0  hal_syscfg.o ABSOLUTE
    hal_tim_16b.c                            0x00000000   Number         0  hal_tim_16b.o ABSOLUTE
    hal_tim_32b.c                            0x00000000   Number         0  hal_tim_32b.o ABSOLUTE
    hal_tim_adv.c                            0x00000000   Number         0  hal_tim_adv.o ABSOLUTE
    hal_tim_basic.c                          0x00000000   Number         0  hal_tim_basic.o ABSOLUTE
    hal_uart.c                               0x00000000   Number         0  hal_uart.o ABSOLUTE
    hal_usb.c                                0x00000000   Number         0  hal_usb.o ABSOLUTE
    hal_wwdg.c                               0x00000000   Number         0  hal_wwdg.o ABSOLUTE
    handlers.s                               0x00000000   Number         0  handlers.o ABSOLUTE
    init.s                                   0x00000000   Number         0  init.o ABSOLUTE
    isr.c                                    0x00000000   Number         0  isr.o ABSOLUTE
    main.c                                   0x00000000   Number         0  main.o ABSOLUTE
    motor.c                                  0x00000000   Number         0  motor.o ABSOLUTE
    parameter.c                              0x00000000   Number         0  parameter.o ABSOLUTE
    route_generating.c                       0x00000000   Number         0  route_generating.o ABSOLUTE
    show_page.c                              0x00000000   Number         0  show_page.o ABSOLUTE
    system_mm32f3277g.c                      0x00000000   Number         0  system_mm32f3277g.o ABSOLUTE
    zf_common_clock.c                        0x00000000   Number         0  zf_common_clock.o ABSOLUTE
    zf_common_debug.c                        0x00000000   Number         0  zf_common_debug.o ABSOLUTE
    zf_common_fifo.c                         0x00000000   Number         0  zf_common_fifo.o ABSOLUTE
    zf_common_font.c                         0x00000000   Number         0  zf_common_font.o ABSOLUTE
    zf_common_function.c                     0x00000000   Number         0  zf_common_function.o ABSOLUTE
    zf_common_interrupt.c                    0x00000000   Number         0  zf_common_interrupt.o ABSOLUTE
    zf_device_absolute_encoder.c             0x00000000   Number         0  zf_device_absolute_encoder.o ABSOLUTE
    zf_device_bluetooth_ch9141.c             0x00000000   Number         0  zf_device_bluetooth_ch9141.o ABSOLUTE
    zf_device_camera.c                       0x00000000   Number         0  zf_device_camera.o ABSOLUTE
    zf_device_gps_tau1201.c                  0x00000000   Number         0  zf_device_gps_tau1201.o ABSOLUTE
    zf_device_icm20602.c                     0x00000000   Number         0  zf_device_icm20602.o ABSOLUTE
    zf_device_ips114.c                       0x00000000   Number         0  zf_device_ips114.o ABSOLUTE
    zf_device_ips200.c                       0x00000000   Number         0  zf_device_ips200.o ABSOLUTE
    zf_device_key.c                          0x00000000   Number         0  zf_device_key.o ABSOLUTE
    zf_device_mpu6050.c                      0x00000000   Number         0  zf_device_mpu6050.o ABSOLUTE
    zf_device_mt9v03x.c                      0x00000000   Number         0  zf_device_mt9v03x.o ABSOLUTE
    zf_device_oled.c                         0x00000000   Number         0  zf_device_oled.o ABSOLUTE
    zf_device_ov7725.c                       0x00000000   Number         0  zf_device_ov7725.o ABSOLUTE
    zf_device_scc8660.c                      0x00000000   Number         0  zf_device_scc8660.o ABSOLUTE
    zf_device_sdcard.c                       0x00000000   Number         0  zf_device_sdcard.o ABSOLUTE
    zf_device_tft180.c                       0x00000000   Number         0  zf_device_tft180.o ABSOLUTE
    zf_device_tsl1401.c                      0x00000000   Number         0  zf_device_tsl1401.o ABSOLUTE
    zf_device_type.c                         0x00000000   Number         0  zf_device_type.o ABSOLUTE
    zf_device_virtual_oscilloscope.c         0x00000000   Number         0  zf_device_virtual_oscilloscope.o ABSOLUTE
    zf_device_wireless_uart.c                0x00000000   Number         0  zf_device_wireless_uart.o ABSOLUTE
    zf_driver_adc.c                          0x00000000   Number         0  zf_driver_adc.o ABSOLUTE
    zf_driver_dac.c                          0x00000000   Number         0  zf_driver_dac.o ABSOLUTE
    zf_driver_delay.c                        0x00000000   Number         0  zf_driver_delay.o ABSOLUTE
    zf_driver_dma.c                          0x00000000   Number         0  zf_driver_dma.o ABSOLUTE
    zf_driver_encoder.c                      0x00000000   Number         0  zf_driver_encoder.o ABSOLUTE
    zf_driver_exti.c                         0x00000000   Number         0  zf_driver_exti.o ABSOLUTE
    zf_driver_flash.c                        0x00000000   Number         0  zf_driver_flash.o ABSOLUTE
    zf_driver_fsmc.c                         0x00000000   Number         0  zf_driver_fsmc.o ABSOLUTE
    zf_driver_gpio.c                         0x00000000   Number         0  zf_driver_gpio.o ABSOLUTE
    zf_driver_iic.c                          0x00000000   Number         0  zf_driver_iic.o ABSOLUTE
    zf_driver_pit.c                          0x00000000   Number         0  zf_driver_pit.o ABSOLUTE
    zf_driver_pwm.c                          0x00000000   Number         0  zf_driver_pwm.o ABSOLUTE
    zf_driver_sdio.c                         0x00000000   Number         0  zf_driver_sdio.o ABSOLUTE
    zf_driver_soft_iic.c                     0x00000000   Number         0  zf_driver_soft_iic.o ABSOLUTE
    zf_driver_soft_spi.c                     0x00000000   Number         0  zf_driver_soft_spi.o ABSOLUTE
    zf_driver_spi.c                          0x00000000   Number         0  zf_driver_spi.o ABSOLUTE
    zf_driver_timer.c                        0x00000000   Number         0  zf_driver_timer.o ABSOLUTE
    zf_driver_uart.c                         0x00000000   Number         0  zf_driver_uart.o ABSOLUTE
    RESET                                    0x08000000   Section      400  startup_mm32f3277g.o(RESET)
    .ARM.Collect$$$$00000000                 0x08000400   Section        0  entry.o(.ARM.Collect$$$$00000000)
    .ARM.Collect$$$$00000003                 0x08000400   Section        4  entry4.o(.ARM.Collect$$$$00000003)
    .ARM.Collect$$$$00000004                 0x08000404   Section        4  entry5.o(.ARM.Collect$$$$00000004)
    .ARM.Collect$$$$00000008                 0x08000408   Section        0  entry7b.o(.ARM.Collect$$$$00000008)
    .ARM.Collect$$$$0000000A                 0x08000408   Section        0  entry8b.o(.ARM.Collect$$$$0000000A)
    .ARM.Collect$$$$0000000B                 0x08000408   Section        8  entry9a.o(.ARM.Collect$$$$0000000B)
    .ARM.Collect$$$$0000000D                 0x08000410   Section        0  entry10a.o(.ARM.Collect$$$$0000000D)
    .ARM.Collect$$$$0000000F                 0x08000410   Section        0  entry11a.o(.ARM.Collect$$$$0000000F)
    .ARM.Collect$$$$00002714                 0x08000410   Section        4  entry4.o(.ARM.Collect$$$$00002714)
    __lit__00000000                          0x08000410   Data           4  entry4.o(.ARM.Collect$$$$00002714)
    .text                                    0x08000414   Section       36  startup_mm32f3277g.o(.text)
    .text                                    0x08000438   Section        0  memcpya.o(.text)
    .text                                    0x0800045c   Section        0  memseta.o(.text)
    .text                                    0x08000480   Section        0  strstr.o(.text)
    .text                                    0x080004a4   Section        0  strlen.o(.text)
    .text                                    0x080004b2   Section        0  strcmp.o(.text)
    .text                                    0x080004ce   Section        0  strcpy.o(.text)
    .text                                    0x080004e0   Section        0  fadd.o(.text)
    .text                                    0x08000590   Section        0  fmul.o(.text)
    .text                                    0x080005f4   Section        0  fdiv.o(.text)
    .text                                    0x08000670   Section        0  dadd.o(.text)
    .text                                    0x080007be   Section        0  dmul.o(.text)
    .text                                    0x080008a2   Section        0  ddiv.o(.text)
    .text                                    0x08000980   Section        0  fcmple.o(.text)
    .text                                    0x0800099c   Section        0  fcmplt.o(.text)
    .text                                    0x080009b8   Section        0  fcmpge.o(.text)
    .text                                    0x080009d4   Section        0  dcmple.o(.text)
    .text                                    0x08000a0a   Section        0  dcmplt.o(.text)
    .text                                    0x08000a40   Section        0  dcmpge.o(.text)
    .text                                    0x08000a76   Section        0  dcmpeq.o(.text)
    .text                                    0x08000aae   Section        0  fflti.o(.text)
    .text                                    0x08000ac0   Section        0  ffltui.o(.text)
    .text                                    0x08000aca   Section        0  dflti.o(.text)
    .text                                    0x08000aec   Section        0  dfltui.o(.text)
    .text                                    0x08000b06   Section        0  ffixi.o(.text)
    .text                                    0x08000b38   Section        0  ffixui.o(.text)
    .text                                    0x08000b60   Section        0  dfixi.o(.text)
    .text                                    0x08000b9e   Section        0  dfixui.o(.text)
    .text                                    0x08000bd0   Section        0  f2d.o(.text)
    .text                                    0x08000bf6   Section        0  d2f.o(.text)
    .text                                    0x08000c2e   Section        0  uidiv.o(.text)
    .text                                    0x08000c5a   Section        0  uldiv.o(.text)
    .text                                    0x08000cbc   Section        0  llshl.o(.text)
    .text                                    0x08000cda   Section        0  llushr.o(.text)
    .text                                    0x08000cfa   Section        0  llsshr.o(.text)
    .text                                    0x08000d1e   Section        0  iusefp.o(.text)
    .text                                    0x08000d1e   Section        0  fepilogue.o(.text)
    .text                                    0x08000d8c   Section        0  depilogue.o(.text)
    .text                                    0x08000e46   Section        0  dscalb.o(.text)
    .text                                    0x08000e74   Section        0  dsqrt.o(.text)
    .text                                    0x08000f16   Section        0  drem.o(.text)
    .text                                    0x08000f9c   Section        0  dfixul.o(.text)
    .text                                    0x08000fcc   Section       48  cdrcmple.o(.text)
    .text                                    0x08000ffc   Section       36  init.o(.text)
    .text                                    0x08001020   Section        0  __dczerorl2.o(.text)
    [Anonymous Symbol]                       0x08001078   Section        0  button.o(.text.Button_Control)
    [Anonymous Symbol]                       0x0800115c   Section        0  button.o(.text.Button_get)
    [Anonymous Symbol]                       0x08001290   Section        0  isr.o(.text.DMA1_Channel1_IRQHandler)
    [Anonymous Symbol]                       0x080012b4   Section        0  isr.o(.text.DMA1_Channel2_IRQHandler)
    [Anonymous Symbol]                       0x080012d8   Section        0  isr.o(.text.DMA1_Channel3_IRQHandler)
    [Anonymous Symbol]                       0x080012fc   Section        0  isr.o(.text.DMA1_Channel4_IRQHandler)
    [Anonymous Symbol]                       0x08001324   Section        0  isr.o(.text.DMA1_Channel5_IRQHandler)
    [Anonymous Symbol]                       0x08001348   Section        0  isr.o(.text.DMA1_Channel6_IRQHandler)
    [Anonymous Symbol]                       0x0800136c   Section        0  isr.o(.text.DMA1_Channel7_IRQHandler)
    [Anonymous Symbol]                       0x08001390   Section        0  isr.o(.text.DMA2_Channel1_IRQHandler)
    [Anonymous Symbol]                       0x080013b8   Section        0  isr.o(.text.DMA2_Channel2_IRQHandler)
    [Anonymous Symbol]                       0x080013e0   Section        0  isr.o(.text.DMA2_Channel3_IRQHandler)
    [Anonymous Symbol]                       0x08001408   Section        0  isr.o(.text.DMA2_Channel4_IRQHandler)
    [Anonymous Symbol]                       0x08001430   Section        0  isr.o(.text.DMA2_Channel5_IRQHandler)
    [Anonymous Symbol]                       0x08001458   Section        0  flash.o(.text.Data2Var)
    [Anonymous Symbol]                       0x080014c4   Section        0  isr.o(.text.EXTI0_IRQHandler)
    [Anonymous Symbol]                       0x080014d8   Section        0  isr.o(.text.EXTI15_10_IRQHandler)
    [Anonymous Symbol]                       0x080015b4   Section        0  isr.o(.text.EXTI1_IRQHandler)
    [Anonymous Symbol]                       0x080015c8   Section        0  isr.o(.text.EXTI2_IRQHandler)
    [Anonymous Symbol]                       0x080015dc   Section        0  isr.o(.text.EXTI3_IRQHandler)
    [Anonymous Symbol]                       0x080015f0   Section        0  isr.o(.text.EXTI4_IRQHandler)
    [Anonymous Symbol]                       0x08001604   Section        0  isr.o(.text.EXTI9_5_IRQHandler)
    [Anonymous Symbol]                       0x080016c0   Section        0  flash.o(.text.FlashReadMicro)
    [Anonymous Symbol]                       0x08001754   Section        0  flash.o(.text.FlashReadParam)
    [Anonymous Symbol]                       0x080017c0   Section        0  flash.o(.text.FlashReadParams)
    [Anonymous Symbol]                       0x080017dc   Section        0  flash.o(.text.FlashReadPoints)
    [Anonymous Symbol]                       0x08001cac   Section        0  flash.o(.text.FlashWhitePoints)
    [Anonymous Symbol]                       0x08002308   Section        0  flash.o(.text.FlashWriteMicro)
    [Anonymous Symbol]                       0x080023a8   Section        0  flash.o(.text.FlashWriteParam)
    [Anonymous Symbol]                       0x0800240c   Section        0  flash.o(.text.FlashWriteParams)
    [Anonymous Symbol]                       0x08002438   Section        0  button.o(.text.Flash_Control)
    [Anonymous Symbol]                       0x08002524   Section        0  vofa.o(.text.Float_to_Byte)
    [Anonymous Symbol]                       0x08002558   Section        0  gps.o(.text.GPSBearingAngle)
    [Anonymous Symbol]                       0x080026f8   Section        0  gps.o(.text.GPSDistance)
    [Anonymous Symbol]                       0x080028c8   Section        0  gps.o(.text.Get_InitData)
    [Anonymous Symbol]                       0x08002acc   Section        0  gps.o(.text.GpsAngleError)
    [Anonymous Symbol]                       0x08002bec   Section        0  gps.o(.text.GpsDotSelection)
    [Anonymous Symbol]                       0x08002d98   Section        0  system_mm32f3277g.o(.text.SystemInit)
    [Anonymous Symbol]                       0x08002da8   Section        0  isr.o(.text.TIM1_UP_IRQHandler)
    [Anonymous Symbol]                       0x08002dbc   Section        0  isr.o(.text.TIM2_IRQHandler)
    [Anonymous Symbol]                       0x08002dd0   Section        0  isr.o(.text.TIM3_IRQHandler)
    [Anonymous Symbol]                       0x08002de4   Section        0  isr.o(.text.TIM4_IRQHandler)
    [Anonymous Symbol]                       0x08002df8   Section        0  isr.o(.text.TIM5_IRQHandler)
    [Anonymous Symbol]                       0x08003d50   Section        0  isr.o(.text.TIM6_IRQHandler)
    [Anonymous Symbol]                       0x08003d64   Section        0  isr.o(.text.TIM7_IRQHandler)
    [Anonymous Symbol]                       0x08003d78   Section        0  isr.o(.text.TIM8_UP_IRQHandler)
    [Anonymous Symbol]                       0x08003d94   Section        0  gps.o(.text.Trans_Data_Z_plus_X)
    [Anonymous Symbol]                       0x08003e38   Section        0  isr.o(.text.UART1_IRQHandler)
    [Anonymous Symbol]                       0x08003e84   Section        0  isr.o(.text.UART2_IRQHandler)
    [Anonymous Symbol]                       0x08003f74   Section        0  isr.o(.text.UART3_IRQHandler)
    [Anonymous Symbol]                       0x08004054   Section        0  isr.o(.text.UART4_IRQHandler)
    [Anonymous Symbol]                       0x080040a0   Section        0  isr.o(.text.UART5_IRQHandler)
    [Anonymous Symbol]                       0x080040ec   Section        0  isr.o(.text.UART6_IRQHandler)
    [Anonymous Symbol]                       0x0800413c   Section        0  isr.o(.text.UART7_IRQHandler)
    [Anonymous Symbol]                       0x08004188   Section        0  isr.o(.text.UART8_IRQHandler)
    [Anonymous Symbol]                       0x080041d8   Section        0  flash.o(.text.Var2Data)
    [Anonymous Symbol]                       0x08004254   Section        0  show_page.o(.text.VarOP)
    [Anonymous Symbol]                       0x08004370   Section        0  vofa.o(.text.Vofa_1data)
    [Anonymous Symbol]                       0x080043bc   Section        0  vofa.o(.text.Vofa_2data)
    [Anonymous Symbol]                       0x08004444   Section        0  vofa.o(.text.Vofa_4data)
    [Anonymous Symbol]                       0x08004550   Section        0  vofa.o(.text.Vofa_7data)
    [Anonymous Symbol]                       0x08004720   Section        0  route_generating.o(.text.__ARM_isnan)
    __ARM_isnan                              0x08004721   Thumb Code    58  route_generating.o(.text.__ARM_isnan)
    [Anonymous Symbol]                       0x0800475c   Section        0  route_generating.o(.text.__ARM_isnanf)
    __ARM_isnanf                             0x0800475d   Thumb Code    24  route_generating.o(.text.__ARM_isnanf)
    [Anonymous Symbol]                       0x08004774   Section        0  zf_common_interrupt.o(.text.__NVIC_DisableIRQ)
    __NVIC_DisableIRQ                        0x08004775   Thumb Code    62  zf_common_interrupt.o(.text.__NVIC_DisableIRQ)
    [Anonymous Symbol]                       0x080047b4   Section        0  zf_common_interrupt.o(.text.__NVIC_EnableIRQ)
    __NVIC_EnableIRQ                         0x080047b5   Thumb Code    54  zf_common_interrupt.o(.text.__NVIC_EnableIRQ)
    [Anonymous Symbol]                       0x080047ec   Section        0  zf_common_interrupt.o(.text.__NVIC_SetPriority)
    __NVIC_SetPriority                       0x080047ed   Thumb Code    74  zf_common_interrupt.o(.text.__NVIC_SetPriority)
    [Anonymous Symbol]                       0x08004838   Section        0  zf_common_interrupt.o(.text.__NVIC_SetPriorityGrouping)
    __NVIC_SetPriorityGrouping               0x08004839   Thumb Code    64  zf_common_interrupt.o(.text.__NVIC_SetPriorityGrouping)
    [Anonymous Symbol]                       0x08004878   Section        0  zf_driver_adc.o(.text.adc_convert)
    [Anonymous Symbol]                       0x08004914   Section        0  zf_driver_gpio.o(.text.afio_init)
    [Anonymous Symbol]                       0x08004a98   Section        0  zf_device_bluetooth_ch9141.o(.text.bluetooth_ch9141_uart_callback)
    [Anonymous Symbol]                       0x08004acc   Section        0  button.o(.text.button_init)
    [Anonymous Symbol]                       0x08004b48   Section        0  zf_device_type.o(.text.camera_dma_handler)
    [Anonymous Symbol]                       0x08004bc0   Section        0  zf_device_type.o(.text.camera_uart_handler)
    [Anonymous Symbol]                       0x08004cdc   Section        0  zf_device_type.o(.text.camera_vsync_handler)
    [Anonymous Symbol]                       0x08004dac   Section        0  motor.o(.text.change_motor)
    [Anonymous Symbol]                       0x08004e54   Section        0  zf_common_clock.o(.text.clock_init)
    [Anonymous Symbol]                       0x08004e7c   Section        0  zf_common_clock.o(.text.clock_reset)
    clock_reset                              0x08004e7d   Thumb Code   146  zf_common_clock.o(.text.clock_reset)
    [Anonymous Symbol]                       0x08004f10   Section        0  zf_common_clock.o(.text.clock_set_freq)
    clock_set_freq                           0x08004f11   Thumb Code   646  zf_common_clock.o(.text.clock_set_freq)
    [Anonymous Symbol]                       0x08005198   Section        0  route_generating.o(.text.collection_by_hand)
    [Anonymous Symbol]                       0x080054d8   Section        0  zf_common_debug.o(.text.debug_assert_handler)
    [Anonymous Symbol]                       0x08005548   Section        0  zf_common_debug.o(.text.debug_delay)
    debug_delay                              0x08005549   Thumb Code    64  zf_common_debug.o(.text.debug_delay)
    [Anonymous Symbol]                       0x08005588   Section        0  zf_common_debug.o(.text.debug_init)
    [Anonymous Symbol]                       0x080055bc   Section        0  zf_common_debug.o(.text.debug_output)
    debug_output                             0x080055bd   Thumb Code   704  zf_common_debug.o(.text.debug_output)
    [Anonymous Symbol]                       0x0800587c   Section        0  zf_common_debug.o(.text.debug_output_init)
    [Anonymous Symbol]                       0x080058c0   Section        0  zf_common_debug.o(.text.debug_output_struct_init)
    [Anonymous Symbol]                       0x080058f4   Section        0  zf_common_debug.o(.text.debug_uart_str_output)
    debug_uart_str_output                    0x080058f5   Thumb Code    30  zf_common_debug.o(.text.debug_uart_str_output)
    [Anonymous Symbol]                       0x08005914   Section        0  button.o(.text.delay)
    [Anonymous Symbol]                       0x0800595c   Section        0  gps.o(.text.delta_heading_angle)
    [Anonymous Symbol]                       0x08005a14   Section        0  zf_driver_dma.o(.text.dma_disable)
    [Anonymous Symbol]                       0x08005a4c   Section        0  zf_driver_dma.o(.text.dma_enable)
    [Anonymous Symbol]                       0x08005a84   Section        0  zf_driver_dma.o(.text.dma_set_count)
    [Anonymous Symbol]                       0x08005ac8   Section        0  vofa.o(.text.end_vofa)
    [Anonymous Symbol]                       0x08005af4   Section        0  zf_common_fifo.o(.text.fifo_head_offset)
    [Anonymous Symbol]                       0x08005b2c   Section        0  zf_common_fifo.o(.text.fifo_write_buffer)
    [Anonymous Symbol]                       0x08005c1c   Section        0  zf_driver_flash.o(.text.flash_check)
    [Anonymous Symbol]                       0x08005c8c   Section        0  zf_driver_flash.o(.text.flash_erase_page)
    [Anonymous Symbol]                       0x08005d98   Section        0  zf_driver_flash.o(.text.flash_read_page)
    [Anonymous Symbol]                       0x08005e0c   Section        0  zf_driver_flash.o(.text.flash_write_page)
    [Anonymous Symbol]                       0x08005f44   Section        0  route_generating.o(.text.generate_direct_road)
    [Anonymous Symbol]                       0x0800630c   Section        0  route_generating.o(.text.generate_round_road)
    [Anonymous Symbol]                       0x080070f8   Section        0  route_generating.o(.text.generating_route)
    [Anonymous Symbol]                       0x08007438   Section        0  route_generating.o(.text.generating_route_init)
    [Anonymous Symbol]                       0x080075ec   Section        0  zf_common_function.o(.text.get_greatest_common_divisor)
    [Anonymous Symbol]                       0x08007638   Section        0  zf_driver_gpio.o(.text.gpio_get_level)
    [Anonymous Symbol]                       0x08007684   Section        0  zf_driver_gpio.o(.text.gpio_init)
    [Anonymous Symbol]                       0x0800784c   Section        0  route_generating.o(.text.gps_auto_plannation)
    [Anonymous Symbol]                       0x08007f88   Section        0  zf_device_gps_tau1201.o(.text.gps_init)
    [Anonymous Symbol]                       0x080080ec   Section        0  motor.o(.text.gps_servo_control)
    [Anonymous Symbol]                       0x0800859c   Section        0  zf_device_icm20602.o(.text.icm20602_get_gyro)
    [Anonymous Symbol]                       0x080085f4   Section        0  zf_device_icm20602.o(.text.icm20602_init)
    [Anonymous Symbol]                       0x08008738   Section        0  zf_device_icm20602.o(.text.icm20602_read_register)
    icm20602_read_register                   0x08008739   Thumb Code    80  zf_device_icm20602.o(.text.icm20602_read_register)
    [Anonymous Symbol]                       0x08008788   Section        0  zf_device_icm20602.o(.text.icm20602_read_registers)
    icm20602_read_registers                  0x08008789   Thumb Code    86  zf_device_icm20602.o(.text.icm20602_read_registers)
    [Anonymous Symbol]                       0x080087e0   Section        0  zf_device_icm20602.o(.text.icm20602_self_check)
    icm20602_self_check                      0x080087e1   Thumb Code    90  zf_device_icm20602.o(.text.icm20602_self_check)
    [Anonymous Symbol]                       0x0800883c   Section        0  zf_device_icm20602.o(.text.icm20602_write_register)
    icm20602_write_register                  0x0800883d   Thumb Code    80  zf_device_icm20602.o(.text.icm20602_write_register)
    [Anonymous Symbol]                       0x0800888c   Section        0  zf_common_interrupt.o(.text.interrupt_disable)
    [Anonymous Symbol]                       0x080088a4   Section        0  zf_common_interrupt.o(.text.interrupt_enable)
    [Anonymous Symbol]                       0x080088bc   Section        0  zf_common_interrupt.o(.text.interrupt_global_disable)
    [Anonymous Symbol]                       0x080088e0   Section        0  zf_common_interrupt.o(.text.interrupt_global_enable)
    [Anonymous Symbol]                       0x08008918   Section        0  zf_common_interrupt.o(.text.interrupt_init)
    [Anonymous Symbol]                       0x08008924   Section        0  zf_common_interrupt.o(.text.interrupt_set_priority)
    [Anonymous Symbol]                       0x08008948   Section        0  main.o(.text.main)
    [Anonymous Symbol]                       0x08008b20   Section        0  route_generating.o(.text.micro_delete)
    [Anonymous Symbol]                       0x08008b78   Section        0  route_generating.o(.text.micro_operating)
    [Anonymous Symbol]                       0x0800901c   Section        0  route_generating.o(.text.micro_operating_recover)
    [Anonymous Symbol]                       0x080094a8   Section        0  motor.o(.text.motor_init)
    [Anonymous Symbol]                       0x080094ec   Section        0  button.o(.text.move)
    [Anonymous Symbol]                       0x08009858   Section        0  show_page.o(.text.my_lcd_showfloat)
    [Anonymous Symbol]                       0x08009aac   Section        0  show_page.o(.text.my_lcd_showint16)
    [Anonymous Symbol]                       0x08009c60   Section        0  show_page.o(.text.my_lcd_showint32)
    [Anonymous Symbol]                       0x08009e88   Section        0  show_page.o(.text.page_show_params)
    [Anonymous Symbol]                       0x08009f1c   Section        0  show_page.o(.text.page_spin)
    [Anonymous Symbol]                       0x0800a7a4   Section        0  show_page.o(.text.page_text_param)
    [Anonymous Symbol]                       0x0800a8c4   Section        0  gps.o(.text.parseGpsBuffer)
    [Anonymous Symbol]                       0x0800ab64   Section        0  zf_driver_pit.o(.text.pit_init)
    [Anonymous Symbol]                       0x0800aca4   Section        0  zf_driver_pwm.o(.text.pwm_init)
    [Anonymous Symbol]                       0x0800af14   Section        0  zf_driver_pwm.o(.text.pwm_set_duty)
    [Anonymous Symbol]                       0x0800b064   Section        0  gps.o(.text.radians)
    [Anonymous Symbol]                       0x0800b094   Section        0  route_generating.o(.text.round_in_out)
    [Anonymous Symbol]                       0x0800b24c   Section        0  zf_device_wireless_uart.o(.text.seekfree_wireless_init)
    [Anonymous Symbol]                       0x0800b280   Section        0  vofa.o(.text.send_spin_vofa)
    [Anonymous Symbol]                       0x0800b624   Section        0  motor.o(.text.servo_motor_init)
    [Anonymous Symbol]                       0x0800b658   Section        0  motor.o(.text.setspeed_to_pwm)
    [Anonymous Symbol]                       0x0800b6a0   Section        0  zf_driver_spi.o(.text.spi_init)
    [Anonymous Symbol]                       0x0800b960   Section        0  zf_driver_spi.o(.text.spi_read_8bit_register)
    [Anonymous Symbol]                       0x0800ba40   Section        0  zf_driver_spi.o(.text.spi_read_8bit_registers)
    [Anonymous Symbol]                       0x0800bb48   Section        0  zf_driver_spi.o(.text.spi_write_16bit)
    [Anonymous Symbol]                       0x0800bc14   Section        0  zf_driver_spi.o(.text.spi_write_8bit)
    [Anonymous Symbol]                       0x0800bca8   Section        0  zf_driver_spi.o(.text.spi_write_8bit_register)
    [Anonymous Symbol]                       0x0800bd7c   Section        0  gps.o(.text.sq)
    [Anonymous Symbol]                       0x0800bda8   Section        0  zf_driver_delay.o(.text.system_delay)
    [Anonymous Symbol]                       0x0800be40   Section        0  zf_device_tft180.o(.text.tft180_clear)
    [Anonymous Symbol]                       0x0800be98   Section        0  zf_device_tft180.o(.text.tft180_debug_init)
    tft180_debug_init                        0x0800be99   Thumb Code    88  zf_device_tft180.o(.text.tft180_debug_init)
    [Anonymous Symbol]                       0x0800bef0   Section        0  zf_device_tft180.o(.text.tft180_draw_point)
    [Anonymous Symbol]                       0x0800bf88   Section        0  zf_device_tft180.o(.text.tft180_full)
    [Anonymous Symbol]                       0x0800bfe8   Section        0  zf_device_tft180.o(.text.tft180_init)
    [Anonymous Symbol]                       0x0800c418   Section        0  zf_device_tft180.o(.text.tft180_set_color)
    [Anonymous Symbol]                       0x0800c44c   Section        0  zf_device_tft180.o(.text.tft180_set_dir)
    [Anonymous Symbol]                       0x0800c4a4   Section        0  zf_device_tft180.o(.text.tft180_set_region)
    tft180_set_region                        0x0800c4a5   Thumb Code   428  zf_device_tft180.o(.text.tft180_set_region)
    [Anonymous Symbol]                       0x0800c650   Section        0  zf_device_tft180.o(.text.tft180_show_char)
    [Anonymous Symbol]                       0x0800c780   Section        0  zf_device_tft180.o(.text.tft180_show_string)
    [Anonymous Symbol]                       0x0800c82c   Section        0  zf_device_tft180.o(.text.tft180_write_index)
    tft180_write_index                       0x0800c82d   Thumb Code   102  zf_device_tft180.o(.text.tft180_write_index)
    [Anonymous Symbol]                       0x0800c894   Section        0  zf_driver_timer.o(.text.timer_clock_enable)
    [Anonymous Symbol]                       0x0800c950   Section        0  zf_driver_timer.o(.text.timer_funciton_check)
    [Anonymous Symbol]                       0x0800c9c4   Section        0  zf_device_tsl1401.o(.text.tsl1401_collect_pit_handler)
    [Anonymous Symbol]                       0x0800caac   Section        0  zf_driver_uart.o(.text.uart_init)
    [Anonymous Symbol]                       0x0800cd30   Section        0  zf_driver_uart.o(.text.uart_query_byte)
    [Anonymous Symbol]                       0x0800cd88   Section        0  zf_driver_uart.o(.text.uart_read_byte)
    [Anonymous Symbol]                       0x0800cdc8   Section        0  zf_driver_uart.o(.text.uart_rx_interrupt)
    [Anonymous Symbol]                       0x0800ce4c   Section        0  zf_driver_uart.o(.text.uart_write_buffer)
    [Anonymous Symbol]                       0x0800ceb8   Section        0  zf_driver_uart.o(.text.uart_write_byte)
    [Anonymous Symbol]                       0x0800cf04   Section        0  zf_driver_uart.o(.text.uart_write_string)
    [Anonymous Symbol]                       0x0800cf38   Section        0  zf_device_type.o(.text.wireless_module_uart_handler)
    [Anonymous Symbol]                       0x0800cf6c   Section        0  zf_device_wireless_uart.o(.text.wireless_uart_callback)
    [Anonymous Symbol]                       0x0800cfa0   Section        0  route_generating.o(.text.write_in)
    [Anonymous Symbol]                       0x0800d224   Section        0  gps.o(.text.zhufei_nmmsl)
    i.__0sprintf                             0x0800d7c8   Section        0  printfa.o(i.__0sprintf)
    i.__ARM_fpclassify                       0x0800d7f0   Section        0  fpclassify.o(i.__ARM_fpclassify)
    i.__ieee754_rem_pio2                     0x0800d818   Section        0  rred.o(i.__ieee754_rem_pio2)
    i.__kernel_cos                           0x0800dba0   Section        0  cos_i.o(i.__kernel_cos)
    i.__kernel_poly                          0x0800dc9c   Section        0  poly.o(i.__kernel_poly)
    i.__kernel_sin                           0x0800dd48   Section        0  sin_i.o(i.__kernel_sin)
    i.__mathlib_dbl_infnan                   0x0800de34   Section        0  dunder.o(i.__mathlib_dbl_infnan)
    i.__mathlib_dbl_infnan2                  0x0800de3a   Section        0  dunder.o(i.__mathlib_dbl_infnan2)
    i.__mathlib_dbl_invalid                  0x0800de3e   Section        0  dunder.o(i.__mathlib_dbl_invalid)
    i.__mathlib_dbl_underflow                0x0800de4c   Section        0  dunder.o(i.__mathlib_dbl_underflow)
    i.__scatterload_copy                     0x0800de5c   Section       14  handlers.o(i.__scatterload_copy)
    i.__scatterload_null                     0x0800de6a   Section        2  handlers.o(i.__scatterload_null)
    i.__scatterload_zeroinit                 0x0800de6c   Section       14  handlers.o(i.__scatterload_zeroinit)
    i.__set_errno                            0x0800de7c   Section        0  errno.o(i.__set_errno)
    i._fp_digits                             0x0800de88   Section        0  printfa.o(i._fp_digits)
    _fp_digits                               0x0800de89   Thumb Code   366  printfa.o(i._fp_digits)
    i._printf_core                           0x0800e00c   Section        0  printfa.o(i._printf_core)
    _printf_core                             0x0800e00d   Thumb Code  1744  printfa.o(i._printf_core)
    i._printf_post_padding                   0x0800e6e8   Section        0  printfa.o(i._printf_post_padding)
    _printf_post_padding                     0x0800e6e9   Thumb Code    36  printfa.o(i._printf_post_padding)
    i._printf_pre_padding                    0x0800e70c   Section        0  printfa.o(i._printf_pre_padding)
    _printf_pre_padding                      0x0800e70d   Thumb Code    46  printfa.o(i._printf_pre_padding)
    i._sputc                                 0x0800e73a   Section        0  printfa.o(i._sputc)
    _sputc                                   0x0800e73b   Thumb Code    10  printfa.o(i._sputc)
    i.atan                                   0x0800e744   Section        0  atan.o(i.atan)
    i.atan2                                  0x0800e964   Section        0  atan2.o(i.atan2)
    i.cos                                    0x0800eae4   Section        0  cos.o(i.cos)
    i.fmod                                   0x0800eb80   Section        0  fmod.o(i.fmod)
    i.sin                                    0x0800ec14   Section        0  sin.o(i.sin)
    i.sqrt                                   0x0800ecb4   Section        0  sqrt.o(i.sqrt)
    .constdata                               0x0800ed00   Section      152  atan.o(.constdata)
    atanhi                                   0x0800ed00   Data          32  atan.o(.constdata)
    atanlo                                   0x0800ed20   Data          32  atan.o(.constdata)
    aTodd                                    0x0800ed40   Data          40  atan.o(.constdata)
    aTeven                                   0x0800ed68   Data          48  atan.o(.constdata)
    .constdata                               0x0800ed98   Section       48  cos_i.o(.constdata)
    C                                        0x0800ed98   Data          48  cos_i.o(.constdata)
    .constdata                               0x0800edc8   Section        8  qnan.o(.constdata)
    .constdata                               0x0800edd0   Section      200  rred.o(.constdata)
    pio2s                                    0x0800edd0   Data          48  rred.o(.constdata)
    twooverpi                                0x0800ee00   Data         152  rred.o(.constdata)
    .constdata                               0x0800ee98   Section       40  sin_i.o(.constdata)
    S                                        0x0800ee98   Data          40  sin_i.o(.constdata)
    [Anonymous Symbol]                       0x0800eec0   Section        0  zf_device_gps_tau1201.o(.rodata.gps_init.close_gga)
    gps_init.close_gga                       0x0800eec0   Data          11  zf_device_gps_tau1201.o(.rodata.gps_init.close_gga)
    [Anonymous Symbol]                       0x0800eecb   Section        0  zf_device_gps_tau1201.o(.rodata.gps_init.close_gll)
    gps_init.close_gll                       0x0800eecb   Data          11  zf_device_gps_tau1201.o(.rodata.gps_init.close_gll)
    [Anonymous Symbol]                       0x0800eed6   Section        0  zf_device_gps_tau1201.o(.rodata.gps_init.close_grs)
    gps_init.close_grs                       0x0800eed6   Data          11  zf_device_gps_tau1201.o(.rodata.gps_init.close_grs)
    [Anonymous Symbol]                       0x0800eee1   Section        0  zf_device_gps_tau1201.o(.rodata.gps_init.close_gsa)
    gps_init.close_gsa                       0x0800eee1   Data          11  zf_device_gps_tau1201.o(.rodata.gps_init.close_gsa)
    [Anonymous Symbol]                       0x0800eeec   Section        0  zf_device_gps_tau1201.o(.rodata.gps_init.close_gst)
    gps_init.close_gst                       0x0800eeec   Data          11  zf_device_gps_tau1201.o(.rodata.gps_init.close_gst)
    [Anonymous Symbol]                       0x0800eef7   Section        0  zf_device_gps_tau1201.o(.rodata.gps_init.close_gsv)
    gps_init.close_gsv                       0x0800eef7   Data          11  zf_device_gps_tau1201.o(.rodata.gps_init.close_gsv)
    [Anonymous Symbol]                       0x0800ef02   Section        0  zf_device_gps_tau1201.o(.rodata.gps_init.close_txt)
    gps_init.close_txt                       0x0800ef02   Data          11  zf_device_gps_tau1201.o(.rodata.gps_init.close_txt)
    [Anonymous Symbol]                       0x0800ef0d   Section        0  zf_device_gps_tau1201.o(.rodata.gps_init.close_txt_ant)
    gps_init.close_txt_ant                   0x0800ef0d   Data          11  zf_device_gps_tau1201.o(.rodata.gps_init.close_txt_ant)
    [Anonymous Symbol]                       0x0800ef18   Section        0  zf_device_gps_tau1201.o(.rodata.gps_init.close_vtg)
    gps_init.close_vtg                       0x0800ef18   Data          11  zf_device_gps_tau1201.o(.rodata.gps_init.close_vtg)
    [Anonymous Symbol]                       0x0800ef23   Section        0  zf_device_gps_tau1201.o(.rodata.gps_init.close_zda)
    gps_init.close_zda                       0x0800ef23   Data          11  zf_device_gps_tau1201.o(.rodata.gps_init.close_zda)
    [Anonymous Symbol]                       0x0800ef2e   Section        0  zf_device_gps_tau1201.o(.rodata.gps_init.open_rmc)
    gps_init.open_rmc                        0x0800ef2e   Data          11  zf_device_gps_tau1201.o(.rodata.gps_init.open_rmc)
    [Anonymous Symbol]                       0x0800ef39   Section        0  zf_device_gps_tau1201.o(.rodata.gps_init.set_rate)
    gps_init.set_rate                        0x0800ef39   Data          28  zf_device_gps_tau1201.o(.rodata.gps_init.set_rate)
    [Anonymous Symbol]                       0x0800ef55   Section        0  isr.o(.rodata.str1.1)
    .L.str.2                                 0x0800ef55   Data           2  isr.o(.rodata.str1.1)
    [Anonymous Symbol]                       0x0800ef57   Section        0  gps.o(.rodata.str1.1)
    .L.str                                   0x0800ef57   Data           2  gps.o(.rodata.str1.1)
    .L.str.1                                 0x0800ef59   Data           2  gps.o(.rodata.str1.1)
    [Anonymous Symbol]                       0x0800ef5b   Section        0  route_generating.o(.rodata.str1.1)
    .L.str.1                                 0x0800ef5b   Data           9  route_generating.o(.rodata.str1.1)
    .L.str                                   0x0800ef64   Data           9  route_generating.o(.rodata.str1.1)
    [Anonymous Symbol]                       0x0800ef6d   Section        0  show_page.o(.rodata.str1.1)
    .L.str.52                                0x0800ef6d   Data           5  show_page.o(.rodata.str1.1)
    .L.str.44                                0x0800ef72   Data           4  show_page.o(.rodata.str1.1)
    .L.str.43                                0x0800ef76   Data           4  show_page.o(.rodata.str1.1)
    .L.str.54                                0x0800ef7a   Data           9  show_page.o(.rodata.str1.1)
    .L.str.53                                0x0800ef83   Data          11  show_page.o(.rodata.str1.1)
    .L.str.42                                0x0800ef8e   Data           4  show_page.o(.rodata.str1.1)
    .L.str.41                                0x0800ef92   Data           4  show_page.o(.rodata.str1.1)
    .L.str.40                                0x0800ef96   Data           4  show_page.o(.rodata.str1.1)
    .L.str.39                                0x0800ef9a   Data           4  show_page.o(.rodata.str1.1)
    .L.str.47                                0x0800ef9e   Data          11  show_page.o(.rodata.str1.1)
    .L.str.50                                0x0800efa9   Data           8  show_page.o(.rodata.str1.1)
    .L.str.10                                0x0800efb1   Data          10  show_page.o(.rodata.str1.1)
    .L.str.9                                 0x0800efbb   Data           9  show_page.o(.rodata.str1.1)
    .L.str.23                                0x0800efc4   Data           9  show_page.o(.rodata.str1.1)
    .L.str.2                                 0x0800efcd   Data          10  show_page.o(.rodata.str1.1)
    .L.str.3                                 0x0800efd7   Data           9  show_page.o(.rodata.str1.1)
    .L.str                                   0x0800efe0   Data           5  show_page.o(.rodata.str1.1)
    .L.str.1                                 0x0800efe5   Data           6  show_page.o(.rodata.str1.1)
    .L.str.28                                0x0800efeb   Data          10  show_page.o(.rodata.str1.1)
    .L.str.27                                0x0800eff5   Data          10  show_page.o(.rodata.str1.1)
    .L.str.26                                0x0800efff   Data          10  show_page.o(.rodata.str1.1)
    .L.str.4                                 0x0800f009   Data           9  show_page.o(.rodata.str1.1)
    .L.str.49                                0x0800f012   Data           9  show_page.o(.rodata.str1.1)
    .L.str.15                                0x0800f01b   Data           8  show_page.o(.rodata.str1.1)
    .L.str.29                                0x0800f023   Data           6  show_page.o(.rodata.str1.1)
    .L.str.48                                0x0800f029   Data           8  show_page.o(.rodata.str1.1)
    .L.str.14                                0x0800f031   Data           7  show_page.o(.rodata.str1.1)
    .L.str.21                                0x0800f033   Data           5  show_page.o(.rodata.str1.1)
    .L.str.22                                0x0800f038   Data           6  show_page.o(.rodata.str1.1)
    .L.str.5                                 0x0800f03e   Data           8  show_page.o(.rodata.str1.1)
    .L.str.20                                0x0800f046   Data           8  show_page.o(.rodata.str1.1)
    .L.str.35                                0x0800f04e   Data          10  show_page.o(.rodata.str1.1)
    .L.str.24                                0x0800f058   Data           9  show_page.o(.rodata.str1.1)
    .L.str.37                                0x0800f061   Data           9  show_page.o(.rodata.str1.1)
    .L.str.11                                0x0800f06a   Data          10  show_page.o(.rodata.str1.1)
    .L.str.17                                0x0800f074   Data           8  show_page.o(.rodata.str1.1)
    .L.str.16                                0x0800f07c   Data           9  show_page.o(.rodata.str1.1)
    .L.str.3                                 0x0800f083   Data           2  show_page.o(.rodata.str1.1)
    .L.str.51                                0x0800f085   Data          10  show_page.o(.rodata.str1.1)
    .L.str.30                                0x0800f08f   Data          10  show_page.o(.rodata.str1.1)
    .L.str.31                                0x0800f099   Data          10  show_page.o(.rodata.str1.1)
    .L.str.6                                 0x0800f0a3   Data           8  show_page.o(.rodata.str1.1)
    .L.str.12                                0x0800f0ab   Data          10  show_page.o(.rodata.str1.1)
    .L.str                                   0x0800f0b3   Data           2  show_page.o(.rodata.str1.1)
    .L.str.18                                0x0800f0b5   Data          11  show_page.o(.rodata.str1.1)
    .L.str.8                                 0x0800f0c0   Data          10  show_page.o(.rodata.str1.1)
    .L.str.36                                0x0800f0ca   Data           9  show_page.o(.rodata.str1.1)
    .L.str.34                                0x0800f0d3   Data           9  show_page.o(.rodata.str1.1)
    .L.str.46                                0x0800f0dc   Data           8  show_page.o(.rodata.str1.1)
    .L.str.33                                0x0800f0e4   Data           9  show_page.o(.rodata.str1.1)
    .L.str.1                                 0x0800f0ec   Data           1  show_page.o(.rodata.str1.1)
    [Anonymous Symbol]                       0x0800f0ed   Section        0  zf_common_debug.o(.rodata.str1.1)
    .L.str                                   0x0800f0ed   Data          37  zf_common_debug.o(.rodata.str1.1)
    .L.str.5                                 0x0800f0ed   Data          30  zf_common_debug.o(.rodata.str1.1)
    .L.str.4                                 0x0800f10b   Data           9  zf_common_debug.o(.rodata.str1.1)
    .L.str.1                                 0x0800f114   Data          13  zf_common_debug.o(.rodata.str1.1)
    .L.str.2                                 0x0800f121   Data           9  zf_common_debug.o(.rodata.str1.1)
    .L.str.3                                 0x0800f12a   Data          13  zf_common_debug.o(.rodata.str1.1)
    [Anonymous Symbol]                       0x0800f137   Section        0  zf_driver_pit.o(.rodata.str1.1)
    .L.str                                   0x0800f137   Data          42  zf_driver_pit.o(.rodata.str1.1)
    [Anonymous Symbol]                       0x0800f161   Section        0  zf_driver_pwm.o(.rodata.str1.1)
    .L.str                                   0x0800f161   Data          42  zf_driver_pwm.o(.rodata.str1.1)
    [Anonymous Symbol]                       0x0800f18b   Section        0  zf_device_icm20602.o(.rodata.str1.1)
    .L.str                                   0x0800f18b   Data          47  zf_device_icm20602.o(.rodata.str1.1)
    [Anonymous Symbol]                       0x0800f1ba   Section        0  zf_device_tft180.o(.rodata.str1.1)
    .L.str                                   0x0800f1ba   Data          45  zf_device_tft180.o(.rodata.str1.1)
    .data                                    0x20000000   Section        4  errno.o(.data)
    _errno                                   0x20000000   Data           4  errno.o(.data)
    [Anonymous Symbol]                       0x20000004   Section        0  flash.o(.data.FLASH_VARS)
    FLASH_VARS                               0x20000004   Data         348  flash.o(.data.FLASH_VARS)
    [Anonymous Symbol]                       0x20000160   Section        0  show_page.o(.data.FLOAT_SCALE_TABLE)
    FLOAT_SCALE_TABLE                        0x20000160   Data          56  show_page.o(.data.FLOAT_SCALE_TABLE)
    [Anonymous Symbol]                       0x20000198   Section        0  show_page.o(.data.INT16_SCALE_TABLE)
    INT16_SCALE_TABLE                        0x20000198   Data          14  show_page.o(.data.INT16_SCALE_TABLE)
    [Anonymous Symbol]                       0x200001a8   Section        0  show_page.o(.data.INT32_SCALE_TABLE)
    INT32_SCALE_TABLE                        0x200001a8   Data          28  show_page.o(.data.INT32_SCALE_TABLE)
    [Anonymous Symbol]                       0x200001d0   Section        0  zf_driver_adc.o(.data.adc_index)
    adc_index                                0x200001d0   Data          12  zf_driver_adc.o(.data.adc_index)
    [Anonymous Symbol]                       0x200001f8   Section        0  zf_driver_dma.o(.data.dma_index)
    dma_index                                0x200001f8   Data           8  zf_driver_dma.o(.data.dma_index)
    [Anonymous Symbol]                       0x20000244   Section        0  show_page.o(.data.page_spin.vars)
    page_spin.vars                           0x20000244   Data          72  show_page.o(.data.page_spin.vars)
    [Anonymous Symbol]                       0x2000028c   Section        0  show_page.o(.data.page_spin.vars.13)
    page_spin.vars.13                        0x2000028c   Data          60  show_page.o(.data.page_spin.vars.13)
    [Anonymous Symbol]                       0x200002c8   Section        0  show_page.o(.data.page_spin.vars.19)
    page_spin.vars.19                        0x200002c8   Data          72  show_page.o(.data.page_spin.vars.19)
    [Anonymous Symbol]                       0x20000310   Section        0  show_page.o(.data.page_spin.vars.25)
    page_spin.vars.25                        0x20000310   Data          72  show_page.o(.data.page_spin.vars.25)
    [Anonymous Symbol]                       0x20000358   Section        0  show_page.o(.data.page_spin.vars.32)
    page_spin.vars.32                        0x20000358   Data          60  show_page.o(.data.page_spin.vars.32)
    [Anonymous Symbol]                       0x20000394   Section        0  show_page.o(.data.page_spin.vars.38)
    page_spin.vars.38                        0x20000394   Data          72  show_page.o(.data.page_spin.vars.38)
    [Anonymous Symbol]                       0x200003dc   Section        0  show_page.o(.data.page_spin.vars.45)
    page_spin.vars.45                        0x200003dc   Data          72  show_page.o(.data.page_spin.vars.45)
    [Anonymous Symbol]                       0x20000424   Section        0  show_page.o(.data.page_spin.vars.7)
    page_spin.vars.7                         0x20000424   Data          72  show_page.o(.data.page_spin.vars.7)
    [Anonymous Symbol]                       0x20000490   Section        0  zf_driver_spi.o(.data.spi_index)
    spi_index                                0x20000490   Data          12  zf_driver_spi.o(.data.spi_index)
    [Anonymous Symbol]                       0x200004a8   Section        0  zf_device_tft180.o(.data.tft180_bgcolor)
    tft180_bgcolor                           0x200004a8   Data           2  zf_device_tft180.o(.data.tft180_bgcolor)
    [Anonymous Symbol]                       0x200004aa   Section        0  zf_device_tft180.o(.data.tft180_display_dir)
    tft180_display_dir                       0x200004aa   Data           1  zf_device_tft180.o(.data.tft180_display_dir)
    [Anonymous Symbol]                       0x200004ac   Section        0  zf_device_tft180.o(.data.tft180_pencolor)
    tft180_pencolor                          0x200004ac   Data           2  zf_device_tft180.o(.data.tft180_pencolor)
    [Anonymous Symbol]                       0x200004ae   Section        0  zf_device_tft180.o(.data.tft180_x_max)
    tft180_x_max                             0x200004ae   Data           1  zf_device_tft180.o(.data.tft180_x_max)
    [Anonymous Symbol]                       0x200004af   Section        0  zf_device_tft180.o(.data.tft180_y_max)
    tft180_y_max                             0x200004af   Data           1  zf_device_tft180.o(.data.tft180_y_max)
    [Anonymous Symbol]                       0x200004b0   Section        0  zf_driver_uart.o(.data.uart_index)
    uart_index                               0x200004b0   Data          32  zf_driver_uart.o(.data.uart_index)
    [Anonymous Symbol]                       0x200004d0   Section        0  zf_driver_uart.o(.data.uart_irq)
    uart_irq                                 0x200004d0   Data           8  zf_driver_uart.o(.data.uart_irq)
    [Anonymous Symbol]                       0x200004e0   Section        0  zf_common_debug.o(.data.zf_debug_assert_enable)
    zf_debug_assert_enable                   0x200004e0   Data           1  zf_common_debug.o(.data.zf_debug_assert_enable)
    [Anonymous Symbol]                       0x2000052d   Section        0  button.o(.bss.Flash_Control.flash_flag)
    Flash_Control.flash_flag                 0x2000052d   Data           1  button.o(.bss.Flash_Control.flash_flag)
    [Anonymous Symbol]                       0x20000530   Section        0  gps.o(.bss.GpsDotSelection.change_time)
    GpsDotSelection.change_time              0x20000530   Data           4  gps.o(.bss.GpsDotSelection.change_time)
    [Anonymous Symbol]                       0x20000534   Section        0  gps.o(.bss.GpsDotSelection.last_change)
    GpsDotSelection.last_change              0x20000534   Data           4  gps.o(.bss.GpsDotSelection.last_change)
    [Anonymous Symbol]                       0x20003710   Section        0  isr.o(.bss.TIM5_IRQHandler.error_z_sum)
    TIM5_IRQHandler.error_z_sum              0x20003710   Data           4  isr.o(.bss.TIM5_IRQHandler.error_z_sum)
    [Anonymous Symbol]                       0x20003714   Section        0  isr.o(.bss.TIM5_IRQHandler.i)
    TIM5_IRQHandler.i                        0x20003714   Data           4  isr.o(.bss.TIM5_IRQHandler.i)
    [Anonymous Symbol]                       0x20003718   Section        0  isr.o(.bss.TIM5_IRQHandler.temp)
    TIM5_IRQHandler.temp                     0x20003718   Data           8  isr.o(.bss.TIM5_IRQHandler.temp)
    [Anonymous Symbol]                       0x20003720   Section        0  isr.o(.bss.UART2_IRQHandler.num)
    UART2_IRQHandler.num                     0x20003720   Data           4  isr.o(.bss.UART2_IRQHandler.num)
    [Anonymous Symbol]                       0x20003724   Section        0  isr.o(.bss.UART3_IRQHandler.i)
    UART3_IRQHandler.i                       0x20003724   Data           4  isr.o(.bss.UART3_IRQHandler.i)
    [Anonymous Symbol]                       0x20003780   Section        0  zf_driver_adc.o(.bss.adc_resolution)
    adc_resolution                           0x20003780   Data           3  zf_driver_adc.o(.bss.adc_resolution)
    [Anonymous Symbol]                       0x20003788   Section        0  zf_device_bluetooth_ch9141.o(.bss.bluetooth_ch9141_data)
    bluetooth_ch9141_data                    0x20003788   Data           1  zf_device_bluetooth_ch9141.o(.bss.bluetooth_ch9141_data)
    [Anonymous Symbol]                       0x2000378c   Section        0  zf_device_bluetooth_ch9141.o(.bss.bluetooth_ch9141_fifo)
    bluetooth_ch9141_fifo                    0x2000378c   Data          20  zf_device_bluetooth_ch9141.o(.bss.bluetooth_ch9141_fifo)
    [Anonymous Symbol]                       0x200037a7   Section        0  route_generating.o(.bss.collection_by_hand.collect_flag)
    collection_by_hand.collect_flag          0x200037a7   Data           1  route_generating.o(.bss.collection_by_hand.collect_flag)
    [Anonymous Symbol]                       0x200037ac   Section        0  zf_common_debug.o(.bss.debug_assert_handler.assert_nest_index)
    debug_assert_handler.assert_nest_index   0x200037ac   Data           1  zf_common_debug.o(.bss.debug_assert_handler.assert_nest_index)
    [Anonymous Symbol]                       0x200037b0   Section        0  zf_common_debug.o(.bss.debug_output_info)
    debug_output_info                        0x200037b0   Data          20  zf_common_debug.o(.bss.debug_output_info)
    [Anonymous Symbol]                       0x200037f8   Section        0  motor.o(.bss.gps_servo_control.last_duoji)
    gps_servo_control.last_duoji             0x200037f8   Data           4  motor.o(.bss.gps_servo_control.last_duoji)
    [Anonymous Symbol]                       0x20003804   Section        0  zf_common_interrupt.o(.bss.interrupt_nest_count)
    interrupt_nest_count                     0x20003804   Data           4  zf_common_interrupt.o(.bss.interrupt_nest_count)
    [Anonymous Symbol]                       0x200038fc   Section        0  show_page.o(.bss.page_spin.change)
    page_spin.change                         0x200038fc   Data           4  show_page.o(.bss.page_spin.change)
    [Anonymous Symbol]                       0x20003900   Section        0  show_page.o(.bss.page_spin.new_page)
    page_spin.new_page                       0x20003900   Data           4  show_page.o(.bss.page_spin.new_page)
    [Anonymous Symbol]                       0x20004740   Section        0  vofa.o(.bss.send_spin_vofa.i)
    send_spin_vofa.i                         0x20004740   Data           4  vofa.o(.bss.send_spin_vofa.i)
    [Anonymous Symbol]                       0x20004744   Section        0  isr.o(.bss.start_car)
    start_car                                0x20004744   Data           4  isr.o(.bss.start_car)
    [Anonymous Symbol]                       0x2000475c   Section        0  zf_driver_timer.o(.bss.timer_function_state)
    timer_function_state                     0x2000475c   Data           8  zf_driver_timer.o(.bss.timer_function_state)
    [Anonymous Symbol]                       0x2000496d   Section        0  zf_device_tsl1401.o(.bss.tsl1401_init_state)
    tsl1401_init_state                       0x2000496d   Data           1  zf_device_tsl1401.o(.bss.tsl1401_init_state)
    [Anonymous Symbol]                       0x20004970   Section        0  zf_device_wireless_uart.o(.bss.wireless_uart_data)
    wireless_uart_data                       0x20004970   Data           1  zf_device_wireless_uart.o(.bss.wireless_uart_data)
    [Anonymous Symbol]                       0x20004974   Section        0  zf_device_wireless_uart.o(.bss.wireless_uart_fifo)
    wireless_uart_fifo                       0x20004974   Data          20  zf_device_wireless_uart.o(.bss.wireless_uart_fifo)
    [Anonymous Symbol]                       0x2000498c   Section        0  zf_common_debug.o(.bss.zf_debug_init_flag)
    zf_debug_init_flag                       0x2000498c   Data           1  zf_common_debug.o(.bss.zf_debug_init_flag)

    Global Symbols

    Symbol Name                              Value     Ov Type        Size  Object(Section)

    BuildAttributes$$THM_ISAv4$P$D$K$B$S$PE$A:L22UL41UL21$X:L11$S22US41US21$IEEE1$IW$~IW$USESV6$~STKCKD$USESV7$~SHL$OTIME$ROPI$IEEEX$EBA8$MICROLIB$REQ8$PRES8$EABIv2 0x00000000   Number         0  anon$$obj.o ABSOLUTE
    __cpp_initialize__aeabi_                  - Undefined Weak Reference
    __cxa_finalize                            - Undefined Weak Reference
    _clock_init                               - Undefined Weak Reference
    _microlib_exit                            - Undefined Weak Reference
    __Vectors_Size                           0x00000190   Number         0  startup_mm32f3277g.o ABSOLUTE
    __Vectors                                0x08000000   Data           4  startup_mm32f3277g.o(RESET)
    __Vectors_End                            0x08000190   Data           0  startup_mm32f3277g.o(RESET)
    __main                                   0x08000401   Thumb Code     0  entry.o(.ARM.Collect$$$$00000000)
    _main_stk                                0x08000401   Thumb Code     0  entry4.o(.ARM.Collect$$$$00000003)
    _main_scatterload                        0x08000405   Thumb Code     0  entry5.o(.ARM.Collect$$$$00000004)
    __main_after_scatterload                 0x08000409   Thumb Code     0  entry5.o(.ARM.Collect$$$$00000004)
    _main_clock                              0x08000409   Thumb Code     0  entry7b.o(.ARM.Collect$$$$00000008)
    _main_cpp_init                           0x08000409   Thumb Code     0  entry8b.o(.ARM.Collect$$$$0000000A)
    _main_init                               0x08000409   Thumb Code     0  entry9a.o(.ARM.Collect$$$$0000000B)
    __rt_final_cpp                           0x08000411   Thumb Code     0  entry10a.o(.ARM.Collect$$$$0000000D)
    __rt_final_exit                          0x08000411   Thumb Code     0  entry11a.o(.ARM.Collect$$$$0000000F)
    Reset_Handler                            0x08000415   Thumb Code     8  startup_mm32f3277g.o(.text)
    NMI_Handler                              0x0800041d   Thumb Code     2  startup_mm32f3277g.o(.text)
    HardFault_Handler                        0x0800041f   Thumb Code     2  startup_mm32f3277g.o(.text)
    MemManage_Handler                        0x08000421   Thumb Code     2  startup_mm32f3277g.o(.text)
    BusFault_Handler                         0x08000423   Thumb Code     2  startup_mm32f3277g.o(.text)
    UsageFault_Handler                       0x08000425   Thumb Code     2  startup_mm32f3277g.o(.text)
    SVC_Handler                              0x08000427   Thumb Code     2  startup_mm32f3277g.o(.text)
    DebugMon_Handler                         0x08000429   Thumb Code     2  startup_mm32f3277g.o(.text)
    PendSV_Handler                           0x0800042b   Thumb Code     2  startup_mm32f3277g.o(.text)
    SysTick_Handler                          0x0800042d   Thumb Code     2  startup_mm32f3277g.o(.text)
    ADC1_2_IRQHandler                        0x0800042f   Thumb Code     0  startup_mm32f3277g.o(.text)
    ADC3_IRQHandler                          0x0800042f   Thumb Code     0  startup_mm32f3277g.o(.text)
    CAN1_RX_IRQHandler                       0x0800042f   Thumb Code     0  startup_mm32f3277g.o(.text)
    COMP1_2_IRQHandler                       0x0800042f   Thumb Code     0  startup_mm32f3277g.o(.text)
    ETH_IRQHandler                           0x0800042f   Thumb Code     0  startup_mm32f3277g.o(.text)
    FLASH_IRQHandler                         0x0800042f   Thumb Code     0  startup_mm32f3277g.o(.text)
    FlashCache_IRQHandler                    0x0800042f   Thumb Code     0  startup_mm32f3277g.o(.text)
    I2C1_IRQHandler                          0x0800042f   Thumb Code     0  startup_mm32f3277g.o(.text)
    I2C2_IRQHandler                          0x0800042f   Thumb Code     0  startup_mm32f3277g.o(.text)
    OTG_FS_IRQHandler                        0x0800042f   Thumb Code     0  startup_mm32f3277g.o(.text)
    OTG_FS_WKUP_IRQHandler                   0x0800042f   Thumb Code     0  startup_mm32f3277g.o(.text)
    PVD_IRQHandler                           0x0800042f   Thumb Code     0  startup_mm32f3277g.o(.text)
    RCC_CRS_IRQHandler                       0x0800042f   Thumb Code     0  startup_mm32f3277g.o(.text)
    RTCAlarm_IRQHandler                      0x0800042f   Thumb Code     0  startup_mm32f3277g.o(.text)
    RTC_IRQHandler                           0x0800042f   Thumb Code     0  startup_mm32f3277g.o(.text)
    SDIO_IRQHandler                          0x0800042f   Thumb Code     0  startup_mm32f3277g.o(.text)
    SPI1_IRQHandler                          0x0800042f   Thumb Code     0  startup_mm32f3277g.o(.text)
    SPI2_IRQHandler                          0x0800042f   Thumb Code     0  startup_mm32f3277g.o(.text)
    SPI3_IRQHandler                          0x0800042f   Thumb Code     0  startup_mm32f3277g.o(.text)
    TAMPER_IRQHandler                        0x0800042f   Thumb Code     0  startup_mm32f3277g.o(.text)
    TIM1_BRK_IRQHandler                      0x0800042f   Thumb Code     0  startup_mm32f3277g.o(.text)
    TIM1_CC_IRQHandler                       0x0800042f   Thumb Code     0  startup_mm32f3277g.o(.text)
    TIM1_TRG_COM_IRQHandler                  0x0800042f   Thumb Code     0  startup_mm32f3277g.o(.text)
    TIM8_BRK_IRQHandler                      0x0800042f   Thumb Code     0  startup_mm32f3277g.o(.text)
    TIM8_CC_IRQHandler                       0x0800042f   Thumb Code     0  startup_mm32f3277g.o(.text)
    TIM8_TRG_COM_IRQHandler                  0x0800042f   Thumb Code     0  startup_mm32f3277g.o(.text)
    WWDG_IRQHandler                          0x0800042f   Thumb Code     0  startup_mm32f3277g.o(.text)
    __aeabi_memcpy                           0x08000439   Thumb Code    36  memcpya.o(.text)
    __aeabi_memcpy4                          0x08000439   Thumb Code     0  memcpya.o(.text)
    __aeabi_memcpy8                          0x08000439   Thumb Code     0  memcpya.o(.text)
    __aeabi_memset                           0x0800045d   Thumb Code    14  memseta.o(.text)
    __aeabi_memset4                          0x0800045d   Thumb Code     0  memseta.o(.text)
    __aeabi_memset8                          0x0800045d   Thumb Code     0  memseta.o(.text)
    __aeabi_memclr                           0x0800046b   Thumb Code     4  memseta.o(.text)
    __aeabi_memclr4                          0x0800046b   Thumb Code     0  memseta.o(.text)
    __aeabi_memclr8                          0x0800046b   Thumb Code     0  memseta.o(.text)
    _memset$wrapper                          0x0800046f   Thumb Code    18  memseta.o(.text)
    strstr                                   0x08000481   Thumb Code    36  strstr.o(.text)
    strlen                                   0x080004a5   Thumb Code    14  strlen.o(.text)
    strcmp                                   0x080004b3   Thumb Code    28  strcmp.o(.text)
    strcpy                                   0x080004cf   Thumb Code    18  strcpy.o(.text)
    __aeabi_fadd                             0x080004e1   Thumb Code   164  fadd.o(.text)
    __aeabi_fsub                             0x08000585   Thumb Code     6  fadd.o(.text)
    __aeabi_frsub                            0x0800058b   Thumb Code     6  fadd.o(.text)
    __aeabi_fmul                             0x08000591   Thumb Code   100  fmul.o(.text)
    __aeabi_fdiv                             0x080005f5   Thumb Code   124  fdiv.o(.text)
    __aeabi_dadd                             0x08000671   Thumb Code   322  dadd.o(.text)
    __aeabi_dsub                             0x080007b3   Thumb Code     6  dadd.o(.text)
    __aeabi_drsub                            0x080007b9   Thumb Code     6  dadd.o(.text)
    __aeabi_dmul                             0x080007bf   Thumb Code   228  dmul.o(.text)
    __aeabi_ddiv                             0x080008a3   Thumb Code   222  ddiv.o(.text)
    __aeabi_fcmple                           0x08000981   Thumb Code    28  fcmple.o(.text)
    __aeabi_fcmplt                           0x0800099d   Thumb Code    28  fcmplt.o(.text)
    __aeabi_fcmpge                           0x080009b9   Thumb Code    28  fcmpge.o(.text)
    __aeabi_dcmple                           0x080009d5   Thumb Code    54  dcmple.o(.text)
    __aeabi_dcmplt                           0x08000a0b   Thumb Code    54  dcmplt.o(.text)
    __aeabi_dcmpge                           0x08000a41   Thumb Code    54  dcmpge.o(.text)
    __aeabi_dcmpeq                           0x08000a77   Thumb Code    56  dcmpeq.o(.text)
    __aeabi_i2f                              0x08000aaf   Thumb Code    18  fflti.o(.text)
    __aeabi_ui2f                             0x08000ac1   Thumb Code    10  ffltui.o(.text)
    __aeabi_i2d                              0x08000acb   Thumb Code    34  dflti.o(.text)
    __aeabi_ui2d                             0x08000aed   Thumb Code    26  dfltui.o(.text)
    __aeabi_f2iz                             0x08000b07   Thumb Code    50  ffixi.o(.text)
    __aeabi_f2uiz                            0x08000b39   Thumb Code    40  ffixui.o(.text)
    __aeabi_d2iz                             0x08000b61   Thumb Code    62  dfixi.o(.text)
    __aeabi_d2uiz                            0x08000b9f   Thumb Code    50  dfixui.o(.text)
    __aeabi_f2d                              0x08000bd1   Thumb Code    38  f2d.o(.text)
    __aeabi_d2f                              0x08000bf7   Thumb Code    56  d2f.o(.text)
    __aeabi_uidiv                            0x08000c2f   Thumb Code     0  uidiv.o(.text)
    __aeabi_uidivmod                         0x08000c2f   Thumb Code    44  uidiv.o(.text)
    __aeabi_uldivmod                         0x08000c5b   Thumb Code    98  uldiv.o(.text)
    __aeabi_llsl                             0x08000cbd   Thumb Code    30  llshl.o(.text)
    _ll_shift_l                              0x08000cbd   Thumb Code     0  llshl.o(.text)
    __aeabi_llsr                             0x08000cdb   Thumb Code    32  llushr.o(.text)
    _ll_ushift_r                             0x08000cdb   Thumb Code     0  llushr.o(.text)
    __aeabi_lasr                             0x08000cfb   Thumb Code    36  llsshr.o(.text)
    _ll_sshift_r                             0x08000cfb   Thumb Code     0  llsshr.o(.text)
    __I$use$fp                               0x08000d1f   Thumb Code     0  iusefp.o(.text)
    _float_round                             0x08000d1f   Thumb Code    18  fepilogue.o(.text)
    _float_epilogue                          0x08000d31   Thumb Code    92  fepilogue.o(.text)
    _double_round                            0x08000d8d   Thumb Code    30  depilogue.o(.text)
    _double_epilogue                         0x08000dab   Thumb Code   156  depilogue.o(.text)
    __ARM_scalbn                             0x08000e47   Thumb Code    46  dscalb.o(.text)
    scalbn                                   0x08000e47   Thumb Code     0  dscalb.o(.text)
    _dsqrt                                   0x08000e75   Thumb Code   162  dsqrt.o(.text)
    _drem                                    0x08000f17   Thumb Code   134  drem.o(.text)
    __aeabi_d2ulz                            0x08000f9d   Thumb Code    48  dfixul.o(.text)
    __aeabi_cdrcmple                         0x08000fcd   Thumb Code    48  cdrcmple.o(.text)
    __scatterload                            0x08000ffd   Thumb Code    28  init.o(.text)
    __scatterload_rt2                        0x08000ffd   Thumb Code     0  init.o(.text)
    __decompress                             0x08001021   Thumb Code     0  __dczerorl2.o(.text)
    __decompress1                            0x08001021   Thumb Code    86  __dczerorl2.o(.text)
    Button_Control                           0x08001079   Thumb Code   226  button.o(.text.Button_Control)
    Button_get                               0x0800115d   Thumb Code   306  button.o(.text.Button_get)
    DMA1_Channel1_IRQHandler                 0x08001291   Thumb Code    34  isr.o(.text.DMA1_Channel1_IRQHandler)
    DMA1_Channel2_IRQHandler                 0x080012b5   Thumb Code    34  isr.o(.text.DMA1_Channel2_IRQHandler)
    DMA1_Channel3_IRQHandler                 0x080012d9   Thumb Code    34  isr.o(.text.DMA1_Channel3_IRQHandler)
    DMA1_Channel4_IRQHandler                 0x080012fd   Thumb Code    40  isr.o(.text.DMA1_Channel4_IRQHandler)
    DMA1_Channel5_IRQHandler                 0x08001325   Thumb Code    34  isr.o(.text.DMA1_Channel5_IRQHandler)
    DMA1_Channel6_IRQHandler                 0x08001349   Thumb Code    34  isr.o(.text.DMA1_Channel6_IRQHandler)
    DMA1_Channel7_IRQHandler                 0x0800136d   Thumb Code    34  isr.o(.text.DMA1_Channel7_IRQHandler)
    DMA2_Channel1_IRQHandler                 0x08001391   Thumb Code    38  isr.o(.text.DMA2_Channel1_IRQHandler)
    DMA2_Channel2_IRQHandler                 0x080013b9   Thumb Code    38  isr.o(.text.DMA2_Channel2_IRQHandler)
    DMA2_Channel3_IRQHandler                 0x080013e1   Thumb Code    38  isr.o(.text.DMA2_Channel3_IRQHandler)
    DMA2_Channel4_IRQHandler                 0x08001409   Thumb Code    38  isr.o(.text.DMA2_Channel4_IRQHandler)
    DMA2_Channel5_IRQHandler                 0x08001431   Thumb Code    38  isr.o(.text.DMA2_Channel5_IRQHandler)
    Data2Var                                 0x08001459   Thumb Code   106  flash.o(.text.Data2Var)
    EXTI0_IRQHandler                         0x080014c5   Thumb Code    18  isr.o(.text.EXTI0_IRQHandler)
    EXTI15_10_IRQHandler                     0x080014d9   Thumb Code   218  isr.o(.text.EXTI15_10_IRQHandler)
    EXTI1_IRQHandler                         0x080015b5   Thumb Code    18  isr.o(.text.EXTI1_IRQHandler)
    EXTI2_IRQHandler                         0x080015c9   Thumb Code    18  isr.o(.text.EXTI2_IRQHandler)
    EXTI3_IRQHandler                         0x080015dd   Thumb Code    18  isr.o(.text.EXTI3_IRQHandler)
    EXTI4_IRQHandler                         0x080015f1   Thumb Code    18  isr.o(.text.EXTI4_IRQHandler)
    EXTI9_5_IRQHandler                       0x08001605   Thumb Code   188  isr.o(.text.EXTI9_5_IRQHandler)
    FlashReadMicro                           0x080016c1   Thumb Code   146  flash.o(.text.FlashReadMicro)
    FlashReadParam                           0x08001755   Thumb Code   108  flash.o(.text.FlashReadParam)
    FlashReadParams                          0x080017c1   Thumb Code    26  flash.o(.text.FlashReadParams)
    FlashReadPoints                          0x080017dd   Thumb Code  1230  flash.o(.text.FlashReadPoints)
    FlashWhitePoints                         0x08001cad   Thumb Code  1628  flash.o(.text.FlashWhitePoints)
    FlashWriteMicro                          0x08002309   Thumb Code   158  flash.o(.text.FlashWriteMicro)
    FlashWriteParam                          0x080023a9   Thumb Code    98  flash.o(.text.FlashWriteParam)
    FlashWriteParams                         0x0800240d   Thumb Code    44  flash.o(.text.FlashWriteParams)
    Flash_Control                            0x08002439   Thumb Code   236  button.o(.text.Flash_Control)
    Float_to_Byte                            0x08002525   Thumb Code    52  vofa.o(.text.Float_to_Byte)
    GPSBearingAngle                          0x08002559   Thumb Code   414  gps.o(.text.GPSBearingAngle)
    GPSDistance                              0x080026f9   Thumb Code   464  gps.o(.text.GPSDistance)
    Get_InitData                             0x080028c9   Thumb Code   516  gps.o(.text.Get_InitData)
    GpsAngleError                            0x08002acd   Thumb Code   288  gps.o(.text.GpsAngleError)
    GpsDotSelection                          0x08002bed   Thumb Code   426  gps.o(.text.GpsDotSelection)
    SystemInit                               0x08002d99   Thumb Code    16  system_mm32f3277g.o(.text.SystemInit)
    TIM1_UP_IRQHandler                       0x08002da9   Thumb Code    20  isr.o(.text.TIM1_UP_IRQHandler)
    TIM2_IRQHandler                          0x08002dbd   Thumb Code    18  isr.o(.text.TIM2_IRQHandler)
    TIM3_IRQHandler                          0x08002dd1   Thumb Code    20  isr.o(.text.TIM3_IRQHandler)
    TIM4_IRQHandler                          0x08002de5   Thumb Code    20  isr.o(.text.TIM4_IRQHandler)
    TIM5_IRQHandler                          0x08002df9   Thumb Code  3928  isr.o(.text.TIM5_IRQHandler)
    TIM6_IRQHandler                          0x08003d51   Thumb Code    20  isr.o(.text.TIM6_IRQHandler)
    TIM7_IRQHandler                          0x08003d65   Thumb Code    20  isr.o(.text.TIM7_IRQHandler)
    TIM8_UP_IRQHandler                       0x08003d79   Thumb Code    26  isr.o(.text.TIM8_UP_IRQHandler)
    Trans_Data_Z_plus_X                      0x08003d95   Thumb Code   162  gps.o(.text.Trans_Data_Z_plus_X)
    UART1_IRQHandler                         0x08003e39   Thumb Code    74  isr.o(.text.UART1_IRQHandler)
    UART2_IRQHandler                         0x08003e85   Thumb Code   240  isr.o(.text.UART2_IRQHandler)
    UART3_IRQHandler                         0x08003f75   Thumb Code   222  isr.o(.text.UART3_IRQHandler)
    UART4_IRQHandler                         0x08004055   Thumb Code    74  isr.o(.text.UART4_IRQHandler)
    UART5_IRQHandler                         0x080040a1   Thumb Code    74  isr.o(.text.UART5_IRQHandler)
    UART6_IRQHandler                         0x080040ed   Thumb Code    80  isr.o(.text.UART6_IRQHandler)
    UART7_IRQHandler                         0x0800413d   Thumb Code    74  isr.o(.text.UART7_IRQHandler)
    UART8_IRQHandler                         0x08004189   Thumb Code    80  isr.o(.text.UART8_IRQHandler)
    Var2Data                                 0x080041d9   Thumb Code   122  flash.o(.text.Var2Data)
    VarOP                                    0x08004255   Thumb Code   282  show_page.o(.text.VarOP)
    Vofa_1data                               0x08004371   Thumb Code    74  vofa.o(.text.Vofa_1data)
    Vofa_2data                               0x080043bd   Thumb Code   136  vofa.o(.text.Vofa_2data)
    Vofa_4data                               0x08004445   Thumb Code   268  vofa.o(.text.Vofa_4data)
    Vofa_7data                               0x08004551   Thumb Code   464  vofa.o(.text.Vofa_7data)
    adc_convert                              0x08004879   Thumb Code   154  zf_driver_adc.o(.text.adc_convert)
    afio_init                                0x08004915   Thumb Code   386  zf_driver_gpio.o(.text.afio_init)
    bluetooth_ch9141_uart_callback           0x08004a99   Thumb Code    50  zf_device_bluetooth_ch9141.o(.text.bluetooth_ch9141_uart_callback)
    button_init                              0x08004acd   Thumb Code   122  button.o(.text.button_init)
    camera_dma_handler                       0x08004b49   Thumb Code   118  zf_device_type.o(.text.camera_dma_handler)
    camera_uart_handler                      0x08004bc1   Thumb Code   284  zf_device_type.o(.text.camera_uart_handler)
    camera_vsync_handler                     0x08004cdd   Thumb Code   208  zf_device_type.o(.text.camera_vsync_handler)
    change_motor                             0x08004dad   Thumb Code   166  motor.o(.text.change_motor)
    clock_init                               0x08004e55   Thumb Code    40  zf_common_clock.o(.text.clock_init)
    collection_by_hand                       0x08005199   Thumb Code   830  route_generating.o(.text.collection_by_hand)
    debug_assert_handler                     0x080054d9   Thumb Code   112  zf_common_debug.o(.text.debug_assert_handler)
    debug_init                               0x08005589   Thumb Code    50  zf_common_debug.o(.text.debug_init)
    debug_output_init                        0x0800587d   Thumb Code    66  zf_common_debug.o(.text.debug_output_init)
    debug_output_struct_init                 0x080058c1   Thumb Code    52  zf_common_debug.o(.text.debug_output_struct_init)
    delay                                    0x08005915   Thumb Code    72  button.o(.text.delay)
    delta_heading_angle                      0x0800595d   Thumb Code   184  gps.o(.text.delta_heading_angle)
    dma_disable                              0x08005a15   Thumb Code    54  zf_driver_dma.o(.text.dma_disable)
    dma_enable                               0x08005a4d   Thumb Code    54  zf_driver_dma.o(.text.dma_enable)
    dma_set_count                            0x08005a85   Thumb Code    66  zf_driver_dma.o(.text.dma_set_count)
    end_vofa                                 0x08005ac9   Thumb Code    44  vofa.o(.text.end_vofa)
    fifo_head_offset                         0x08005af5   Thumb Code    56  zf_common_fifo.o(.text.fifo_head_offset)
    fifo_write_buffer                        0x08005b2d   Thumb Code   240  zf_common_fifo.o(.text.fifo_write_buffer)
    flash_check                              0x08005c1d   Thumb Code   112  zf_driver_flash.o(.text.flash_check)
    flash_erase_page                         0x08005c8d   Thumb Code   266  zf_driver_flash.o(.text.flash_erase_page)
    flash_read_page                          0x08005d99   Thumb Code   116  zf_driver_flash.o(.text.flash_read_page)
    flash_write_page                         0x08005e0d   Thumb Code   312  zf_driver_flash.o(.text.flash_write_page)
    generate_direct_road                     0x08005f45   Thumb Code   966  route_generating.o(.text.generate_direct_road)
    generate_round_road                      0x0800630d   Thumb Code  3562  route_generating.o(.text.generate_round_road)
    generating_route                         0x080070f9   Thumb Code   830  route_generating.o(.text.generating_route)
    generating_route_init                    0x08007439   Thumb Code   436  route_generating.o(.text.generating_route_init)
    get_greatest_common_divisor              0x080075ed   Thumb Code    74  zf_common_function.o(.text.get_greatest_common_divisor)
    gpio_get_level                           0x08007639   Thumb Code    76  zf_driver_gpio.o(.text.gpio_get_level)
    gpio_init                                0x08007685   Thumb Code   454  zf_driver_gpio.o(.text.gpio_init)
    gps_auto_plannation                      0x0800784d   Thumb Code  1852  route_generating.o(.text.gps_auto_plannation)
    gps_init                                 0x08007f89   Thumb Code   354  zf_device_gps_tau1201.o(.text.gps_init)
    gps_servo_control                        0x080080ed   Thumb Code  1200  motor.o(.text.gps_servo_control)
    icm20602_get_gyro                        0x0800859d   Thumb Code    86  zf_device_icm20602.o(.text.icm20602_get_gyro)
    icm20602_init                            0x080085f5   Thumb Code   324  zf_device_icm20602.o(.text.icm20602_init)
    interrupt_disable                        0x0800888d   Thumb Code    24  zf_common_interrupt.o(.text.interrupt_disable)
    interrupt_enable                         0x080088a5   Thumb Code    24  zf_common_interrupt.o(.text.interrupt_enable)
    interrupt_global_disable                 0x080088bd   Thumb Code    36  zf_common_interrupt.o(.text.interrupt_global_disable)
    interrupt_global_enable                  0x080088e1   Thumb Code    54  zf_common_interrupt.o(.text.interrupt_global_enable)
    interrupt_init                           0x08008919   Thumb Code    10  zf_common_interrupt.o(.text.interrupt_init)
    interrupt_set_priority                   0x08008925   Thumb Code    36  zf_common_interrupt.o(.text.interrupt_set_priority)
    main                                     0x08008949   Thumb Code   470  main.o(.text.main)
    micro_delete                             0x08008b21   Thumb Code    88  route_generating.o(.text.micro_delete)
    micro_operating                          0x08008b79   Thumb Code  1188  route_generating.o(.text.micro_operating)
    micro_operating_recover                  0x0800901d   Thumb Code  1164  route_generating.o(.text.micro_operating_recover)
    motor_init                               0x080094a9   Thumb Code    66  motor.o(.text.motor_init)
    move                                     0x080094ed   Thumb Code   874  button.o(.text.move)
    my_lcd_showfloat                         0x08009859   Thumb Code   594  show_page.o(.text.my_lcd_showfloat)
    my_lcd_showint16                         0x08009aad   Thumb Code   434  show_page.o(.text.my_lcd_showint16)
    my_lcd_showint32                         0x08009c61   Thumb Code   552  show_page.o(.text.my_lcd_showint32)
    page_show_params                         0x08009e89   Thumb Code   148  show_page.o(.text.page_show_params)
    page_spin                                0x08009f1d   Thumb Code  2182  show_page.o(.text.page_spin)
    page_text_param                          0x0800a7a5   Thumb Code   288  show_page.o(.text.page_text_param)
    parseGpsBuffer                           0x0800a8c5   Thumb Code   670  gps.o(.text.parseGpsBuffer)
    pit_init                                 0x0800ab65   Thumb Code   318  zf_driver_pit.o(.text.pit_init)
    pwm_init                                 0x0800aca5   Thumb Code   622  zf_driver_pwm.o(.text.pwm_init)
    pwm_set_duty                             0x0800af15   Thumb Code   336  zf_driver_pwm.o(.text.pwm_set_duty)
    radians                                  0x0800b065   Thumb Code    48  gps.o(.text.radians)
    round_in_out                             0x0800b095   Thumb Code   438  route_generating.o(.text.round_in_out)
    seekfree_wireless_init                   0x0800b24d   Thumb Code    50  zf_device_wireless_uart.o(.text.seekfree_wireless_init)
    send_spin_vofa                           0x0800b281   Thumb Code   930  vofa.o(.text.send_spin_vofa)
    servo_motor_init                         0x0800b625   Thumb Code    52  motor.o(.text.servo_motor_init)
    setspeed_to_pwm                          0x0800b659   Thumb Code    70  motor.o(.text.setspeed_to_pwm)
    spi_init                                 0x0800b6a1   Thumb Code   704  zf_driver_spi.o(.text.spi_init)
    spi_read_8bit_register                   0x0800b961   Thumb Code   224  zf_driver_spi.o(.text.spi_read_8bit_register)
    spi_read_8bit_registers                  0x0800ba41   Thumb Code   264  zf_driver_spi.o(.text.spi_read_8bit_registers)
    spi_write_16bit                          0x0800bb49   Thumb Code   202  zf_driver_spi.o(.text.spi_write_16bit)
    spi_write_8bit                           0x0800bc15   Thumb Code   148  zf_driver_spi.o(.text.spi_write_8bit)
    spi_write_8bit_register                  0x0800bca9   Thumb Code   210  zf_driver_spi.o(.text.spi_write_8bit_register)
    sq                                       0x0800bd7d   Thumb Code    44  gps.o(.text.sq)
    system_delay                             0x0800bda9   Thumb Code   150  zf_driver_delay.o(.text.system_delay)
    tft180_clear                             0x0800be41   Thumb Code    88  zf_device_tft180.o(.text.tft180_clear)
    tft180_draw_point                        0x0800bef1   Thumb Code   150  zf_device_tft180.o(.text.tft180_draw_point)
    tft180_full                              0x0800bf89   Thumb Code    94  zf_device_tft180.o(.text.tft180_full)
    tft180_init                              0x0800bfe9   Thumb Code  1072  zf_device_tft180.o(.text.tft180_init)
    tft180_set_color                         0x0800c419   Thumb Code    50  zf_device_tft180.o(.text.tft180_set_color)
    tft180_set_dir                           0x0800c44d   Thumb Code    86  zf_device_tft180.o(.text.tft180_set_dir)
    tft180_show_char                         0x0800c651   Thumb Code   304  zf_device_tft180.o(.text.tft180_show_char)
    tft180_show_string                       0x0800c781   Thumb Code   172  zf_device_tft180.o(.text.tft180_show_string)
    timer_clock_enable                       0x0800c895   Thumb Code   186  zf_driver_timer.o(.text.timer_clock_enable)
    timer_funciton_check                     0x0800c951   Thumb Code   114  zf_driver_timer.o(.text.timer_funciton_check)
    tsl1401_collect_pit_handler              0x0800c9c5   Thumb Code   230  zf_device_tsl1401.o(.text.tsl1401_collect_pit_handler)
    uart_init                                0x0800caad   Thumb Code   642  zf_driver_uart.o(.text.uart_init)
    uart_query_byte                          0x0800cd31   Thumb Code    88  zf_driver_uart.o(.text.uart_query_byte)
    uart_read_byte                           0x0800cd89   Thumb Code    64  zf_driver_uart.o(.text.uart_read_byte)
    uart_rx_interrupt                        0x0800cdc9   Thumb Code   130  zf_driver_uart.o(.text.uart_rx_interrupt)
    uart_write_buffer                        0x0800ce4d   Thumb Code   106  zf_driver_uart.o(.text.uart_write_buffer)
    uart_write_byte                          0x0800ceb9   Thumb Code    74  zf_driver_uart.o(.text.uart_write_byte)
    uart_write_string                        0x0800cf05   Thumb Code    52  zf_driver_uart.o(.text.uart_write_string)
    wireless_module_uart_handler             0x0800cf39   Thumb Code    50  zf_device_type.o(.text.wireless_module_uart_handler)
    wireless_uart_callback                   0x0800cf6d   Thumb Code    50  zf_device_wireless_uart.o(.text.wireless_uart_callback)
    write_in                                 0x0800cfa1   Thumb Code   644  route_generating.o(.text.write_in)
    zhufei_nmmsl                             0x0800d225   Thumb Code  1444  gps.o(.text.zhufei_nmmsl)
    __0sprintf                               0x0800d7c9   Thumb Code    34  printfa.o(i.__0sprintf)
    __1sprintf                               0x0800d7c9   Thumb Code     0  printfa.o(i.__0sprintf)
    __2sprintf                               0x0800d7c9   Thumb Code     0  printfa.o(i.__0sprintf)
    __c89sprintf                             0x0800d7c9   Thumb Code     0  printfa.o(i.__0sprintf)
    sprintf                                  0x0800d7c9   Thumb Code     0  printfa.o(i.__0sprintf)
    __ARM_fpclassify                         0x0800d7f1   Thumb Code    40  fpclassify.o(i.__ARM_fpclassify)
    __ieee754_rem_pio2                       0x0800d819   Thumb Code   828  rred.o(i.__ieee754_rem_pio2)
    __kernel_cos                             0x0800dba1   Thumb Code   230  cos_i.o(i.__kernel_cos)
    __kernel_poly                            0x0800dc9d   Thumb Code   170  poly.o(i.__kernel_poly)
    __kernel_sin                             0x0800dd49   Thumb Code   224  sin_i.o(i.__kernel_sin)
    __mathlib_dbl_infnan                     0x0800de35   Thumb Code     6  dunder.o(i.__mathlib_dbl_infnan)
    __mathlib_dbl_infnan2                    0x0800de3b   Thumb Code     4  dunder.o(i.__mathlib_dbl_infnan2)
    __mathlib_dbl_invalid                    0x0800de3f   Thumb Code    12  dunder.o(i.__mathlib_dbl_invalid)
    __mathlib_dbl_underflow                  0x0800de4d   Thumb Code    10  dunder.o(i.__mathlib_dbl_underflow)
    __scatterload_copy                       0x0800de5d   Thumb Code    14  handlers.o(i.__scatterload_copy)
    __scatterload_null                       0x0800de6b   Thumb Code     2  handlers.o(i.__scatterload_null)
    __scatterload_zeroinit                   0x0800de6d   Thumb Code    14  handlers.o(i.__scatterload_zeroinit)
    __set_errno                              0x0800de7d   Thumb Code     6  errno.o(i.__set_errno)
    atan                                     0x0800e745   Thumb Code   474  atan.o(i.atan)
    atan2                                    0x0800e965   Thumb Code   346  atan2.o(i.atan2)
    cos                                      0x0800eae5   Thumb Code   148  cos.o(i.cos)
    fmod                                     0x0800eb81   Thumb Code   144  fmod.o(i.fmod)
    sin                                      0x0800ec15   Thumb Code   150  sin.o(i.sin)
    sqrt                                     0x0800ecb5   Thumb Code    76  sqrt.o(i.sqrt)
    __mathlib_zero                           0x0800edc8   Data           8  qnan.o(.constdata)
    tft_ascii                                0x0800f1e7   Data        1520  zf_common_font.o(.rodata.tft_ascii)
    Region$$Table$$Base                      0x0800f7d8   Number         0  anon$$obj.o(Region$$Table)
    Region$$Table$$Limit                     0x0800f7f8   Number         0  anon$$obj.o(Region$$Table)
    StartTime                                0x200001c4   Data          12  gps.o(.data.StartTime)
    button_mod                               0x200001dc   Data           2  parameter.o(.data.button_mod)
    circle_time                              0x200001de   Data           2  gps.o(.data.circle_time)
    curpage                                  0x200001e0   Data           4  show_page.o(.data.curpage)
    direc_change_dis                         0x200001e4   Data           4  gps.o(.data.direc_change_dis)
    direct_thres                             0x200001e8   Data           2  gps.o(.data.direct_thres)
    distance_each_point_direct               0x200001ec   Data           4  gps.o(.data.distance_each_point_direct)
    distance_each_point_round                0x200001f0   Data           4  gps.o(.data.distance_each_point_round)
    distance_from_lastpoint                  0x200001f4   Data           4  gps.o(.data.distance_from_lastpoint)
    duoji                                    0x20000200   Data           4  parameter.o(.data.duoji)
    g_send                                   0x20000204   Data           2  parameter.o(.data.g_send)
    g_speed_set                              0x20000208   Data           4  parameter.o(.data.g_speed_set)
    gpio_group                               0x2000020c   Data          32  zf_driver_gpio.o(.data.gpio_group)
    gps_kp_in                                0x2000022c   Data           4  parameter.o(.data.gps_kp_in)
    gps_kp_w                                 0x20000230   Data           4  parameter.o(.data.gps_kp_w)
    gps_kp_z                                 0x20000234   Data           4  parameter.o(.data.gps_kp_z)
    guiding_mode                             0x20000238   Data           2  gps.o(.data.guiding_mode)
    out1                                     0x2000023c   Data           4  route_generating.o(.data.out1)
    out2                                     0x20000240   Data           4  route_generating.o(.data.out2)
    pwm_max_angle                            0x2000046c   Data           2  parameter.o(.data.pwm_max_angle)
    pwm_mid_angle                            0x2000046e   Data           2  parameter.o(.data.pwm_mid_angle)
    pwm_min_angle                            0x20000470   Data           2  parameter.o(.data.pwm_min_angle)
    round_change_dis                         0x20000474   Data           4  gps.o(.data.round_change_dis)
    run_sections                             0x20000478   Data           2  gps.o(.data.run_sections)
    speed_max_region                         0x2000047c   Data          16  parameter.o(.data.speed_max_region)
    speed_step                               0x2000048c   Data           4  parameter.o(.data.speed_step)
    start_thres                              0x2000049c   Data           2  parameter.o(.data.start_thres)
    stop_distance                            0x200004a0   Data           4  gps.o(.data.stop_distance)
    system_clock                             0x200004a4   Data           4  zf_common_clock.o(.data.system_clock)
    whether_delay                            0x200004d8   Data           4  gps.o(.data.whether_delay)
    x_cursor                                 0x200004dc   Data           2  parameter.o(.data.x_cursor)
    y_cursor                                 0x200004de   Data           2  parameter.o(.data.y_cursor)
    CarCtrlOrder                             0x200004e8   Data          20  isr.o(.bss.CarCtrlOrder)
    CarCtrlTemp                              0x200004fc   Data          20  isr.o(.bss.CarCtrlTemp)
    Data_Gyro                                0x20000510   Data          28  parameter.o(.bss.Data_Gyro)
    FLASH_WRITE_FLAG                         0x2000052c   Data           1  parameter.o(.bss.FLASH_WRITE_FLAG)
    Points_Stored                            0x20000538   Data        6080  gps.o(.bss.Points_Stored)
    Points_Use                               0x20001cf8   Data        6176  gps.o(.bss.Points_Use)
    ReadBuff                                 0x20003518   Data         256  isr.o(.bss.ReadBuff)
    Save_Data                                0x20003618   Data         248  gps.o(.bss.Save_Data)
    Use_Data                                 0x20003728   Data          88  gps.o(.bss.Use_Data)
    analysis_error                           0x20003783   Data           1  gps.o(.bss.analysis_error)
    analysis_finished                        0x20003784   Data           1  isr.o(.bss.analysis_finished)
    area_tag                                 0x20003786   Data           2  gps.o(.bss.area_tag)
    buf                                      0x200037a0   Data           1  isr.o(.bss.buf)
    buf2                                     0x200037a1   Data           1  isr.o(.bss.buf2)
    camera_type                              0x200037a2   Data           1  zf_device_type.o(.bss.camera_type)
    car_mode                                 0x200037a4   Data           2  parameter.o(.bss.car_mode)
    change_point                             0x200037a6   Data           1  gps.o(.bss.change_point)
    current                                  0x200037a8   Data           4  show_page.o(.bss.current)
    debug_flag                               0x200037ae   Data           2  parameter.o(.bss.debug_flag)
    dot_read                                 0x200037c4   Data           1  isr.o(.bss.dot_read)
    duty_mid                                 0x200037c8   Data           4  parameter.o(.bss.duty_mid)
    error_direction                          0x200037cc   Data           4  gps.o(.bss.error_direction)
    error_icm_last                           0x200037d0   Data           4  gps.o(.bss.error_icm_last)
    error_lenth_s_p                          0x200037d4   Data           4  gps.o(.bss.error_lenth_s_p)
    f_to_uint_lati                           0x200037d8   Data           4  show_page.o(.bss.f_to_uint_lati)
    f_to_uint_longi                          0x200037dc   Data           4  show_page.o(.bss.f_to_uint_longi)
    finished_gpspoints                       0x200037e0   Data           2  gps.o(.bss.finished_gpspoints)
    gps_error_pd_pwm                         0x200037e4   Data           4  parameter.o(.bss.gps_error_pd_pwm)
    gps_kd_in                                0x200037e8   Data           4  parameter.o(.bss.gps_kd_in)
    gps_kd_w                                 0x200037ec   Data           4  parameter.o(.bss.gps_kd_w)
    gps_kd_z                                 0x200037f0   Data           4  parameter.o(.bss.gps_kd_z)
    gps_mode                                 0x200037f4   Data           2  gps.o(.bss.gps_mode)
    guess_start                              0x200037fc   Data           2  gps.o(.bss.guess_start)
    icm_gyro_x                               0x200037fe   Data           2  zf_device_icm20602.o(.bss.icm_gyro_x)
    icm_gyro_y                               0x20003800   Data           2  zf_device_icm20602.o(.bss.icm_gyro_y)
    icm_gyro_z                               0x20003802   Data           2  zf_device_icm20602.o(.bss.icm_gyro_z)
    key_num                                  0x20003808   Data           2  parameter.o(.bss.key_num)
    kps_plygrnd                              0x20003810   Data          96  route_generating.o(.bss.kps_plygrnd)
    last_micro_area                          0x20003870   Data           2  gps.o(.bss.last_micro_area)
    micro_area                               0x20003872   Data           2  gps.o(.bss.micro_area)
    micro_op_lati                            0x20003874   Data          64  gps.o(.bss.micro_op_lati)
    micro_op_longi                           0x200038b4   Data          64  gps.o(.bss.micro_op_longi)
    modify_flag                              0x200038f4   Data           1  parameter.o(.bss.modify_flag)
    mt9v03x_finish_flag                      0x200038f5   Data           1  zf_device_mt9v03x.o(.bss.mt9v03x_finish_flag)
    newgpsgot                                0x200038f6   Data           1  isr.o(.bss.newgpsgot)
    now_area                                 0x200038f7   Data           1  gps.o(.bss.now_area)
    op                                       0x200038f8   Data           1  parameter.o(.bss.op)
    ov7725_finish_flag                       0x200038f9   Data           1  zf_device_ov7725.o(.bss.ov7725_finish_flag)
    passed_sections                          0x20003904   Data           2  gps.o(.bss.passed_sections)
    past_page                                0x20003906   Data           1  show_page.o(.bss.past_page)
    point_latitude_selected                  0x20003908   Data           4  gps.o(.bss.point_latitude_selected)
    point_longitude_selected                 0x2000390c   Data           4  gps.o(.bss.point_longitude_selected)
    point_selected_gps                       0x20003910   Data           2  gps.o(.bss.point_selected_gps)
    point_type_pageread                      0x20003912   Data           2  gps.o(.bss.point_type_pageread)
    receive                                  0x20003914   Data           3  zf_device_type.o(.bss.receive)
    receive_num                              0x20003917   Data           1  zf_device_type.o(.bss.receive_num)
    route_read                               0x20003918   Data           4  gps.o(.bss.route_read)
    route_write                              0x2000391c   Data           4  gps.o(.bss.route_write)
    rps_plygrnd                              0x20003920   Data        3600  route_generating.o(.bss.rps_plygrnd)
    run_circle                               0x20004730   Data           2  isr.o(.bss.run_circle)
    run_stop_distance                        0x20004734   Data           4  isr.o(.bss.run_stop_distance)
    scc8660_finish_flag                      0x20004738   Data           1  zf_device_scc8660.o(.bss.scc8660_finish_flag)
    send_order                               0x2000473c   Data           4  isr.o(.bss.send_order)
    start_delay_time                         0x20004748   Data           2  isr.o(.bss.start_delay_time)
    stop_mode                                0x2000474a   Data           1  isr.o(.bss.stop_mode)
    sum                                      0x2000474c   Data          16  main.o(.bss.sum)
    total_time                               0x20004764   Data           4  parameter.o(.bss.total_time)
    tp_micr_lati                             0x20004768   Data           2  show_page.o(.bss.tp_micr_lati)
    tp_micr_longi                            0x2000476a   Data           2  show_page.o(.bss.tp_micr_longi)
    tsl1401_data                             0x2000476c   Data         512  zf_device_tsl1401.o(.bss.tsl1401_data)
    tsl1401_finish_flag                      0x2000496c   Data           1  zf_device_tsl1401.o(.bss.tsl1401_finish_flag)
    uart_receive_flag                        0x2000496e   Data           1  zf_device_type.o(.bss.uart_receive_flag)
    wireless_type                            0x2000496f   Data           1  zf_device_type.o(.bss.wireless_type)
    write_flash_points                       0x20004988   Data           4  parameter.o(.bss.write_flash_points)
    Image$$ARM_LIB_STACK$$ZI$$Limit          0x20020000   Number         0  anon$$obj.o ABSOLUTE



==============================================================================

Memory Map of the image

  Image Entry point : 0x08000401

  Load Region LR_m_text (Base: 0x08000000, Size: 0x0000fce0, Max: 0x00080000, ABSOLUTE, COMPRESSED[0x0000fa70])

    Execution Region VECTOR_ROM (Exec base: 0x08000000, Load base: 0x08000000, Size: 0x00000190, Max: 0x00000400, ABSOLUTE)

    Exec Addr    Load Addr    Size         Type   Attr      Idx    E Section Name        Object

    0x08000000   0x08000000   0x00000190   Data   RO         1738    RESET               startup_mm32f3277g.o


    Execution Region ER_m_text (Exec base: 0x08000400, Load base: 0x08000400, Size: 0x0000f3f8, Max: 0x0007fc00, ABSOLUTE, FIXED)

    Exec Addr    Load Addr    Size         Type   Attr      Idx    E Section Name        Object

    0x08000400   0x08000400   0x00000000   Code   RO         2797  * .ARM.Collect$$$$00000000  mc_w.l(entry.o)
    0x08000400   0x08000400   0x00000004   Code   RO         2939    .ARM.Collect$$$$00000003  mc_w.l(entry4.o)
    0x08000404   0x08000404   0x00000004   Code   RO         2942    .ARM.Collect$$$$00000004  mc_w.l(entry5.o)
    0x08000408   0x08000408   0x00000000   Code   RO         2944    .ARM.Collect$$$$00000008  mc_w.l(entry7b.o)
    0x08000408   0x08000408   0x00000000   Code   RO         2946    .ARM.Collect$$$$0000000A  mc_w.l(entry8b.o)
    0x08000408   0x08000408   0x00000008   Code   RO         2947    .ARM.Collect$$$$0000000B  mc_w.l(entry9a.o)
    0x08000410   0x08000410   0x00000000   Code   RO         2949    .ARM.Collect$$$$0000000D  mc_w.l(entry10a.o)
    0x08000410   0x08000410   0x00000000   Code   RO         2951    .ARM.Collect$$$$0000000F  mc_w.l(entry11a.o)
    0x08000410   0x08000410   0x00000004   Code   RO         2940    .ARM.Collect$$$$00002714  mc_w.l(entry4.o)
    0x08000414   0x08000414   0x00000024   Code   RO         1739    .text               startup_mm32f3277g.o
    0x08000438   0x08000438   0x00000024   Code   RO         2800    .text               mc_w.l(memcpya.o)
    0x0800045c   0x0800045c   0x00000024   Code   RO         2802    .text               mc_w.l(memseta.o)
    0x08000480   0x08000480   0x00000024   Code   RO         2804    .text               mc_w.l(strstr.o)
    0x080004a4   0x080004a4   0x0000000e   Code   RO         2810    .text               mc_w.l(strlen.o)
    0x080004b2   0x080004b2   0x0000001c   Code   RO         2812    .text               mc_w.l(strcmp.o)
    0x080004ce   0x080004ce   0x00000012   Code   RO         2816    .text               mc_w.l(strcpy.o)
    0x080004e0   0x080004e0   0x000000b0   Code   RO         2850    .text               mf_w.l(fadd.o)
    0x08000590   0x08000590   0x00000064   Code   RO         2852    .text               mf_w.l(fmul.o)
    0x080005f4   0x080005f4   0x0000007c   Code   RO         2854    .text               mf_w.l(fdiv.o)
    0x08000670   0x08000670   0x0000014e   Code   RO         2856    .text               mf_w.l(dadd.o)
    0x080007be   0x080007be   0x000000e4   Code   RO         2858    .text               mf_w.l(dmul.o)
    0x080008a2   0x080008a2   0x000000de   Code   RO         2860    .text               mf_w.l(ddiv.o)
    0x08000980   0x08000980   0x0000001c   Code   RO         2862    .text               mf_w.l(fcmple.o)
    0x0800099c   0x0800099c   0x0000001c   Code   RO         2864    .text               mf_w.l(fcmplt.o)
    0x080009b8   0x080009b8   0x0000001c   Code   RO         2866    .text               mf_w.l(fcmpge.o)
    0x080009d4   0x080009d4   0x00000036   Code   RO         2868    .text               mf_w.l(dcmple.o)
    0x08000a0a   0x08000a0a   0x00000036   Code   RO         2870    .text               mf_w.l(dcmplt.o)
    0x08000a40   0x08000a40   0x00000036   Code   RO         2872    .text               mf_w.l(dcmpge.o)
    0x08000a76   0x08000a76   0x00000038   Code   RO         2874    .text               mf_w.l(dcmpeq.o)
    0x08000aae   0x08000aae   0x00000012   Code   RO         2876    .text               mf_w.l(fflti.o)
    0x08000ac0   0x08000ac0   0x0000000a   Code   RO         2878    .text               mf_w.l(ffltui.o)
    0x08000aca   0x08000aca   0x00000022   Code   RO         2880    .text               mf_w.l(dflti.o)
    0x08000aec   0x08000aec   0x0000001a   Code   RO         2882    .text               mf_w.l(dfltui.o)
    0x08000b06   0x08000b06   0x00000032   Code   RO         2884    .text               mf_w.l(ffixi.o)
    0x08000b38   0x08000b38   0x00000028   Code   RO         2886    .text               mf_w.l(ffixui.o)
    0x08000b60   0x08000b60   0x0000003e   Code   RO         2888    .text               mf_w.l(dfixi.o)
    0x08000b9e   0x08000b9e   0x00000032   Code   RO         2890    .text               mf_w.l(dfixui.o)
    0x08000bd0   0x08000bd0   0x00000026   Code   RO         2892    .text               mf_w.l(f2d.o)
    0x08000bf6   0x08000bf6   0x00000038   Code   RO         2894    .text               mf_w.l(d2f.o)
    0x08000c2e   0x08000c2e   0x0000002c   Code   RO         2954    .text               mc_w.l(uidiv.o)
    0x08000c5a   0x08000c5a   0x00000062   Code   RO         2956    .text               mc_w.l(uldiv.o)
    0x08000cbc   0x08000cbc   0x0000001e   Code   RO         2958    .text               mc_w.l(llshl.o)
    0x08000cda   0x08000cda   0x00000020   Code   RO         2960    .text               mc_w.l(llushr.o)
    0x08000cfa   0x08000cfa   0x00000024   Code   RO         2962    .text               mc_w.l(llsshr.o)
    0x08000d1e   0x08000d1e   0x00000000   Code   RO         2971    .text               mc_w.l(iusefp.o)
    0x08000d1e   0x08000d1e   0x0000006e   Code   RO         2972    .text               mf_w.l(fepilogue.o)
    0x08000d8c   0x08000d8c   0x000000ba   Code   RO         2974    .text               mf_w.l(depilogue.o)
    0x08000e46   0x08000e46   0x0000002e   Code   RO         2976    .text               mf_w.l(dscalb.o)
    0x08000e74   0x08000e74   0x000000a2   Code   RO         2978    .text               mf_w.l(dsqrt.o)
    0x08000f16   0x08000f16   0x00000086   Code   RO         2980    .text               mf_w.l(drem.o)
    0x08000f9c   0x08000f9c   0x00000030   Code   RO         2982    .text               mf_w.l(dfixul.o)
    0x08000fcc   0x08000fcc   0x00000030   Code   RO         2986    .text               mf_w.l(cdrcmple.o)
    0x08000ffc   0x08000ffc   0x00000024   Code   RO         2988    .text               mc_w.l(init.o)
    0x08001020   0x08001020   0x00000056   Code   RO         2998    .text               mc_w.l(__dczerorl2.o)
    0x08001076   0x08001076   0x00000002   PAD
    0x08001078   0x08001078   0x000000e2   Code   RO          128    .text.Button_Control  button.o
    0x0800115a   0x0800115a   0x00000002   PAD
    0x0800115c   0x0800115c   0x00000132   Code   RO          124    .text.Button_get    button.o
    0x0800128e   0x0800128e   0x00000002   PAD
    0x08001290   0x08001290   0x00000022   Code   RO           65    .text.DMA1_Channel1_IRQHandler  isr.o
    0x080012b2   0x080012b2   0x00000002   PAD
    0x080012b4   0x080012b4   0x00000022   Code   RO           67    .text.DMA1_Channel2_IRQHandler  isr.o
    0x080012d6   0x080012d6   0x00000002   PAD
    0x080012d8   0x080012d8   0x00000022   Code   RO           69    .text.DMA1_Channel3_IRQHandler  isr.o
    0x080012fa   0x080012fa   0x00000002   PAD
    0x080012fc   0x080012fc   0x00000028   Code   RO           71    .text.DMA1_Channel4_IRQHandler  isr.o
    0x08001324   0x08001324   0x00000022   Code   RO           73    .text.DMA1_Channel5_IRQHandler  isr.o
    0x08001346   0x08001346   0x00000002   PAD
    0x08001348   0x08001348   0x00000022   Code   RO           75    .text.DMA1_Channel6_IRQHandler  isr.o
    0x0800136a   0x0800136a   0x00000002   PAD
    0x0800136c   0x0800136c   0x00000022   Code   RO           77    .text.DMA1_Channel7_IRQHandler  isr.o
    0x0800138e   0x0800138e   0x00000002   PAD
    0x08001390   0x08001390   0x00000026   Code   RO           79    .text.DMA2_Channel1_IRQHandler  isr.o
    0x080013b6   0x080013b6   0x00000002   PAD
    0x080013b8   0x080013b8   0x00000026   Code   RO           81    .text.DMA2_Channel2_IRQHandler  isr.o
    0x080013de   0x080013de   0x00000002   PAD
    0x080013e0   0x080013e0   0x00000026   Code   RO           83    .text.DMA2_Channel3_IRQHandler  isr.o
    0x08001406   0x08001406   0x00000002   PAD
    0x08001408   0x08001408   0x00000026   Code   RO           85    .text.DMA2_Channel4_IRQHandler  isr.o
    0x0800142e   0x0800142e   0x00000002   PAD
    0x08001430   0x08001430   0x00000026   Code   RO           87    .text.DMA2_Channel5_IRQHandler  isr.o
    0x08001456   0x08001456   0x00000002   PAD
    0x08001458   0x08001458   0x0000006a   Code   RO          143    .text.Data2Var      flash.o
    0x080014c2   0x080014c2   0x00000002   PAD
    0x080014c4   0x080014c4   0x00000012   Code   RO           51    .text.EXTI0_IRQHandler  isr.o
    0x080014d6   0x080014d6   0x00000002   PAD
    0x080014d8   0x080014d8   0x000000da   Code   RO           63    .text.EXTI15_10_IRQHandler  isr.o
    0x080015b2   0x080015b2   0x00000002   PAD
    0x080015b4   0x080015b4   0x00000012   Code   RO           53    .text.EXTI1_IRQHandler  isr.o
    0x080015c6   0x080015c6   0x00000002   PAD
    0x080015c8   0x080015c8   0x00000012   Code   RO           55    .text.EXTI2_IRQHandler  isr.o
    0x080015da   0x080015da   0x00000002   PAD
    0x080015dc   0x080015dc   0x00000012   Code   RO           57    .text.EXTI3_IRQHandler  isr.o
    0x080015ee   0x080015ee   0x00000002   PAD
    0x080015f0   0x080015f0   0x00000012   Code   RO           59    .text.EXTI4_IRQHandler  isr.o
    0x08001602   0x08001602   0x00000002   PAD
    0x08001604   0x08001604   0x000000bc   Code   RO           61    .text.EXTI9_5_IRQHandler  isr.o
    0x080016c0   0x080016c0   0x00000092   Code   RO          155    .text.FlashReadMicro  flash.o
    0x08001752   0x08001752   0x00000002   PAD
    0x08001754   0x08001754   0x0000006c   Code   RO          147    .text.FlashReadParam  flash.o
    0x080017c0   0x080017c0   0x0000001a   Code   RO          159    .text.FlashReadParams  flash.o
    0x080017da   0x080017da   0x00000002   PAD
    0x080017dc   0x080017dc   0x000004ce   Code   RO          157    .text.FlashReadPoints  flash.o
    0x08001caa   0x08001caa   0x00000002   PAD
    0x08001cac   0x08001cac   0x0000065c   Code   RO          151    .text.FlashWhitePoints  flash.o
    0x08002308   0x08002308   0x0000009e   Code   RO          153    .text.FlashWriteMicro  flash.o
    0x080023a6   0x080023a6   0x00000002   PAD
    0x080023a8   0x080023a8   0x00000062   Code   RO          149    .text.FlashWriteParam  flash.o
    0x0800240a   0x0800240a   0x00000002   PAD
    0x0800240c   0x0800240c   0x0000002c   Code   RO          161    .text.FlashWriteParams  flash.o
    0x08002438   0x08002438   0x000000ec   Code   RO          130    .text.Flash_Control  button.o
    0x08002524   0x08002524   0x00000034   Code   RO          427    .text.Float_to_Byte  vofa.o
    0x08002558   0x08002558   0x0000019e   Code   RO          191    .text.GPSBearingAngle  gps.o
    0x080026f6   0x080026f6   0x00000002   PAD
    0x080026f8   0x080026f8   0x000001d0   Code   RO          189    .text.GPSDistance   gps.o
    0x080028c8   0x080028c8   0x00000204   Code   RO          181    .text.Get_InitData  gps.o
    0x08002acc   0x08002acc   0x00000120   Code   RO          193    .text.GpsAngleError  gps.o
    0x08002bec   0x08002bec   0x000001aa   Code   RO          195    .text.GpsDotSelection  gps.o
    0x08002d96   0x08002d96   0x00000002   PAD
    0x08002d98   0x08002d98   0x00000010   Code   RO         1727    .text.SystemInit    system_mm32f3277g.o
    0x08002da8   0x08002da8   0x00000014   Code   RO           19    .text.TIM1_UP_IRQHandler  isr.o
    0x08002dbc   0x08002dbc   0x00000012   Code   RO           21    .text.TIM2_IRQHandler  isr.o
    0x08002dce   0x08002dce   0x00000002   PAD
    0x08002dd0   0x08002dd0   0x00000014   Code   RO           23    .text.TIM3_IRQHandler  isr.o
    0x08002de4   0x08002de4   0x00000014   Code   RO           25    .text.TIM4_IRQHandler  isr.o
    0x08002df8   0x08002df8   0x00000f58   Code   RO           27    .text.TIM5_IRQHandler  isr.o
    0x08003d50   0x08003d50   0x00000014   Code   RO           29    .text.TIM6_IRQHandler  isr.o
    0x08003d64   0x08003d64   0x00000014   Code   RO           31    .text.TIM7_IRQHandler  isr.o
    0x08003d78   0x08003d78   0x0000001a   Code   RO           33    .text.TIM8_UP_IRQHandler  isr.o
    0x08003d92   0x08003d92   0x00000002   PAD
    0x08003d94   0x08003d94   0x000000a2   Code   RO          183    .text.Trans_Data_Z_plus_X  gps.o
    0x08003e36   0x08003e36   0x00000002   PAD
    0x08003e38   0x08003e38   0x0000004a   Code   RO           35    .text.UART1_IRQHandler  isr.o
    0x08003e82   0x08003e82   0x00000002   PAD
    0x08003e84   0x08003e84   0x000000f0   Code   RO           37    .text.UART2_IRQHandler  isr.o
    0x08003f74   0x08003f74   0x000000de   Code   RO           39    .text.UART3_IRQHandler  isr.o
    0x08004052   0x08004052   0x00000002   PAD
    0x08004054   0x08004054   0x0000004a   Code   RO           41    .text.UART4_IRQHandler  isr.o
    0x0800409e   0x0800409e   0x00000002   PAD
    0x080040a0   0x080040a0   0x0000004a   Code   RO           43    .text.UART5_IRQHandler  isr.o
    0x080040ea   0x080040ea   0x00000002   PAD
    0x080040ec   0x080040ec   0x00000050   Code   RO           45    .text.UART6_IRQHandler  isr.o
    0x0800413c   0x0800413c   0x0000004a   Code   RO           47    .text.UART7_IRQHandler  isr.o
    0x08004186   0x08004186   0x00000002   PAD
    0x08004188   0x08004188   0x00000050   Code   RO           49    .text.UART8_IRQHandler  isr.o
    0x080041d8   0x080041d8   0x0000007a   Code   RO          145    .text.Var2Data      flash.o
    0x08004252   0x08004252   0x00000002   PAD
    0x08004254   0x08004254   0x0000011a   Code   RO          380    .text.VarOP         show_page.o
    0x0800436e   0x0800436e   0x00000002   PAD
    0x08004370   0x08004370   0x0000004a   Code   RO          429    .text.Vofa_1data    vofa.o
    0x080043ba   0x080043ba   0x00000002   PAD
    0x080043bc   0x080043bc   0x00000088   Code   RO          431    .text.Vofa_2data    vofa.o
    0x08004444   0x08004444   0x0000010c   Code   RO          435    .text.Vofa_4data    vofa.o
    0x08004550   0x08004550   0x000001d0   Code   RO          439    .text.Vofa_7data    vofa.o
    0x08004720   0x08004720   0x0000003a   Code   RO          354    .text.__ARM_isnan   route_generating.o
    0x0800475a   0x0800475a   0x00000002   PAD
    0x0800475c   0x0800475c   0x00000018   Code   RO          352    .text.__ARM_isnanf  route_generating.o
    0x08004774   0x08004774   0x0000003e   Code   RO          603    .text.__NVIC_DisableIRQ  zf_common_interrupt.o
    0x080047b2   0x080047b2   0x00000002   PAD
    0x080047b4   0x080047b4   0x00000036   Code   RO          599    .text.__NVIC_EnableIRQ  zf_common_interrupt.o
    0x080047ea   0x080047ea   0x00000002   PAD
    0x080047ec   0x080047ec   0x0000004a   Code   RO          607    .text.__NVIC_SetPriority  zf_common_interrupt.o
    0x08004836   0x08004836   0x00000002   PAD
    0x08004838   0x08004838   0x00000040   Code   RO          611    .text.__NVIC_SetPriorityGrouping  zf_common_interrupt.o
    0x08004878   0x08004878   0x0000009a   Code   RO          624    .text.adc_convert   zf_driver_adc.o
    0x08004912   0x08004912   0x00000002   PAD
    0x08004914   0x08004914   0x00000182   Code   RO          757    .text.afio_init     zf_driver_gpio.o
    0x08004a96   0x08004a96   0x00000002   PAD
    0x08004a98   0x08004a98   0x00000032   Code   RO         1130    .text.bluetooth_ch9141_uart_callback  zf_device_bluetooth_ch9141.o
    0x08004aca   0x08004aca   0x00000002   PAD
    0x08004acc   0x08004acc   0x0000007a   Code   RO          126    .text.button_init   button.o
    0x08004b46   0x08004b46   0x00000002   PAD
    0x08004b48   0x08004b48   0x00000076   Code   RO         1662    .text.camera_dma_handler  zf_device_type.o
    0x08004bbe   0x08004bbe   0x00000002   PAD
    0x08004bc0   0x08004bc0   0x0000011c   Code   RO         1658    .text.camera_uart_handler  zf_device_type.o
    0x08004cdc   0x08004cdc   0x000000d0   Code   RO         1660    .text.camera_vsync_handler  zf_device_type.o
    0x08004dac   0x08004dac   0x000000a6   Code   RO          264    .text.change_motor  motor.o
    0x08004e52   0x08004e52   0x00000002   PAD
    0x08004e54   0x08004e54   0x00000028   Code   RO          464    .text.clock_init    zf_common_clock.o
    0x08004e7c   0x08004e7c   0x00000092   Code   RO          466    .text.clock_reset   zf_common_clock.o
    0x08004f0e   0x08004f0e   0x00000002   PAD
    0x08004f10   0x08004f10   0x00000286   Code   RO          468    .text.clock_set_freq  zf_common_clock.o
    0x08005196   0x08005196   0x00000002   PAD
    0x08005198   0x08005198   0x0000033e   Code   RO          360    .text.collection_by_hand  route_generating.o
    0x080054d6   0x080054d6   0x00000002   PAD
    0x080054d8   0x080054d8   0x00000070   Code   RO          487    .text.debug_assert_handler  zf_common_debug.o
    0x08005548   0x08005548   0x00000040   Code   RO          491    .text.debug_delay   zf_common_debug.o
    0x08005588   0x08005588   0x00000032   Code   RO          499    .text.debug_init    zf_common_debug.o
    0x080055ba   0x080055ba   0x00000002   PAD
    0x080055bc   0x080055bc   0x000002c0   Code   RO          489    .text.debug_output  zf_common_debug.o
    0x0800587c   0x0800587c   0x00000042   Code   RO          497    .text.debug_output_init  zf_common_debug.o
    0x080058be   0x080058be   0x00000002   PAD
    0x080058c0   0x080058c0   0x00000034   Code   RO          495    .text.debug_output_struct_init  zf_common_debug.o
    0x080058f4   0x080058f4   0x0000001e   Code   RO          501    .text.debug_uart_str_output  zf_common_debug.o
    0x08005912   0x08005912   0x00000002   PAD
    0x08005914   0x08005914   0x00000048   Code   RO          122    .text.delay         button.o
    0x0800595c   0x0800595c   0x000000b8   Code   RO          197    .text.delta_heading_angle  gps.o
    0x08005a14   0x08005a14   0x00000036   Code   RO          659    .text.dma_disable   zf_driver_dma.o
    0x08005a4a   0x08005a4a   0x00000002   PAD
    0x08005a4c   0x08005a4c   0x00000036   Code   RO          657    .text.dma_enable    zf_driver_dma.o
    0x08005a82   0x08005a82   0x00000002   PAD
    0x08005a84   0x08005a84   0x00000042   Code   RO          655    .text.dma_set_count  zf_driver_dma.o
    0x08005ac6   0x08005ac6   0x00000002   PAD
    0x08005ac8   0x08005ac8   0x0000002c   Code   RO          443    .text.end_vofa      vofa.o
    0x08005af4   0x08005af4   0x00000038   Code   RO          518    .text.fifo_head_offset  zf_common_fifo.o
    0x08005b2c   0x08005b2c   0x000000f0   Code   RO          526    .text.fifo_write_buffer  zf_common_fifo.o
    0x08005c1c   0x08005c1c   0x00000070   Code   RO          710    .text.flash_check   zf_driver_flash.o
    0x08005c8c   0x08005c8c   0x0000010a   Code   RO          712    .text.flash_erase_page  zf_driver_flash.o
    0x08005d96   0x08005d96   0x00000002   PAD
    0x08005d98   0x08005d98   0x00000074   Code   RO          714    .text.flash_read_page  zf_driver_flash.o
    0x08005e0c   0x08005e0c   0x00000138   Code   RO          716    .text.flash_write_page  zf_driver_flash.o
    0x08005f44   0x08005f44   0x000003c6   Code   RO          342    .text.generate_direct_road  route_generating.o
    0x0800630a   0x0800630a   0x00000002   PAD
    0x0800630c   0x0800630c   0x00000dea   Code   RO          344    .text.generate_round_road  route_generating.o
    0x080070f6   0x080070f6   0x00000002   PAD
    0x080070f8   0x080070f8   0x0000033e   Code   RO          340    .text.generating_route  route_generating.o
    0x08007436   0x08007436   0x00000002   PAD
    0x08007438   0x08007438   0x000001b4   Code   RO          338    .text.generating_route_init  route_generating.o
    0x080075ec   0x080075ec   0x0000004a   Code   RO          557    .text.get_greatest_common_divisor  zf_common_function.o
    0x08007636   0x08007636   0x00000002   PAD
    0x08007638   0x08007638   0x0000004c   Code   RO          749    .text.gpio_get_level  zf_driver_gpio.o
    0x08007684   0x08007684   0x000001c6   Code   RO          755    .text.gpio_init     zf_driver_gpio.o
    0x0800784a   0x0800784a   0x00000002   PAD
    0x0800784c   0x0800784c   0x0000073c   Code   RO          348    .text.gps_auto_plannation  route_generating.o
    0x08007f88   0x08007f88   0x00000162   Code   RO         1186    .text.gps_init      zf_device_gps_tau1201.o
    0x080080ea   0x080080ea   0x00000002   PAD
    0x080080ec   0x080080ec   0x000004b0   Code   RO          270    .text.gps_servo_control  motor.o
    0x0800859c   0x0800859c   0x00000056   Code   RO         1230    .text.icm20602_get_gyro  zf_device_icm20602.o
    0x080085f2   0x080085f2   0x00000002   PAD
    0x080085f4   0x080085f4   0x00000144   Code   RO         1232    .text.icm20602_init  zf_device_icm20602.o
    0x08008738   0x08008738   0x00000050   Code   RO         1238    .text.icm20602_read_register  zf_device_icm20602.o
    0x08008788   0x08008788   0x00000056   Code   RO         1228    .text.icm20602_read_registers  zf_device_icm20602.o
    0x080087de   0x080087de   0x00000002   PAD
    0x080087e0   0x080087e0   0x0000005a   Code   RO         1234    .text.icm20602_self_check  zf_device_icm20602.o
    0x0800883a   0x0800883a   0x00000002   PAD
    0x0800883c   0x0800883c   0x00000050   Code   RO         1236    .text.icm20602_write_register  zf_device_icm20602.o
    0x0800888c   0x0800888c   0x00000018   Code   RO          601    .text.interrupt_disable  zf_common_interrupt.o
    0x080088a4   0x080088a4   0x00000018   Code   RO          597    .text.interrupt_enable  zf_common_interrupt.o
    0x080088bc   0x080088bc   0x00000024   Code   RO          595    .text.interrupt_global_disable  zf_common_interrupt.o
    0x080088e0   0x080088e0   0x00000036   Code   RO          593    .text.interrupt_global_enable  zf_common_interrupt.o
    0x08008916   0x08008916   0x00000002   PAD
    0x08008918   0x08008918   0x0000000a   Code   RO          609    .text.interrupt_init  zf_common_interrupt.o
    0x08008922   0x08008922   0x00000002   PAD
    0x08008924   0x08008924   0x00000024   Code   RO          605    .text.interrupt_set_priority  zf_common_interrupt.o
    0x08008948   0x08008948   0x000001d6   Code   RO            4    .text.main          main.o
    0x08008b1e   0x08008b1e   0x00000002   PAD
    0x08008b20   0x08008b20   0x00000058   Code   RO          362    .text.micro_delete  route_generating.o
    0x08008b78   0x08008b78   0x000004a4   Code   RO          350    .text.micro_operating  route_generating.o
    0x0800901c   0x0800901c   0x0000048c   Code   RO          356    .text.micro_operating_recover  route_generating.o
    0x080094a8   0x080094a8   0x00000042   Code   RO          262    .text.motor_init    motor.o
    0x080094ea   0x080094ea   0x00000002   PAD
    0x080094ec   0x080094ec   0x0000036a   Code   RO          120    .text.move          button.o
    0x08009856   0x08009856   0x00000002   PAD
    0x08009858   0x08009858   0x00000252   Code   RO          388    .text.my_lcd_showfloat  show_page.o
    0x08009aaa   0x08009aaa   0x00000002   PAD
    0x08009aac   0x08009aac   0x000001b2   Code   RO          384    .text.my_lcd_showint16  show_page.o
    0x08009c5e   0x08009c5e   0x00000002   PAD
    0x08009c60   0x08009c60   0x00000228   Code   RO          386    .text.my_lcd_showint32  show_page.o
    0x08009e88   0x08009e88   0x00000094   Code   RO          392    .text.page_show_params  show_page.o
    0x08009f1c   0x08009f1c   0x00000886   Code   RO          394    .text.page_spin     show_page.o
    0x0800a7a2   0x0800a7a2   0x00000002   PAD
    0x0800a7a4   0x0800a7a4   0x00000120   Code   RO          390    .text.page_text_param  show_page.o
    0x0800a8c4   0x0800a8c4   0x0000029e   Code   RO          177    .text.parseGpsBuffer  gps.o
    0x0800ab62   0x0800ab62   0x00000002   PAD
    0x0800ab64   0x0800ab64   0x0000013e   Code   RO          827    .text.pit_init      zf_driver_pit.o
    0x0800aca2   0x0800aca2   0x00000002   PAD
    0x0800aca4   0x0800aca4   0x0000026e   Code   RO          843    .text.pwm_init      zf_driver_pwm.o
    0x0800af12   0x0800af12   0x00000002   PAD
    0x0800af14   0x0800af14   0x00000150   Code   RO          841    .text.pwm_set_duty  zf_driver_pwm.o
    0x0800b064   0x0800b064   0x00000030   Code   RO          185    .text.radians       gps.o
    0x0800b094   0x0800b094   0x000001b6   Code   RO          358    .text.round_in_out  route_generating.o
    0x0800b24a   0x0800b24a   0x00000002   PAD
    0x0800b24c   0x0800b24c   0x00000032   Code   RO         1710    .text.seekfree_wireless_init  zf_device_wireless_uart.o
    0x0800b27e   0x0800b27e   0x00000002   PAD
    0x0800b280   0x0800b280   0x000003a2   Code   RO          445    .text.send_spin_vofa  vofa.o
    0x0800b622   0x0800b622   0x00000002   PAD
    0x0800b624   0x0800b624   0x00000034   Code   RO          266    .text.servo_motor_init  motor.o
    0x0800b658   0x0800b658   0x00000046   Code   RO          268    .text.setspeed_to_pwm  motor.o
    0x0800b69e   0x0800b69e   0x00000002   PAD
    0x0800b6a0   0x0800b6a0   0x000002c0   Code   RO         1032    .text.spi_init      zf_driver_spi.o
    0x0800b960   0x0800b960   0x000000e0   Code   RO         1020    .text.spi_read_8bit_register  zf_driver_spi.o
    0x0800ba40   0x0800ba40   0x00000108   Code   RO         1022    .text.spi_read_8bit_registers  zf_driver_spi.o
    0x0800bb48   0x0800bb48   0x000000ca   Code   RO         1000    .text.spi_write_16bit  zf_driver_spi.o
    0x0800bc12   0x0800bc12   0x00000002   PAD
    0x0800bc14   0x0800bc14   0x00000094   Code   RO          996    .text.spi_write_8bit  zf_driver_spi.o
    0x0800bca8   0x0800bca8   0x000000d2   Code   RO         1004    .text.spi_write_8bit_register  zf_driver_spi.o
    0x0800bd7a   0x0800bd7a   0x00000002   PAD
    0x0800bd7c   0x0800bd7c   0x0000002c   Code   RO          187    .text.sq            gps.o
    0x0800bda8   0x0800bda8   0x00000096   Code   RO          643    .text.system_delay  zf_driver_delay.o
    0x0800be3e   0x0800be3e   0x00000002   PAD
    0x0800be40   0x0800be40   0x00000058   Code   RO         1581    .text.tft180_clear  zf_device_tft180.o
    0x0800be98   0x0800be98   0x00000058   Code   RO         1617    .text.tft180_debug_init  zf_device_tft180.o
    0x0800bef0   0x0800bef0   0x00000096   Code   RO         1591    .text.tft180_draw_point  zf_device_tft180.o
    0x0800bf86   0x0800bf86   0x00000002   PAD
    0x0800bf88   0x0800bf88   0x0000005e   Code   RO         1585    .text.tft180_full   zf_device_tft180.o
    0x0800bfe6   0x0800bfe6   0x00000002   PAD
    0x0800bfe8   0x0800bfe8   0x00000430   Code   RO         1615    .text.tft180_init   zf_device_tft180.o
    0x0800c418   0x0800c418   0x00000032   Code   RO         1589    .text.tft180_set_color  zf_device_tft180.o
    0x0800c44a   0x0800c44a   0x00000002   PAD
    0x0800c44c   0x0800c44c   0x00000056   Code   RO         1587    .text.tft180_set_dir  zf_device_tft180.o
    0x0800c4a2   0x0800c4a2   0x00000002   PAD
    0x0800c4a4   0x0800c4a4   0x000001ac   Code   RO         1583    .text.tft180_set_region  zf_device_tft180.o
    0x0800c650   0x0800c650   0x00000130   Code   RO         1595    .text.tft180_show_char  zf_device_tft180.o
    0x0800c780   0x0800c780   0x000000ac   Code   RO         1597    .text.tft180_show_string  zf_device_tft180.o
    0x0800c82c   0x0800c82c   0x00000066   Code   RO         1619    .text.tft180_write_index  zf_device_tft180.o
    0x0800c892   0x0800c892   0x00000002   PAD
    0x0800c894   0x0800c894   0x000000ba   Code   RO         1047    .text.timer_clock_enable  zf_driver_timer.o
    0x0800c94e   0x0800c94e   0x00000002   PAD
    0x0800c950   0x0800c950   0x00000072   Code   RO         1045    .text.timer_funciton_check  zf_driver_timer.o
    0x0800c9c2   0x0800c9c2   0x00000002   PAD
    0x0800c9c4   0x0800c9c4   0x000000e6   Code   RO         1637    .text.tsl1401_collect_pit_handler  zf_device_tsl1401.o
    0x0800caaa   0x0800caaa   0x00000002   PAD
    0x0800caac   0x0800caac   0x00000282   Code   RO         1088    .text.uart_init     zf_driver_uart.o
    0x0800cd2e   0x0800cd2e   0x00000002   PAD
    0x0800cd30   0x0800cd30   0x00000058   Code   RO         1082    .text.uart_query_byte  zf_driver_uart.o
    0x0800cd88   0x0800cd88   0x00000040   Code   RO         1080    .text.uart_read_byte  zf_driver_uart.o
    0x0800cdc8   0x0800cdc8   0x00000082   Code   RO         1086    .text.uart_rx_interrupt  zf_driver_uart.o
    0x0800ce4a   0x0800ce4a   0x00000002   PAD
    0x0800ce4c   0x0800ce4c   0x0000006a   Code   RO         1076    .text.uart_write_buffer  zf_driver_uart.o
    0x0800ceb6   0x0800ceb6   0x00000002   PAD
    0x0800ceb8   0x0800ceb8   0x0000004a   Code   RO         1074    .text.uart_write_byte  zf_driver_uart.o
    0x0800cf02   0x0800cf02   0x00000002   PAD
    0x0800cf04   0x0800cf04   0x00000034   Code   RO         1078    .text.uart_write_string  zf_driver_uart.o
    0x0800cf38   0x0800cf38   0x00000032   Code   RO         1666    .text.wireless_module_uart_handler  zf_device_type.o
    0x0800cf6a   0x0800cf6a   0x00000002   PAD
    0x0800cf6c   0x0800cf6c   0x00000032   Code   RO         1698    .text.wireless_uart_callback  zf_device_wireless_uart.o
    0x0800cf9e   0x0800cf9e   0x00000002   PAD
    0x0800cfa0   0x0800cfa0   0x00000284   Code   RO          346    .text.write_in      route_generating.o
    0x0800d224   0x0800d224   0x000005a4   Code   RO          179    .text.zhufei_nmmsl  gps.o
    0x0800d7c8   0x0800d7c8   0x00000028   Code   RO         2825    i.__0sprintf        mc_w.l(printfa.o)
    0x0800d7f0   0x0800d7f0   0x00000028   Code   RO         2923    i.__ARM_fpclassify  m_ws.l(fpclassify.o)
    0x0800d818   0x0800d818   0x00000388   Code   RO         2928    i.__ieee754_rem_pio2  m_ws.l(rred.o)
    0x0800dba0   0x0800dba0   0x000000fc   Code   RO         2906    i.__kernel_cos      m_ws.l(cos_i.o)
    0x0800dc9c   0x0800dc9c   0x000000aa   Code   RO         2925    i.__kernel_poly     m_ws.l(poly.o)
    0x0800dd46   0x0800dd46   0x00000002   PAD
    0x0800dd48   0x0800dd48   0x000000ec   Code   RO         2933    i.__kernel_sin      m_ws.l(sin_i.o)
    0x0800de34   0x0800de34   0x00000006   Code   RO         2910    i.__mathlib_dbl_infnan  m_ws.l(dunder.o)
    0x0800de3a   0x0800de3a   0x00000004   Code   RO         2911    i.__mathlib_dbl_infnan2  m_ws.l(dunder.o)
    0x0800de3e   0x0800de3e   0x0000000c   Code   RO         2912    i.__mathlib_dbl_invalid  m_ws.l(dunder.o)
    0x0800de4a   0x0800de4a   0x00000002   PAD
    0x0800de4c   0x0800de4c   0x00000010   Code   RO         2915    i.__mathlib_dbl_underflow  m_ws.l(dunder.o)
    0x0800de5c   0x0800de5c   0x0000000e   Code   RO         2992    i.__scatterload_copy  mc_w.l(handlers.o)
    0x0800de6a   0x0800de6a   0x00000002   Code   RO         2993    i.__scatterload_null  mc_w.l(handlers.o)
    0x0800de6c   0x0800de6c   0x0000000e   Code   RO         2994    i.__scatterload_zeroinit  mc_w.l(handlers.o)
    0x0800de7a   0x0800de7a   0x00000002   PAD
    0x0800de7c   0x0800de7c   0x0000000c   Code   RO         2966    i.__set_errno       mc_w.l(errno.o)
    0x0800de88   0x0800de88   0x00000184   Code   RO         2830    i._fp_digits        mc_w.l(printfa.o)
    0x0800e00c   0x0800e00c   0x000006dc   Code   RO         2831    i._printf_core      mc_w.l(printfa.o)
    0x0800e6e8   0x0800e6e8   0x00000024   Code   RO         2832    i._printf_post_padding  mc_w.l(printfa.o)
    0x0800e70c   0x0800e70c   0x0000002e   Code   RO         2833    i._printf_pre_padding  mc_w.l(printfa.o)
    0x0800e73a   0x0800e73a   0x0000000a   Code   RO         2835    i._sputc            mc_w.l(printfa.o)
    0x0800e744   0x0800e744   0x00000220   Code   RO         2897    i.atan              m_ws.l(atan.o)
    0x0800e964   0x0800e964   0x00000180   Code   RO         2748    i.atan2             m_ws.l(atan2.o)
    0x0800eae4   0x0800eae4   0x0000009c   Code   RO         2756    i.cos               m_ws.l(cos.o)
    0x0800eb80   0x0800eb80   0x00000094   Code   RO         2764    i.fmod              m_ws.l(fmod.o)
    0x0800ec14   0x0800ec14   0x000000a0   Code   RO         2782    i.sin               m_ws.l(sin.o)
    0x0800ecb4   0x0800ecb4   0x0000004c   Code   RO         2790    i.sqrt              m_ws.l(sqrt.o)
    0x0800ed00   0x0800ed00   0x00000098   Data   RO         2898    .constdata          m_ws.l(atan.o)
    0x0800ed98   0x0800ed98   0x00000030   Data   RO         2907    .constdata          m_ws.l(cos_i.o)
    0x0800edc8   0x0800edc8   0x00000008   Data   RO         2927    .constdata          m_ws.l(qnan.o)
    0x0800edd0   0x0800edd0   0x000000c8   Data   RO         2930    .constdata          m_ws.l(rred.o)
    0x0800ee98   0x0800ee98   0x00000028   Data   RO         2934    .constdata          m_ws.l(sin_i.o)
    0x0800eec0   0x0800eec0   0x0000000b   Data   RO         1205    .rodata.gps_init.close_gga  zf_device_gps_tau1201.o
    0x0800eecb   0x0800eecb   0x0000000b   Data   RO         1207    .rodata.gps_init.close_gll  zf_device_gps_tau1201.o
    0x0800eed6   0x0800eed6   0x0000000b   Data   RO         1209    .rodata.gps_init.close_grs  zf_device_gps_tau1201.o
    0x0800eee1   0x0800eee1   0x0000000b   Data   RO         1208    .rodata.gps_init.close_gsa  zf_device_gps_tau1201.o
    0x0800eeec   0x0800eeec   0x0000000b   Data   RO         1213    .rodata.gps_init.close_gst  zf_device_gps_tau1201.o
    0x0800eef7   0x0800eef7   0x0000000b   Data   RO         1210    .rodata.gps_init.close_gsv  zf_device_gps_tau1201.o
    0x0800ef02   0x0800ef02   0x0000000b   Data   RO         1214    .rodata.gps_init.close_txt  zf_device_gps_tau1201.o
    0x0800ef0d   0x0800ef0d   0x0000000b   Data   RO         1215    .rodata.gps_init.close_txt_ant  zf_device_gps_tau1201.o
    0x0800ef18   0x0800ef18   0x0000000b   Data   RO         1211    .rodata.gps_init.close_vtg  zf_device_gps_tau1201.o
    0x0800ef23   0x0800ef23   0x0000000b   Data   RO         1212    .rodata.gps_init.close_zda  zf_device_gps_tau1201.o
    0x0800ef2e   0x0800ef2e   0x0000000b   Data   RO         1206    .rodata.gps_init.open_rmc  zf_device_gps_tau1201.o
    0x0800ef39   0x0800ef39   0x0000001c   Data   RO         1204    .rodata.gps_init.set_rate  zf_device_gps_tau1201.o
    0x0800ef55   0x0800ef55   0x00000002   Data   RO          103    .rodata.str1.1      isr.o
    0x0800ef57   0x0800ef57   0x00000004   Data   RO          246    .rodata.str1.1      gps.o
    0x0800ef5b   0x0800ef5b   0x00000012   Data   RO          368    .rodata.str1.1      route_generating.o
    0x0800ef6d   0x0800ef6d   0x00000180   Data   RO          406    .rodata.str1.1      show_page.o
    0x0800f0ed   0x0800f0ed   0x0000004a   Data   RO          506    .rodata.str1.1      zf_common_debug.o
    0x0800f137   0x0800f137   0x0000002a   Data   RO          829    .rodata.str1.1      zf_driver_pit.o
    0x0800f161   0x0800f161   0x0000002a   Data   RO          845    .rodata.str1.1      zf_driver_pwm.o
    0x0800f18b   0x0800f18b   0x0000002f   Data   RO         1246    .rodata.str1.1      zf_device_icm20602.o
    0x0800f1ba   0x0800f1ba   0x0000002d   Data   RO         1626    .rodata.str1.1      zf_device_tft180.o
    0x0800f1e7   0x0800f1e7   0x000005f0   Data   RO          542    .rodata.tft_ascii   zf_common_font.o
    0x0800f7d7   0x0800f7d7   0x00000001   PAD
    0x0800f7d8   0x0800f7d8   0x00000020   Data   RO         2990    Region$$Table       anon$$obj.o


    Execution Region RW_m_data (Exec base: 0x20000000, Load base: 0x0800f7f8, Size: 0x00004990, Max: 0x0001dc00, ABSOLUTE, COMPRESSED[0x00000278])

    Exec Addr    Load Addr    Size         Type   Attr      Idx    E Section Name        Object

    0x20000000   COMPRESSED   0x00000004   Data   RW         2967    .data               mc_w.l(errno.o)
    0x20000004   COMPRESSED   0x0000015c   Data   RW          164    .data.FLASH_VARS    flash.o
    0x20000160   COMPRESSED   0x00000038   Data   RW          403    .data.FLOAT_SCALE_TABLE  show_page.o
    0x20000198   COMPRESSED   0x0000000e   Data   RW          404    .data.INT16_SCALE_TABLE  show_page.o
    0x200001a6   COMPRESSED   0x00000002   PAD
    0x200001a8   COMPRESSED   0x0000001c   Data   RW          405    .data.INT32_SCALE_TABLE  show_page.o
    0x200001c4   COMPRESSED   0x0000000c   Data   RW          205    .data.StartTime     gps.o
    0x200001d0   COMPRESSED   0x0000000c   Data   RW          630    .data.adc_index     zf_driver_adc.o
    0x200001dc   COMPRESSED   0x00000002   Data   RW          295    .data.button_mod    parameter.o
    0x200001de   COMPRESSED   0x00000002   Data   RW          201    .data.circle_time   gps.o
    0x200001e0   COMPRESSED   0x00000004   Data   RW          397    .data.curpage       show_page.o
    0x200001e4   COMPRESSED   0x00000004   Data   RW          199    .data.direc_change_dis  gps.o
    0x200001e8   COMPRESSED   0x00000002   Data   RW          229    .data.direct_thres  gps.o
    0x200001ea   COMPRESSED   0x00000002   PAD
    0x200001ec   COMPRESSED   0x00000004   Data   RW          221    .data.distance_each_point_direct  gps.o
    0x200001f0   COMPRESSED   0x00000004   Data   RW          222    .data.distance_each_point_round  gps.o
    0x200001f4   COMPRESSED   0x00000004   Data   RW          220    .data.distance_from_lastpoint  gps.o
    0x200001f8   COMPRESSED   0x00000008   Data   RW          663    .data.dma_index     zf_driver_dma.o
    0x20000200   COMPRESSED   0x00000004   Data   RW          326    .data.duoji         parameter.o
    0x20000204   COMPRESSED   0x00000002   Data   RW          324    .data.g_send        parameter.o
    0x20000206   COMPRESSED   0x00000002   PAD
    0x20000208   COMPRESSED   0x00000004   Data   RW          314    .data.g_speed_set   parameter.o
    0x2000020c   COMPRESSED   0x00000020   Data   RW          759    .data.gpio_group    zf_driver_gpio.o
    0x2000022c   COMPRESSED   0x00000004   Data   RW          301    .data.gps_kp_in     parameter.o
    0x20000230   COMPRESSED   0x00000004   Data   RW          299    .data.gps_kp_w      parameter.o
    0x20000234   COMPRESSED   0x00000004   Data   RW          297    .data.gps_kp_z      parameter.o
    0x20000238   COMPRESSED   0x00000002   Data   RW          203    .data.guiding_mode  gps.o
    0x2000023a   COMPRESSED   0x00000002   PAD
    0x2000023c   COMPRESSED   0x00000004   Data   RW          364    .data.out1          route_generating.o
    0x20000240   COMPRESSED   0x00000004   Data   RW          365    .data.out2          route_generating.o
    0x20000244   COMPRESSED   0x00000048   Data   RW          409    .data.page_spin.vars  show_page.o
    0x2000028c   COMPRESSED   0x0000003c   Data   RW          411    .data.page_spin.vars.13  show_page.o
    0x200002c8   COMPRESSED   0x00000048   Data   RW          412    .data.page_spin.vars.19  show_page.o
    0x20000310   COMPRESSED   0x00000048   Data   RW          413    .data.page_spin.vars.25  show_page.o
    0x20000358   COMPRESSED   0x0000003c   Data   RW          414    .data.page_spin.vars.32  show_page.o
    0x20000394   COMPRESSED   0x00000048   Data   RW          415    .data.page_spin.vars.38  show_page.o
    0x200003dc   COMPRESSED   0x00000048   Data   RW          416    .data.page_spin.vars.45  show_page.o
    0x20000424   COMPRESSED   0x00000048   Data   RW          410    .data.page_spin.vars.7  show_page.o
    0x2000046c   COMPRESSED   0x00000002   Data   RW          305    .data.pwm_max_angle  parameter.o
    0x2000046e   COMPRESSED   0x00000002   Data   RW          307    .data.pwm_mid_angle  parameter.o
    0x20000470   COMPRESSED   0x00000002   Data   RW          306    .data.pwm_min_angle  parameter.o
    0x20000472   COMPRESSED   0x00000002   PAD
    0x20000474   COMPRESSED   0x00000004   Data   RW          200    .data.round_change_dis  gps.o
    0x20000478   COMPRESSED   0x00000002   Data   RW          213    .data.run_sections  gps.o
    0x2000047a   COMPRESSED   0x00000002   PAD
    0x2000047c   COMPRESSED   0x00000010   Data   RW          315    .data.speed_max_region  parameter.o
    0x2000048c   COMPRESSED   0x00000004   Data   RW          304    .data.speed_step    parameter.o
    0x20000490   COMPRESSED   0x0000000c   Data   RW         1034    .data.spi_index     zf_driver_spi.o
    0x2000049c   COMPRESSED   0x00000002   Data   RW          325    .data.start_thres   parameter.o
    0x2000049e   COMPRESSED   0x00000002   PAD
    0x200004a0   COMPRESSED   0x00000004   Data   RW          202    .data.stop_distance  gps.o
    0x200004a4   COMPRESSED   0x00000004   Data   RW          470    .data.system_clock  zf_common_clock.o
    0x200004a8   COMPRESSED   0x00000002   Data   RW         1623    .data.tft180_bgcolor  zf_device_tft180.o
    0x200004aa   COMPRESSED   0x00000001   Data   RW         1624    .data.tft180_display_dir  zf_device_tft180.o
    0x200004ab   COMPRESSED   0x00000001   PAD
    0x200004ac   COMPRESSED   0x00000002   Data   RW         1625    .data.tft180_pencolor  zf_device_tft180.o
    0x200004ae   COMPRESSED   0x00000001   Data   RW         1621    .data.tft180_x_max  zf_device_tft180.o
    0x200004af   COMPRESSED   0x00000001   Data   RW         1622    .data.tft180_y_max  zf_device_tft180.o
    0x200004b0   COMPRESSED   0x00000020   Data   RW         1090    .data.uart_index    zf_driver_uart.o
    0x200004d0   COMPRESSED   0x00000008   Data   RW         1091    .data.uart_irq      zf_driver_uart.o
    0x200004d8   COMPRESSED   0x00000004   Data   RW          233    .data.whether_delay  gps.o
    0x200004dc   COMPRESSED   0x00000002   Data   RW          285    .data.x_cursor      parameter.o
    0x200004de   COMPRESSED   0x00000002   Data   RW          286    .data.y_cursor      parameter.o
    0x200004e0   COMPRESSED   0x00000001   Data   RW          503    .data.zf_debug_assert_enable  zf_common_debug.o
    0x200004e1   COMPRESSED   0x00000007   PAD
    0x200004e8        -       0x00000014   Zero   RW          102    .bss.CarCtrlOrder   isr.o
    0x200004fc        -       0x00000014   Zero   RW          109    .bss.CarCtrlTemp    isr.o
    0x20000510        -       0x0000001c   Zero   RW          328    .bss.Data_Gyro      parameter.o
    0x2000052c        -       0x00000001   Zero   RW          290    .bss.FLASH_WRITE_FLAG  parameter.o
    0x2000052d        -       0x00000001   Zero   RW          132    .bss.Flash_Control.flash_flag  button.o
    0x2000052e   COMPRESSED   0x00000002   PAD
    0x20000530        -       0x00000004   Zero   RW          248    .bss.GpsDotSelection.change_time  gps.o
    0x20000534        -       0x00000004   Zero   RW          249    .bss.GpsDotSelection.last_change  gps.o
    0x20000538        -       0x000017c0   Zero   RW          250    .bss.Points_Stored  gps.o
    0x20001cf8        -       0x00001820   Zero   RW          251    .bss.Points_Use     gps.o
    0x20003518        -       0x00000100   Zero   RW          106    .bss.ReadBuff       isr.o
    0x20003618        -       0x000000f8   Zero   RW          245    .bss.Save_Data      gps.o
    0x20003710        -       0x00000004   Zero   RW           98    .bss.TIM5_IRQHandler.error_z_sum  isr.o
    0x20003714        -       0x00000004   Zero   RW           99    .bss.TIM5_IRQHandler.i  isr.o
    0x20003718        -       0x00000008   Zero   RW          101    .bss.TIM5_IRQHandler.temp  isr.o
    0x20003720        -       0x00000004   Zero   RW          105    .bss.UART2_IRQHandler.num  isr.o
    0x20003724        -       0x00000004   Zero   RW          108    .bss.UART3_IRQHandler.i  isr.o
    0x20003728        -       0x00000058   Zero   RW          247    .bss.Use_Data       gps.o
    0x20003780        -       0x00000003   Zero   RW          631    .bss.adc_resolution  zf_driver_adc.o
    0x20003783        -       0x00000001   Zero   RW          244    .bss.analysis_error  gps.o
    0x20003784        -       0x00000001   Zero   RW           93    .bss.analysis_finished  isr.o
    0x20003785   COMPRESSED   0x00000001   PAD
    0x20003786        -       0x00000002   Zero   RW          206    .bss.area_tag       gps.o
    0x20003788        -       0x00000001   Zero   RW         1144    .bss.bluetooth_ch9141_data  zf_device_bluetooth_ch9141.o
    0x20003789   COMPRESSED   0x00000003   PAD
    0x2000378c        -       0x00000014   Zero   RW         1145    .bss.bluetooth_ch9141_fifo  zf_device_bluetooth_ch9141.o
    0x200037a0        -       0x00000001   Zero   RW          104    .bss.buf            isr.o
    0x200037a1        -       0x00000001   Zero   RW          107    .bss.buf2           isr.o
    0x200037a2        -       0x00000001   Zero   RW         1668    .bss.camera_type    zf_device_type.o
    0x200037a3   COMPRESSED   0x00000001   PAD
    0x200037a4        -       0x00000002   Zero   RW          296    .bss.car_mode       parameter.o
    0x200037a6        -       0x00000001   Zero   RW          223    .bss.change_point   gps.o
    0x200037a7        -       0x00000001   Zero   RW          369    .bss.collection_by_hand.collect_flag  route_generating.o
    0x200037a8        -       0x00000004   Zero   RW          398    .bss.current        show_page.o
    0x200037ac        -       0x00000001   Zero   RW          504    .bss.debug_assert_handler.assert_nest_index  zf_common_debug.o
    0x200037ad   COMPRESSED   0x00000001   PAD
    0x200037ae        -       0x00000002   Zero   RW          293    .bss.debug_flag     parameter.o
    0x200037b0        -       0x00000014   Zero   RW          507    .bss.debug_output_info  zf_common_debug.o
    0x200037c4        -       0x00000001   Zero   RW           92    .bss.dot_read       isr.o
    0x200037c5   COMPRESSED   0x00000003   PAD
    0x200037c8        -       0x00000004   Zero   RW          294    .bss.duty_mid       parameter.o
    0x200037cc        -       0x00000004   Zero   RW          212    .bss.error_direction  gps.o
    0x200037d0        -       0x00000004   Zero   RW          230    .bss.error_icm_last  gps.o
    0x200037d4        -       0x00000004   Zero   RW          211    .bss.error_lenth_s_p  gps.o
    0x200037d8        -       0x00000004   Zero   RW          399    .bss.f_to_uint_lati  show_page.o
    0x200037dc        -       0x00000004   Zero   RW          400    .bss.f_to_uint_longi  show_page.o
    0x200037e0        -       0x00000002   Zero   RW          217    .bss.finished_gpspoints  gps.o
    0x200037e2   COMPRESSED   0x00000002   PAD
    0x200037e4        -       0x00000004   Zero   RW          303    .bss.gps_error_pd_pwm  parameter.o
    0x200037e8        -       0x00000004   Zero   RW          302    .bss.gps_kd_in      parameter.o
    0x200037ec        -       0x00000004   Zero   RW          300    .bss.gps_kd_w       parameter.o
    0x200037f0        -       0x00000004   Zero   RW          298    .bss.gps_kd_z       parameter.o
    0x200037f4        -       0x00000002   Zero   RW          215    .bss.gps_mode       gps.o
    0x200037f6   COMPRESSED   0x00000002   PAD
    0x200037f8        -       0x00000004   Zero   RW          274    .bss.gps_servo_control.last_duoji  motor.o
    0x200037fc        -       0x00000002   Zero   RW          204    .bss.guess_start    gps.o
    0x200037fe        -       0x00000002   Zero   RW         1240    .bss.icm_gyro_x     zf_device_icm20602.o
    0x20003800        -       0x00000002   Zero   RW         1241    .bss.icm_gyro_y     zf_device_icm20602.o
    0x20003802        -       0x00000002   Zero   RW         1242    .bss.icm_gyro_z     zf_device_icm20602.o
    0x20003804        -       0x00000004   Zero   RW          613    .bss.interrupt_nest_count  zf_common_interrupt.o
    0x20003808        -       0x00000002   Zero   RW          287    .bss.key_num        parameter.o
    0x2000380a   COMPRESSED   0x00000006   PAD
    0x20003810        -       0x00000060   Zero   RW          366    .bss.kps_plygrnd    route_generating.o
    0x20003870        -       0x00000002   Zero   RW          210    .bss.last_micro_area  gps.o
    0x20003872        -       0x00000002   Zero   RW          209    .bss.micro_area     gps.o
    0x20003874        -       0x00000040   Zero   RW          207    .bss.micro_op_lati  gps.o
    0x200038b4        -       0x00000040   Zero   RW          208    .bss.micro_op_longi  gps.o
    0x200038f4        -       0x00000001   Zero   RW          288    .bss.modify_flag    parameter.o
    0x200038f5        -       0x00000001   Zero   RW         1436    .bss.mt9v03x_finish_flag  zf_device_mt9v03x.o
    0x200038f6        -       0x00000001   Zero   RW           91    .bss.newgpsgot      isr.o
    0x200038f7        -       0x00000001   Zero   RW          227    .bss.now_area       gps.o
    0x200038f8        -       0x00000001   Zero   RW          289    .bss.op             parameter.o
    0x200038f9        -       0x00000001   Zero   RW         1514    .bss.ov7725_finish_flag  zf_device_ov7725.o
    0x200038fa   COMPRESSED   0x00000002   PAD
    0x200038fc        -       0x00000004   Zero   RW          407    .bss.page_spin.change  show_page.o
    0x20003900        -       0x00000004   Zero   RW          408    .bss.page_spin.new_page  show_page.o
    0x20003904        -       0x00000002   Zero   RW          214    .bss.passed_sections  gps.o
    0x20003906        -       0x00000001   Zero   RW          396    .bss.past_page      show_page.o
    0x20003907   COMPRESSED   0x00000001   PAD
    0x20003908        -       0x00000004   Zero   RW          218    .bss.point_latitude_selected  gps.o
    0x2000390c        -       0x00000004   Zero   RW          219    .bss.point_longitude_selected  gps.o
    0x20003910        -       0x00000002   Zero   RW          216    .bss.point_selected_gps  gps.o
    0x20003912        -       0x00000002   Zero   RW          225    .bss.point_type_pageread  gps.o
    0x20003914        -       0x00000003   Zero   RW         1670    .bss.receive        zf_device_type.o
    0x20003917        -       0x00000001   Zero   RW         1671    .bss.receive_num    zf_device_type.o
    0x20003918        -       0x00000004   Zero   RW          231    .bss.route_read     gps.o
    0x2000391c        -       0x00000004   Zero   RW          232    .bss.route_write    gps.o
    0x20003920        -       0x00000e10   Zero   RW          367    .bss.rps_plygrnd    route_generating.o
    0x20004730        -       0x00000002   Zero   RW           94    .bss.run_circle     isr.o
    0x20004732   COMPRESSED   0x00000002   PAD
    0x20004734        -       0x00000004   Zero   RW           96    .bss.run_stop_distance  isr.o
    0x20004738        -       0x00000001   Zero   RW         1547    .bss.scc8660_finish_flag  zf_device_scc8660.o
    0x20004739   COMPRESSED   0x00000003   PAD
    0x2000473c        -       0x00000004   Zero   RW           90    .bss.send_order     isr.o
    0x20004740        -       0x00000004   Zero   RW          451    .bss.send_spin_vofa.i  vofa.o
    0x20004744        -       0x00000004   Zero   RW          100    .bss.start_car      isr.o
    0x20004748        -       0x00000002   Zero   RW           89    .bss.start_delay_time  isr.o
    0x2000474a        -       0x00000001   Zero   RW           95    .bss.stop_mode      isr.o
    0x2000474b   COMPRESSED   0x00000001   PAD
    0x2000474c        -       0x00000010   Zero   RW            7    .bss.sum            main.o
    0x2000475c        -       0x00000008   Zero   RW         1061    .bss.timer_function_state  zf_driver_timer.o
    0x20004764        -       0x00000004   Zero   RW          291    .bss.total_time     parameter.o
    0x20004768        -       0x00000002   Zero   RW          401    .bss.tp_micr_lati   show_page.o
    0x2000476a        -       0x00000002   Zero   RW          402    .bss.tp_micr_longi  show_page.o
    0x2000476c        -       0x00000200   Zero   RW         1644    .bss.tsl1401_data   zf_device_tsl1401.o
    0x2000496c        -       0x00000001   Zero   RW         1645    .bss.tsl1401_finish_flag  zf_device_tsl1401.o
    0x2000496d        -       0x00000001   Zero   RW         1643    .bss.tsl1401_init_state  zf_device_tsl1401.o
    0x2000496e        -       0x00000001   Zero   RW         1672    .bss.uart_receive_flag  zf_device_type.o
    0x2000496f        -       0x00000001   Zero   RW         1669    .bss.wireless_type  zf_device_type.o
    0x20004970        -       0x00000001   Zero   RW         1714    .bss.wireless_uart_data  zf_device_wireless_uart.o
    0x20004971   COMPRESSED   0x00000003   PAD
    0x20004974        -       0x00000014   Zero   RW         1715    .bss.wireless_uart_fifo  zf_device_wireless_uart.o
    0x20004988        -       0x00000004   Zero   RW          292    .bss.write_flash_points  parameter.o
    0x2000498c        -       0x00000001   Zero   RW          505    .bss.zf_debug_init_flag  zf_common_debug.o


    Execution Region ARM_LIB_HEAP (Exec base: 0x20004990, Load base: 0x0800fa70, Size: 0x00000400, Max: 0x00000400, ABSOLUTE)

    Exec Addr    Load Addr    Size         Type   Attr      Idx    E Section Name        Object

    0x20004990        -       0x00000400   Zero   RW            1    ARM_LIB_HEAP.bss    anon$$obj.o


    Execution Region ARM_LIB_STACK (Exec base: 0x2001e000, Load base: 0x0800fa70, Size: 0x00002000, Max: 0x00002000, ABSOLUTE)

    Exec Addr    Load Addr    Size         Type   Attr      Idx    E Section Name        Object

    0x2001e000        -       0x00002000   Zero   RW            2    ARM_LIB_STACK.bss   anon$$obj.o


==============================================================================

Image component sizes


      Code (inc. data)   RO Data    RW Data    ZI Data      Debug   Object Name

      1836          0          0          0          1       3711   button.o
      3666          0          0        348          0       8065   flash.o
      4660          8          4         48      12777      11671   gps.o
      5920          0          2          0        342      11383   isr.o
       470          0          0          0         16       4099   main.o
      1554          0          0          0          4       4752   motor.o
         0          0          0         56         65       3047   parameter.o
     12080          0         18          8       3697      12036   route_generating.o
      4480         16        384        654         25       6654   show_page.o
        36          8        400          0          0        824   startup_mm32f3277g.o
        16          0          0          0          0        460   system_mm32f3277g.o
      1968          0          0          0          4       5291   vofa.o
       832          0          0          4          0       2972   zf_common_clock.o
      1078          0         74          1         22       5388   zf_common_debug.o
       296          0          0          0          0       2792   zf_common_fifo.o
         0          0       1520          0          0        921   zf_common_font.o
        74          0          0          0          0       7006   zf_common_function.o
       438          0          0          0          4       4986   zf_common_interrupt.o
        50          0          0          0         21       5239   zf_device_bluetooth_ch9141.o
       354          0        149          0          0       7607   zf_device_gps_tau1201.o
       746          0         47          0          6       5138   zf_device_icm20602.o
         0          0          0          0          1       6119   zf_device_mt9v03x.o
         0          0          0          0          1       5989   zf_device_ov7725.o
         0          0          0          0          1       6737   zf_device_scc8660.o
      2634          4         45          7          0      11207   zf_device_tft180.o
       230          0          0          0        514       4326   zf_device_tsl1401.o
       660          0          0          0          7       2603   zf_device_type.o
       100          0          0          0         21       5427   zf_device_wireless_uart.o
       154          0          0         12          3       5607   zf_driver_adc.o
       150          0          0          0          0       1050   zf_driver_delay.o
       174          0          0          8          0       4238   zf_driver_dma.o
       806          0          0          0          0       6900   zf_driver_flash.o
       916          0          0         32          0       5382   zf_driver_gpio.o
       318          8         42          0          0       5054   zf_driver_pit.o
       958         16         42          0          0       5760   zf_driver_pwm.o
      1752          4          0         12          0      10043   zf_driver_spi.o
       300          8          0          0          8       7750   zf_driver_timer.o
      1156          8          0         40          0       7825   zf_driver_uart.o

    ----------------------------------------------------------------------
     51060         80       2760       1248      26796     216059   Object Totals
         0          0         32          0       9216          0   (incl. Generated)
       198          0          1         18         40          0   (incl. Padding)

    ----------------------------------------------------------------------

      Code (inc. data)   RO Data    RW Data    ZI Data      Debug   Library Member Name

       544         70        152          0          0        124   atan.o
       384         38          0          0          0        144   atan2.o
       156          8          0          0          0        104   cos.o
       252         22         48          0          0        124   cos_i.o
        38          6          0          0          0        272   dunder.o
       148          4          0          0          0         88   fmod.o
        40          0          0          0          0         68   fpclassify.o
       170          0          0          0          0         96   poly.o
         0          0          8          0          0          0   qnan.o
       904         76        200          0          0        140   rred.o
       160         10          0          0          0        108   sin.o
       236         12         40          0          0        128   sin_i.o
        76          0          0          0          0         84   sqrt.o
        86          0          0          0          0          0   __dczerorl2.o
         0          0          0          0          0          0   entry.o
         0          0          0          0          0          0   entry10a.o
         0          0          0          0          0          0   entry11a.o
         8          4          0          0          0          0   entry4.o
         4          0          0          0          0          0   entry5.o
         0          0          0          0          0          0   entry7b.o
         0          0          0          0          0          0   entry8b.o
         8          4          0          0          0          0   entry9a.o
        12          6          0          4          0         68   errno.o
        30          0          0          0          0          0   handlers.o
        36          8          0          0          0         68   init.o
         0          0          0          0          0          0   iusefp.o
        30          0          0          0          0         68   llshl.o
        36          0          0          0          0         68   llsshr.o
        32          0          0          0          0         68   llushr.o
        36          0          0          0          0         68   memcpya.o
        36          0          0          0          0        108   memseta.o
      2276         86          0          0          0        520   printfa.o
        28          0          0          0          0         76   strcmp.o
        18          0          0          0          0         68   strcpy.o
        14          0          0          0          0         68   strlen.o
        36          0          0          0          0         80   strstr.o
        44          0          0          0          0         80   uidiv.o
        98          0          0          0          0         92   uldiv.o
        48          0          0          0          0         68   cdrcmple.o
        56          0          0          0          0         88   d2f.o
       334          0          0          0          0        148   dadd.o
        56          0          0          0          0         80   dcmpeq.o
        54          0          0          0          0         80   dcmpge.o
        54          0          0          0          0         80   dcmple.o
        54          0          0          0          0         80   dcmplt.o
       222          0          0          0          0        100   ddiv.o
       186          0          0          0          0        176   depilogue.o
        62          0          0          0          0         80   dfixi.o
        50          0          0          0          0         76   dfixui.o
        48          0          0          0          0         68   dfixul.o
        34          0          0          0          0         76   dflti.o
        26          0          0          0          0         76   dfltui.o
       228          0          0          0          0         96   dmul.o
       134          0          0          0          0         96   drem.o
        46          0          0          0          0         80   dscalb.o
       162          0          0          0          0        100   dsqrt.o
        38          0          0          0          0         68   f2d.o
       176          0          0          0          0        140   fadd.o
        28          0          0          0          0         68   fcmpge.o
        28          0          0          0          0         68   fcmple.o
        28          0          0          0          0         68   fcmplt.o
       124          0          0          0          0         88   fdiv.o
       110          0          0          0          0        168   fepilogue.o
        50          0          0          0          0         68   ffixi.o
        40          0          0          0          0         68   ffixui.o
        18          0          0          0          0         68   fflti.o
        10          0          0          0          0         68   ffltui.o
       100          0          0          0          0         76   fmul.o

    ----------------------------------------------------------------------
      8588        354        448          4          0       5644   Library Totals
         8          0          0          0          0          0   (incl. Padding)

    ----------------------------------------------------------------------

      Code (inc. data)   RO Data    RW Data    ZI Data      Debug   Library Name

      3108        246        448          0          0       1480   m_ws.l
      2868        108          0          4          0       1500   mc_w.l
      2604          0          0          0          0       2664   mf_w.l

    ----------------------------------------------------------------------
      8588        354        448          4          0       5644   Library Totals

    ----------------------------------------------------------------------

==============================================================================


      Code (inc. data)   RO Data    RW Data    ZI Data      Debug   

     59648        434       3208       1252      26796     218267   Grand Totals
     59648        434       3208        632      26796     218267   ELF Image Totals (compressed)
     59648        434       3208        632          0          0   ROM Totals

==============================================================================

    Total RO  Size (Code + RO Data)                62856 (  61.38kB)
    Total RW  Size (RW Data + ZI Data)             28048 (  27.39kB)
    Total ROM Size (Code + RO Data + RW Data)      63488 (  62.00kB)

==============================================================================

