Component: ARM Compiler 5.06 update 6 (build 750) Tool: armlink [4d35ed]

==============================================================================

Section Cross References

    main.o(i.led_control) refers to gpio.o(i.led_en_control) for led_en_control
    main.o(i.led_control) refers to gpio.o(i.led_fault_control) for led_fault_control
    main.o(i.led_control) refers to gpio.o(i.led_run_control) for led_run_control
    main.o(i.led_control) refers to hal_tim.o(i.TIM_GetFlagStatus) for TIM_GetFlagStatus
    main.o(i.led_control) refers to hal_tim.o(i.TIM_ClearITPendingBit) for TIM_ClearITPendingBit
    main.o(i.led_control) refers to motor.o(.bss) for motor_control
    main.o(i.led_control) refers to move_filter.o(.bss) for speed_filter
    main.o(i.main) refers to gpio.o(i.led_init) for led_init
    main.o(i.main) refers to opamp.o(i.opamp_init) for opamp_init
    main.o(i.main) refers to adc.o(i.adc_init) for adc_init
    main.o(i.main) refers to move_filter.o(i.move_filter_init) for move_filter_init
    main.o(i.main) refers to hall.o(i.hall_init) for hall_init
    main.o(i.main) refers to pid.o(i.closed_loop_pi_init) for closed_loop_pi_init
    main.o(i.main) refers to motor.o(i.motor_speed_curve_init) for motor_speed_curve_init
    main.o(i.main) refers to motor.o(i.motor_information_out_init) for motor_information_out_init
    main.o(i.main) refers to pwm_input.o(i.pwm_input_init) for pwm_input_init
    main.o(i.main) refers to timer.o(i.tim1_complementary_pwm) for tim1_complementary_pwm
    main.o(i.main) refers to timer.o(i.tim3_init) for tim3_init
==============================================================================

Removing Unused input sections from the image.

    Removing main.o(.rev16_text), (4 bytes).
    Removing main.o(.revsh_text), (4 bytes).
    Removing isr.o(.rev16_text), (4 bytes).
    Removing isr.o(.revsh_text), (4 bytes).
    Removing isr.o(i.MIN), (14 bytes).
    Removing adc.o(.rev16_text), (4 bytes).
    Removing adc.o(.revsh_text), (4 bytes).
    Removing comp.o(.rev16_text), (4 bytes).
    Removing comp.o(.revsh_text), (4 bytes).
    Removing comp.o(i.comp_init), (104 bytes).
    Removing gpio.o(.rev16_text), (4 bytes).
    Removing gpio.o(.revsh_text), (4 bytes).
    Removing opamp.o(.rev16_text), (4 bytes).
    Removing opamp.o(.revsh_text), (4 bytes).
    Removing pwm_input.o(.rev16_text), (4 bytes).
    Removing pwm_input.o(.revsh_text), (4 bytes).
    Removing timer.o(.rev16_text), (4 bytes).
    Removing timer.o(.revsh_text), (4 bytes).
==============================================================================

Image Symbol Table

    Local Symbols

    Symbol Name                              Value     Ov Type        Size  Object(Section)

    ../clib/angel/boardlib.s                 0x00000000   Number         0  boardinit2.o ABSOLUTE
    ../clib/angel/boardlib.s                 0x00000000   Number         0  boardshut.o ABSOLUTE
    ../clib/angel/boardlib.s                 0x00000000   Number         0  boardinit1.o ABSOLUTE
    ../clib/angel/boardlib.s                 0x00000000   Number         0  boardinit3.o ABSOLUTE
    ../clib/angel/handlers.s                 0x00000000   Number         0  __scatter_copy.o ABSOLUTE
    ../clib/angel/handlers.s                 0x00000000   Number         0  __scatter_zi.o ABSOLUTE
    ../clib/angel/kernel.s                   0x00000000   Number         0  rtexit.o ABSOLUTE
    ../clib/angel/kernel.s                   0x00000000   Number         0  rtexit2.o ABSOLUTE
    ../clib/angel/kernel.s                   0x00000000   Number         0  __rtentry.o ABSOLUTE
    ../clib/angel/kernel.s                   0x00000000   Number         0  __rtentry4.o ABSOLUTE
    ../clib/angel/kernel.s                   0x00000000   Number         0  __rtentry2.o ABSOLUTE
    ../clib/angel/rt.s                       0x00000000   Number         0  rt_raise.o ABSOLUTE
    ../clib/angel/rt.s                       0x00000000   Number         0  aeabi_idiv0.o ABSOLUTE
    ../clib/angel/rt.s                       0x00000000   Number         0  aeabi_idiv0_sigfpe.o ABSOLUTE
    ../clib/angel/rt.s                       0x00000000   Number         0  rt_div0.o ABSOLUTE
    ../clib/angel/scatterp.s                 0x00000000   Number         0  __scatter.o ABSOLUTE
    ../clib/angel/startup.s                  0x00000000   Number         0  __main.o ABSOLUTE
    ../clib/angel/sys.s                      0x00000000   Number         0  sys_stackheap_outer.o ABSOLUTE
    ../clib/angel/sys.s                      0x00000000   Number         0  tempstk.o ABSOLUTE
    ../clib/angel/sys.s                      0x00000000   Number         0  indicate_semi.o ABSOLUTE
    ../clib/angel/sys.s                      0x00000000   Number         0  use_no_semi.o ABSOLUTE
    ../clib/angel/sys.s                      0x00000000   Number         0  libspace.o ABSOLUTE
    ../clib/angel/sysapp.c                   0x00000000   Number         0  sys_command.o ABSOLUTE
    ../clib/angel/sysapp.c                   0x00000000   Number         0  sys_exit.o ABSOLUTE
    ../clib/angel/sysapp.c                   0x00000000   Number         0  sys_wrch.o ABSOLUTE
    ../clib/armsys.c                         0x00000000   Number         0  _get_argv_nomalloc.o ABSOLUTE
    ../clib/armsys.c                         0x00000000   Number         0  no_argv.o ABSOLUTE
    ../clib/armsys.c                         0x00000000   Number         0  argv_veneer.o ABSOLUTE
    ../clib/division.s                       0x00000000   Number         0  aeabi_sdiv.o ABSOLUTE
    ../clib/division.s                       0x00000000   Number         0  aeabi_sdiv_div0.o ABSOLUTE
    ../clib/heapalloc.c                      0x00000000   Number         0  hrguard.o ABSOLUTE
    ../clib/heapaux.c                        0x00000000   Number         0  heapauxi.o ABSOLUTE
    ../clib/libinit.s                        0x00000000   Number         0  libinit.o ABSOLUTE
    ../clib/libinit.s                        0x00000000   Number         0  libshutdown2.o ABSOLUTE
    ../clib/libinit.s                        0x00000000   Number         0  libinit2.o ABSOLUTE
    ../clib/libinit.s                        0x00000000   Number         0  libshutdown.o ABSOLUTE
    ../clib/signal.c                         0x00000000   Number         0  defsig_fpe_inner.o ABSOLUTE
    ../clib/signal.c                         0x00000000   Number         0  __raise.o ABSOLUTE
    ../clib/signal.c                         0x00000000   Number         0  defsig_general.o ABSOLUTE
    ../clib/signal.c                         0x00000000   Number         0  defsig_exit.o ABSOLUTE
    ../clib/signal.c                         0x00000000   Number         0  defsig_fpe_outer.o ABSOLUTE
    ../clib/signal.c                         0x00000000   Number         0  defsig_other.o ABSOLUTE
    ../clib/signal.c                         0x00000000   Number         0  defsig_segv_inner.o ABSOLUTE
    ../clib/signal.c                         0x00000000   Number         0  defsig_cppl_inner.o ABSOLUTE
    ../clib/signal.c                         0x00000000   Number         0  defsig_pvfn_inner.o ABSOLUTE
    ../clib/signal.c                         0x00000000   Number         0  defsig_stak_inner.o ABSOLUTE
    ../clib/signal.c                         0x00000000   Number         0  defsig_rtmem_formal.o ABSOLUTE
    ../clib/signal.c                         0x00000000   Number         0  defsig_fpe_formal.o ABSOLUTE
    ../clib/signal.c                         0x00000000   Number         0  defsig_rtmem_inner.o ABSOLUTE
    ../clib/signal.c                         0x00000000   Number         0  defsig_rtred_inner.o ABSOLUTE
    ../clib/signal.c                         0x00000000   Number         0  defsig_abrt_inner.o ABSOLUTE
    ../clib/signal.c                         0x00000000   Number         0  defsig_rtmem_outer.o ABSOLUTE
    ../clib/signal.s                         0x00000000   Number         0  defsig.o ABSOLUTE
    ../clib/stdlib.c                         0x00000000   Number         0  exit.o ABSOLUTE
    ../fplib/cfplib/cmpret.c                 0x00000000   Number         0  cmpret.o ABSOLUTE
    ../fplib/cfplib/fcmpin.c                 0x00000000   Number         0  fcmpin.o ABSOLUTE
    ../fplib/cfplib/fdiv.c                   0x00000000   Number         0  fdiv.o ABSOLUTE
    ../fplib/cfplib/ffix.c                   0x00000000   Number         0  ffixi.o ABSOLUTE
    ../fplib/cfplib/fflt.c                   0x00000000   Number         0  fflti.o ABSOLUTE
    ../fplib/cfplib/fpinit.c                 0x00000000   Number         0  fpinit.o ABSOLUTE
    ../fplib/cfplib/nan2.c                   0x00000000   Number         0  fnan2.o ABSOLUTE
    ../fplib/cfplib/retnan.c                 0x00000000   Number         0  retnan.o ABSOLUTE
    ../fplib/faddsub6m.s                     0x00000000   Number         0  faddsub.o ABSOLUTE
    ../fplib/fleqf6m.s                       0x00000000   Number         0  flef.o ABSOLUTE
    ../fplib/fmul6m.s                        0x00000000   Number         0  fmul.o ABSOLUTE
    ../fplib/frleqf6m.s                      0x00000000   Number         0  frlef.o ABSOLUTE
    ../fplib/usenofp.s                       0x00000000   Number         0  usenofp.o ABSOLUTE
    ..\..\Libraries\bldc\hall.c              0x00000000   Number         0  hall.o ABSOLUTE
    ..\..\Libraries\bldc\motor.c             0x00000000   Number         0  motor.o ABSOLUTE
    ..\..\Libraries\bldc\move_filter.c       0x00000000   Number         0  move_filter.o ABSOLUTE
    ..\..\Libraries\bldc\pid.c               0x00000000   Number         0  pid.o ABSOLUTE
    ..\..\Libraries\bldc\virsco.c            0x00000000   Number         0  virsco.o ABSOLUTE
    ..\..\Libraries\hardware\adc.c           0x00000000   Number         0  adc.o ABSOLUTE
    ..\..\Libraries\hardware\common.c        0x00000000   Number         0  common.o ABSOLUTE
    ..\..\Libraries\hardware\comp.c          0x00000000   Number         0  comp.o ABSOLUTE
    ..\..\Libraries\hardware\gpio.c          0x00000000   Number         0  gpio.o ABSOLUTE
    ..\..\Libraries\hardware\opamp.c         0x00000000   Number         0  opamp.o ABSOLUTE
    ..\..\Libraries\hardware\pwm_input.c     0x00000000   Number         0  pwm_input.o ABSOLUTE
    ..\..\Libraries\hardware\timer.c         0x00000000   Number         0  timer.o ABSOLUTE
    ..\..\Libraries\hardware\uart.c          0x00000000   Number         0  uart.o ABSOLUTE
    ..\..\Libraries\sdk\MM32SPIN2xx_p_LIB\HAL_lib\src\HAL_adc.c 0x00000000   Number         0  hal_adc.o ABSOLUTE
    ..\..\Libraries\sdk\MM32SPIN2xx_p_LIB\HAL_lib\src\HAL_comp.c 0x00000000   Number         0  hal_comp.o ABSOLUTE
    ..\..\Libraries\sdk\MM32SPIN2xx_p_LIB\HAL_lib\src\HAL_crc.c 0x00000000   Number         0  hal_crc.o ABSOLUTE
    ..\..\Libraries\sdk\MM32SPIN2xx_p_LIB\HAL_lib\src\HAL_div.c 0x00000000   Number         0  hal_div.o ABSOLUTE
    ..\..\Libraries\sdk\MM32SPIN2xx_p_LIB\HAL_lib\src\HAL_dma.c 0x00000000   Number         0  hal_dma.o ABSOLUTE
    ..\..\Libraries\sdk\MM32SPIN2xx_p_LIB\HAL_lib\src\HAL_exti.c 0x00000000   Number         0  hal_exti.o ABSOLUTE
    ..\..\Libraries\sdk\MM32SPIN2xx_p_LIB\HAL_lib\src\HAL_flash.c 0x00000000   Number         0  hal_flash.o ABSOLUTE
    ..\..\Libraries\sdk\MM32SPIN2xx_p_LIB\HAL_lib\src\HAL_gpio.c 0x00000000   Number         0  hal_gpio.o ABSOLUTE
    ..\..\Libraries\sdk\MM32SPIN2xx_p_LIB\HAL_lib\src\HAL_i2c.c 0x00000000   Number         0  hal_i2c.o ABSOLUTE
    ..\..\Libraries\sdk\MM32SPIN2xx_p_LIB\HAL_lib\src\HAL_iwdg.c 0x00000000   Number         0  hal_iwdg.o ABSOLUTE
    ..\..\Libraries\sdk\MM32SPIN2xx_p_LIB\HAL_lib\src\HAL_misc.c 0x00000000   Number         0  hal_misc.o ABSOLUTE
    ..\..\Libraries\sdk\MM32SPIN2xx_p_LIB\HAL_lib\src\HAL_op.c 0x00000000   Number         0  hal_op.o ABSOLUTE
    ..\..\Libraries\sdk\MM32SPIN2xx_p_LIB\HAL_lib\src\HAL_pwr.c 0x00000000   Number         0  hal_pwr.o ABSOLUTE
    ..\..\Libraries\sdk\MM32SPIN2xx_p_LIB\HAL_lib\src\HAL_rcc.c 0x00000000   Number         0  hal_rcc.o ABSOLUTE
    ..\..\Libraries\sdk\MM32SPIN2xx_p_LIB\HAL_lib\src\HAL_spi.c 0x00000000   Number         0  hal_spi.o ABSOLUTE
    ..\..\Libraries\sdk\MM32SPIN2xx_p_LIB\HAL_lib\src\HAL_syscfg.c 0x00000000   Number         0  hal_syscfg.o ABSOLUTE
    ..\..\Libraries\sdk\MM32SPIN2xx_p_LIB\HAL_lib\src\HAL_tim.c 0x00000000   Number         0  hal_tim.o ABSOLUTE
    ..\..\Libraries\sdk\MM32SPIN2xx_p_LIB\HAL_lib\src\HAL_uart.c 0x00000000   Number         0  hal_uart.o ABSOLUTE
    ..\..\Libraries\sdk\MM32SPIN2xx_p_LIB\HAL_lib\src\HAL_wwdg.c 0x00000000   Number         0  hal_wwdg.o ABSOLUTE
    ..\..\Libraries\sdk\MM32SPIN2xx_p_LIB\Source\KEIL_StartAsm\startup_MM32SPIN2xx_p.s 0x00000000   Number         0  startup_mm32spin2xx_p.o ABSOLUTE
    ..\..\Libraries\sdk\MM32SPIN2xx_p_LIB\Source\system_MM32SPIN2xx_p.c 0x00000000   Number         0  system_mm32spin2xx_p.o ABSOLUTE
    ..\USER\isr.c                            0x00000000   Number         0  isr.o ABSOLUTE
    ..\USER\main.c                           0x00000000   Number         0  main.o ABSOLUTE
    ..\\..\\Libraries\\bldc\\hall.c          0x00000000   Number         0  hall.o ABSOLUTE
    ..\\..\\Libraries\\bldc\\motor.c         0x00000000   Number         0  motor.o ABSOLUTE
    ..\\..\\Libraries\\hardware\\adc.c       0x00000000   Number         0  adc.o ABSOLUTE
    ..\\..\\Libraries\\hardware\\comp.c      0x00000000   Number         0  comp.o ABSOLUTE
    ..\\..\\Libraries\\hardware\\gpio.c      0x00000000   Number         0  gpio.o ABSOLUTE
    ..\\..\\Libraries\\hardware\\opamp.c     0x00000000   Number         0  opamp.o ABSOLUTE
    ..\\..\\Libraries\\hardware\\pwm_input.c 0x00000000   Number         0  pwm_input.o ABSOLUTE
    ..\\..\\Libraries\\hardware\\timer.c     0x00000000   Number         0  timer.o ABSOLUTE
    ..\\..\\Libraries\\hardware\\uart.c      0x00000000   Number         0  uart.o ABSOLUTE
    ..\\..\\Libraries\\sdk\\MM32SPIN2xx_p_LIB\\HAL_lib\\src\\HAL_adc.c 0x00000000   Number         0  hal_adc.o ABSOLUTE
    ..\\..\\Libraries\\sdk\\MM32SPIN2xx_p_LIB\\HAL_lib\\src\\HAL_comp.c 0x00000000   Number         0  hal_comp.o ABSOLUTE
    ..\\..\\Libraries\\sdk\\MM32SPIN2xx_p_LIB\\HAL_lib\\src\\HAL_crc.c 0x00000000   Number         0  hal_crc.o ABSOLUTE
    ..\\..\\Libraries\\sdk\\MM32SPIN2xx_p_LIB\\HAL_lib\\src\\HAL_div.c 0x00000000   Number         0  hal_div.o ABSOLUTE
    ..\\..\\Libraries\\sdk\\MM32SPIN2xx_p_LIB\\HAL_lib\\src\\HAL_dma.c 0x00000000   Number         0  hal_dma.o ABSOLUTE
    ..\\..\\Libraries\\sdk\\MM32SPIN2xx_p_LIB\\HAL_lib\\src\\HAL_exti.c 0x00000000   Number         0  hal_exti.o ABSOLUTE
    ..\\..\\Libraries\\sdk\\MM32SPIN2xx_p_LIB\\HAL_lib\\src\\HAL_flash.c 0x00000000   Number         0  hal_flash.o ABSOLUTE
    ..\\..\\Libraries\\sdk\\MM32SPIN2xx_p_LIB\\HAL_lib\\src\\HAL_gpio.c 0x00000000   Number         0  hal_gpio.o ABSOLUTE
    ..\\..\\Libraries\\sdk\\MM32SPIN2xx_p_LIB\\HAL_lib\\src\\HAL_i2c.c 0x00000000   Number         0  hal_i2c.o ABSOLUTE
    ..\\..\\Libraries\\sdk\\MM32SPIN2xx_p_LIB\\HAL_lib\\src\\HAL_iwdg.c 0x00000000   Number         0  hal_iwdg.o ABSOLUTE
    ..\\..\\Libraries\\sdk\\MM32SPIN2xx_p_LIB\\HAL_lib\\src\\HAL_misc.c 0x00000000   Number         0  hal_misc.o ABSOLUTE
    ..\\..\\Libraries\\sdk\\MM32SPIN2xx_p_LIB\\HAL_lib\\src\\HAL_op.c 0x00000000   Number         0  hal_op.o ABSOLUTE
    ..\\..\\Libraries\\sdk\\MM32SPIN2xx_p_LIB\\HAL_lib\\src\\HAL_pwr.c 0x00000000   Number         0  hal_pwr.o ABSOLUTE
    ..\\..\\Libraries\\sdk\\MM32SPIN2xx_p_LIB\\HAL_lib\\src\\HAL_rcc.c 0x00000000   Number         0  hal_rcc.o ABSOLUTE
    ..\\..\\Libraries\\sdk\\MM32SPIN2xx_p_LIB\\HAL_lib\\src\\HAL_spi.c 0x00000000   Number         0  hal_spi.o ABSOLUTE
    ..\\..\\Libraries\\sdk\\MM32SPIN2xx_p_LIB\\HAL_lib\\src\\HAL_syscfg.c 0x00000000   Number         0  hal_syscfg.o ABSOLUTE
    ..\\..\\Libraries\\sdk\\MM32SPIN2xx_p_LIB\\HAL_lib\\src\\HAL_tim.c 0x00000000   Number         0  hal_tim.o ABSOLUTE
    ..\\..\\Libraries\\sdk\\MM32SPIN2xx_p_LIB\\HAL_lib\\src\\HAL_uart.c 0x00000000   Number         0  hal_uart.o ABSOLUTE
    ..\\..\\Libraries\\sdk\\MM32SPIN2xx_p_LIB\\HAL_lib\\src\\HAL_wwdg.c 0x00000000   Number         0  hal_wwdg.o ABSOLUTE
    ..\\..\\Libraries\\sdk\\MM32SPIN2xx_p_LIB\\Source\\system_MM32SPIN2xx_p.c 0x00000000   Number         0  system_mm32spin2xx_p.o ABSOLUTE
    ..\\USER\\isr.c                          0x00000000   Number         0  isr.o ABSOLUTE
    ..\\USER\\main.c                         0x00000000   Number         0  main.o ABSOLUTE
    dc.s                                     0x00000000   Number         0  dc.o ABSOLUTE
    RESET                                    0x08000000   Section      180  startup_mm32spin2xx_p.o(RESET)
    !!!main                                  0x080000b4   Section        8  __main.o(!!!main)
    !!!scatter                               0x080000bc   Section       60  __scatter.o(!!!scatter)
    !!handler_copy                           0x080000f8   Section       26  __scatter_copy.o(!!handler_copy)
    !!handler_zi                             0x08000114   Section       28  __scatter_zi.o(!!handler_zi)
    .ARM.Collect$$libinit$$00000000          0x08000130   Section        2  libinit.o(.ARM.Collect$$libinit$$00000000)
    .ARM.Collect$$libinit$$00000002          0x08000132   Section        0  libinit2.o(.ARM.Collect$$libinit$$00000002)
    .ARM.Collect$$libinit$$00000004          0x08000132   Section        0  libinit2.o(.ARM.Collect$$libinit$$00000004)
    .ARM.Collect$$libinit$$0000000A          0x08000132   Section        0  libinit2.o(.ARM.Collect$$libinit$$0000000A)
    .ARM.Collect$$libinit$$0000000C          0x08000132   Section        0  libinit2.o(.ARM.Collect$$libinit$$0000000C)
    .ARM.Collect$$libinit$$0000000E          0x08000132   Section        0  libinit2.o(.ARM.Collect$$libinit$$0000000E)
    .ARM.Collect$$libinit$$00000011          0x08000132   Section        0  libinit2.o(.ARM.Collect$$libinit$$00000011)
    .ARM.Collect$$libinit$$00000013          0x08000132   Section        0  libinit2.o(.ARM.Collect$$libinit$$00000013)
    .ARM.Collect$$libinit$$00000015          0x08000132   Section        0  libinit2.o(.ARM.Collect$$libinit$$00000015)
    .ARM.Collect$$libinit$$00000017          0x08000132   Section        0  libinit2.o(.ARM.Collect$$libinit$$00000017)
    .ARM.Collect$$libinit$$00000019          0x08000132   Section        0  libinit2.o(.ARM.Collect$$libinit$$00000019)
    .ARM.Collect$$libinit$$0000001B          0x08000132   Section        0  libinit2.o(.ARM.Collect$$libinit$$0000001B)
    .ARM.Collect$$libinit$$0000001D          0x08000132   Section        0  libinit2.o(.ARM.Collect$$libinit$$0000001D)
    .ARM.Collect$$libinit$$0000001F          0x08000132   Section        0  libinit2.o(.ARM.Collect$$libinit$$0000001F)
    .ARM.Collect$$libinit$$00000021          0x08000132   Section        0  libinit2.o(.ARM.Collect$$libinit$$00000021)
    .ARM.Collect$$libinit$$00000023          0x08000132   Section        0  libinit2.o(.ARM.Collect$$libinit$$00000023)
    .ARM.Collect$$libinit$$00000025          0x08000132   Section        0  libinit2.o(.ARM.Collect$$libinit$$00000025)
    .ARM.Collect$$libinit$$0000002C          0x08000132   Section        0  libinit2.o(.ARM.Collect$$libinit$$0000002C)
    .ARM.Collect$$libinit$$0000002E          0x08000132   Section        0  libinit2.o(.ARM.Collect$$libinit$$0000002E)
    .ARM.Collect$$libinit$$00000030          0x08000132   Section        0  libinit2.o(.ARM.Collect$$libinit$$00000030)
    .ARM.Collect$$libinit$$00000032          0x08000132   Section        0  libinit2.o(.ARM.Collect$$libinit$$00000032)
    .ARM.Collect$$libinit$$00000033          0x08000132   Section        2  libinit2.o(.ARM.Collect$$libinit$$00000033)
    .ARM.Collect$$libshutdown$$00000000      0x08000134   Section        2  libshutdown.o(.ARM.Collect$$libshutdown$$00000000)
    .ARM.Collect$$libshutdown$$00000002      0x08000136   Section        0  libshutdown2.o(.ARM.Collect$$libshutdown$$00000002)
    .ARM.Collect$$libshutdown$$00000004      0x08000136   Section        0  libshutdown2.o(.ARM.Collect$$libshutdown$$00000004)
    .ARM.Collect$$libshutdown$$00000007      0x08000136   Section        0  libshutdown2.o(.ARM.Collect$$libshutdown$$00000007)
    .ARM.Collect$$libshutdown$$0000000A      0x08000136   Section        0  libshutdown2.o(.ARM.Collect$$libshutdown$$0000000A)
    .ARM.Collect$$libshutdown$$0000000C      0x08000136   Section        0  libshutdown2.o(.ARM.Collect$$libshutdown$$0000000C)
    .ARM.Collect$$libshutdown$$0000000F      0x08000136   Section        0  libshutdown2.o(.ARM.Collect$$libshutdown$$0000000F)
    .ARM.Collect$$libshutdown$$00000010      0x08000136   Section        2  libshutdown2.o(.ARM.Collect$$libshutdown$$00000010)
    .ARM.Collect$$rtentry$$00000000          0x08000138   Section        0  __rtentry.o(.ARM.Collect$$rtentry$$00000000)
    .ARM.Collect$$rtentry$$00000002          0x08000138   Section        0  __rtentry2.o(.ARM.Collect$$rtentry$$00000002)
    .ARM.Collect$$rtentry$$00000004          0x08000138   Section        6  __rtentry4.o(.ARM.Collect$$rtentry$$00000004)
    .ARM.Collect$$rtentry$$00000009          0x0800013e   Section        0  __rtentry2.o(.ARM.Collect$$rtentry$$00000009)
    .ARM.Collect$$rtentry$$0000000A          0x0800013e   Section        4  __rtentry2.o(.ARM.Collect$$rtentry$$0000000A)
    .ARM.Collect$$rtentry$$0000000C          0x08000142   Section        0  __rtentry2.o(.ARM.Collect$$rtentry$$0000000C)
    .ARM.Collect$$rtentry$$0000000D          0x08000142   Section        8  __rtentry2.o(.ARM.Collect$$rtentry$$0000000D)
    .ARM.Collect$$rtexit$$00000000           0x0800014a   Section        2  rtexit.o(.ARM.Collect$$rtexit$$00000000)
    .ARM.Collect$$rtexit$$00000002           0x0800014c   Section        0  rtexit2.o(.ARM.Collect$$rtexit$$00000002)
    .ARM.Collect$$rtexit$$00000003           0x0800014c   Section        4  rtexit2.o(.ARM.Collect$$rtexit$$00000003)
    .ARM.Collect$$rtexit$$00000004           0x08000150   Section        6  rtexit2.o(.ARM.Collect$$rtexit$$00000004)
    .text                                    0x08000158   Section      144  startup_mm32spin2xx_p.o(.text)
    .text                                    0x080001e8   Section      346  aeabi_sdiv.o(.text)
    .text                                    0x08000342   Section        0  heapauxi.o(.text)
    .text                                    0x08000348   Section        0  fdiv.o(.text)
    .text                                    0x080004a8   Section        0  ffixi.o(.text)
    .text                                    0x080004f4   Section        0  fflti.o(.text)
    .text                                    0x08000552   Section       62  sys_stackheap_outer.o(.text)
    .text                                    0x08000590   Section        0  exit.o(.text)
    .text                                    0x080005a0   Section        8  libspace.o(.text)
    .text                                    0x080005a8   Section        0  sys_exit.o(.text)
    .text                                    0x080005b4   Section        2  use_no_semi.o(.text)
    .text                                    0x080005b6   Section        0  indicate_semi.o(.text)
    i.ADC1_IRQHandler                        0x080005b8   Section        0  isr.o(i.ADC1_IRQHandler)
    i.ADC_ClearFlag                          0x080005f8   Section        0  hal_adc.o(i.ADC_ClearFlag)
    i.ADC_Cmd                                0x08000600   Section        0  hal_adc.o(i.ADC_Cmd)
    i.ADC_ExternalTrigConvCmd                0x08000618   Section        0  hal_adc.o(i.ADC_ExternalTrigConvCmd)
    i.ADC_ITConfig                           0x08000630   Section        0  hal_adc.o(i.ADC_ITConfig)
    i.ADC_Init                               0x08000644   Section        0  hal_adc.o(i.ADC_Init)
    i.ADC_RegularChannelConfig               0x08000674   Section        0  hal_adc.o(i.ADC_RegularChannelConfig)
    i.ADC_StructInit                         0x080006bc   Section        0  hal_adc.o(i.ADC_StructInit)
    i.AutoCalPllFactor                       0x080006ca   Section        0  system_mm32spin2xx_p.o(i.AutoCalPllFactor)
    i.GPIO_Init                              0x08000734   Section        0  hal_gpio.o(i.GPIO_Init)
    i.GPIO_PinAFConfig                       0x08000812   Section        0  hal_gpio.o(i.GPIO_PinAFConfig)
    i.GPIO_ReadInputDataBit                  0x08000858   Section        0  hal_gpio.o(i.GPIO_ReadInputDataBit)
    i.GPIO_ResetBits                         0x0800086c   Section        0  hal_gpio.o(i.GPIO_ResetBits)
    i.GPIO_SetBits                           0x08000870   Section        0  hal_gpio.o(i.GPIO_SetBits)
    i.GPIO_WriteBit                          0x08000874   Section        0  hal_gpio.o(i.GPIO_WriteBit)
    i.NVIC_Init                              0x08000880   Section        0  hal_misc.o(i.NVIC_Init)
    i.OPAMP_Configure                        0x080008f0   Section        0  hal_op.o(i.OPAMP_Configure)
    i.RCC_AHBPeriphClockCmd                  0x08000910   Section        0  hal_rcc.o(i.RCC_AHBPeriphClockCmd)
    i.RCC_APB1PeriphClockCmd                 0x08000930   Section        0  hal_rcc.o(i.RCC_APB1PeriphClockCmd)
    i.RCC_APB1PeriphResetCmd                 0x08000950   Section        0  hal_rcc.o(i.RCC_APB1PeriphResetCmd)
    i.RCC_APB2PeriphClockCmd                 0x08000970   Section        0  hal_rcc.o(i.RCC_APB2PeriphClockCmd)
    i.RCC_APB2PeriphResetCmd                 0x08000990   Section        0  hal_rcc.o(i.RCC_APB2PeriphResetCmd)
    i.RCC_GetClocksFreq                      0x080009b0   Section        0  hal_rcc.o(i.RCC_GetClocksFreq)
    i.SetSysClock                            0x08000aac   Section        0  system_mm32spin2xx_p.o(i.SetSysClock)
    SetSysClock                              0x08000aad   Thumb Code     8  system_mm32spin2xx_p.o(i.SetSysClock)
    i.SetSysClockToXX_HSI                    0x08000ab4   Section        0  system_mm32spin2xx_p.o(i.SetSysClockToXX_HSI)
    SetSysClockToXX_HSI                      0x08000ab5   Thumb Code   276  system_mm32spin2xx_p.o(i.SetSysClockToXX_HSI)
    i.SystemInit                             0x08000be4   Section        0  system_mm32spin2xx_p.o(i.SystemInit)
    i.TI1_Config                             0x08000c50   Section        0  hal_tim.o(i.TI1_Config)
    TI1_Config                               0x08000c51   Thumb Code    56  hal_tim.o(i.TI1_Config)
    i.TI2_Config                             0x08000c8c   Section        0  hal_tim.o(i.TI2_Config)
    TI2_Config                               0x08000c8d   Thumb Code    70  hal_tim.o(i.TI2_Config)
    i.TIM16_IRQHandler                       0x08000cdc   Section        0  isr.o(i.TIM16_IRQHandler)
    i.TIM1_BRK_UP_TRG_COM_IRQHandler         0x08000dac   Section        0  isr.o(i.TIM1_BRK_UP_TRG_COM_IRQHandler)
    i.TIM3_IRQHandler                        0x08000ddc   Section        0  isr.o(i.TIM3_IRQHandler)
    i.TIM_ARRPreloadConfig                   0x08000ea4   Section        0  hal_tim.o(i.TIM_ARRPreloadConfig)
    i.TIM_BDTRConfig                         0x08000ec0   Section        0  hal_tim.o(i.TIM_BDTRConfig)
    i.TIM_BDTRStructInit                     0x08000ede   Section        0  hal_tim.o(i.TIM_BDTRStructInit)
    i.TIM_ClearFlag                          0x08000ef0   Section        0  hal_tim.o(i.TIM_ClearFlag)
    i.TIM_ClearITPendingBit                  0x08000ef8   Section        0  hal_tim.o(i.TIM_ClearITPendingBit)
    i.TIM_Cmd                                0x08000f00   Section        0  hal_tim.o(i.TIM_Cmd)
    i.TIM_DeInit                             0x08000f1c   Section        0  hal_tim.o(i.TIM_DeInit)
    i.TIM_GetFlagStatus                      0x08000fe8   Section        0  hal_tim.o(i.TIM_GetFlagStatus)
    i.TIM_GetITStatus                        0x08000ffc   Section        0  hal_tim.o(i.TIM_GetITStatus)
    i.TIM_ICStructInit                       0x08001022   Section        0  hal_tim.o(i.TIM_ICStructInit)
    i.TIM_ITConfig                           0x08001034   Section        0  hal_tim.o(i.TIM_ITConfig)
    i.TIM_OC1Init                            0x08001048   Section        0  hal_tim.o(i.TIM_OC1Init)
    i.TIM_OC1PreloadConfig                   0x080010e0   Section        0  hal_tim.o(i.TIM_OC1PreloadConfig)
    i.TIM_OC2Init                            0x080010fc   Section        0  hal_tim.o(i.TIM_OC2Init)
    i.TIM_OC2PreloadConfig                   0x080011b4   Section        0  hal_tim.o(i.TIM_OC2PreloadConfig)
    i.TIM_OC3Init                            0x080011d0   Section        0  hal_tim.o(i.TIM_OC3Init)
    i.TIM_OC3PreloadConfig                   0x08001278   Section        0  hal_tim.o(i.TIM_OC3PreloadConfig)
    i.TIM_OC4Init                            0x08001294   Section        0  hal_tim.o(i.TIM_OC4Init)
    i.TIM_OC4PreloadConfig                   0x08001314   Section        0  hal_tim.o(i.TIM_OC4PreloadConfig)
    i.TIM_OCStructInit                       0x08001330   Section        0  hal_tim.o(i.TIM_OCStructInit)
    i.TIM_PWMIConfig                         0x08001344   Section        0  hal_tim.o(i.TIM_PWMIConfig)
    i.TIM_SetIC1Prescaler                    0x080013c0   Section        0  hal_tim.o(i.TIM_SetIC1Prescaler)
    i.TIM_SetIC2Prescaler                    0x080013d4   Section        0  hal_tim.o(i.TIM_SetIC2Prescaler)
    i.TIM_TimeBaseInit                       0x080013ec   Section        0  hal_tim.o(i.TIM_TimeBaseInit)
    i.TIM_TimeBaseStructInit                 0x08001468   Section        0  hal_tim.o(i.TIM_TimeBaseStructInit)
    i.UART_Cmd                               0x0800147c   Section        0  hal_uart.o(i.UART_Cmd)
    i.UART_Init                              0x08001498   Section        0  hal_uart.o(i.UART_Init)
    i.UART_StructInit                        0x08001514   Section        0  hal_uart.o(i.UART_StructInit)
    i.__ARM_common_switch8                   0x0800152e   Section        0  motor.o(i.__ARM_common_switch8)
    i.adc_init                               0x0800154c   Section        0  adc.o(i.adc_init)
    i.adc_read                               0x08001674   Section        0  adc.o(i.adc_read)
    i.closed_loop_pi_init                    0x080016b0   Section        0  pid.o(i.closed_loop_pi_init)
    i.hall_init                              0x080016d4   Section        0  hall.o(i.hall_init)
    i.led_control                            0x080016f8   Section        0  main.o(i.led_control)
    i.led_en_control                         0x08001764   Section        0  gpio.o(i.led_en_control)
    i.led_fault_control                      0x0800177c   Section        0  gpio.o(i.led_fault_control)
    i.led_init                               0x08001794   Section        0  gpio.o(i.led_init)
    i.led_run_control                        0x08001834   Section        0  gpio.o(i.led_run_control)
    i.main                                   0x0800184c   Section        0  main.o(i.main)
    i.motor_brake                            0x08001894   Section        0  motor.o(i.motor_brake)
    i.motor_commutation                      0x080018d8   Section        0  motor.o(i.motor_commutation)
    i.motor_dir_out                          0x08001a8c   Section        0  motor.o(i.motor_dir_out)
    i.motor_duty_out                         0x08001aa4   Section        0  motor.o(i.motor_duty_out)
    i.motor_en                               0x08001ab4   Section        0  motor.o(i.motor_en)
    i.motor_information_out_init             0x08001adc   Section        0  motor.o(i.motor_information_out_init)
    i.motor_power_out                        0x08001b38   Section        0  motor.o(i.motor_power_out)
    i.motor_set_dir                          0x08001b90   Section        0  motor.o(i.motor_set_dir)
    i.motor_speed_curve_init                 0x08001bbc   Section        0  motor.o(i.motor_speed_curve_init)
    i.motor_speed_out                        0x08001bd0   Section        0  motor.o(i.motor_speed_out)
    i.move_filter_calc                       0x08001bfc   Section        0  move_filter.o(i.move_filter_calc)
    i.move_filter_init                       0x08001c60   Section        0  move_filter.o(i.move_filter_init)
    i.opamp_init                             0x08001c9c   Section        0  opamp.o(i.opamp_init)
    i.pwm_dir_get                            0x08001cf8   Section        0  pwm_input.o(i.pwm_dir_get)
    i.pwm_input_init                         0x08001d08   Section        0  pwm_input.o(i.pwm_input_init)
    i.read_hall_value                        0x08001e00   Section        0  hall.o(i.read_hall_value)
    i.scan_hall_status                       0x08001e38   Section        0  hall.o(i.scan_hall_status)
    i.tim1_complementary_pwm                 0x08001f90   Section        0  timer.o(i.tim1_complementary_pwm)
    i.tim3_init                              0x08002144   Section        0  timer.o(i.tim3_init)
    i.uart_init                              0x080021a8   Section        0  uart.o(i.uart_init)
    x$fpl$fmul                               0x08002230   Section      176  fmul.o(x$fpl$fmul)
    .constdata                               0x080022e0   Section       64  fdiv.o(.constdata)
    x$fpl$usenofp                            0x080022e0   Section        0  usenofp.o(x$fpl$usenofp)
    fdiv_tab                                 0x080022e0   Data          64  fdiv.o(.constdata)
    .data                                    0x20000000   Section        1  isr.o(.data)
    last_trigger_status                      0x20000000   Data           1  isr.o(.data)
    .data                                    0x20000004   Section       12  pwm_input.o(.data)
    .data                                    0x20000010   Section        1  motor.o(.data)
    speed_temp                               0x20000010   Data           1  motor.o(.data)
    .data                                    0x20000014   Section       86  hall.o(.data)
    .data                                    0x2000006a   Section       16  hal_rcc.o(.data)
    APBAHBPrescTable                         0x2000006a   Data          16  hal_rcc.o(.data)
    .data                                    0x2000007c   Section       20  system_mm32spin2xx_p.o(.data)
    .bss                                     0x20000090   Section       10  adc.o(.bss)
    .bss                                     0x2000009c   Section       20  motor.o(.bss)
    .bss                                     0x200000b0   Section       36  pid.o(.bss)
    .bss                                     0x200000d4   Section      140  move_filter.o(.bss)
    .bss                                     0x20000160   Section       96  libspace.o(.bss)
    HEAP                                     0x200001c0   Section      512  startup_mm32spin2xx_p.o(HEAP)
    Heap_Mem                                 0x200001c0   Data         512  startup_mm32spin2xx_p.o(HEAP)
    STACK                                    0x200003c0   Section     1024  startup_mm32spin2xx_p.o(STACK)
    Stack_Mem                                0x200003c0   Data        1024  startup_mm32spin2xx_p.o(STACK)
    __initial_sp                             0x200007c0   Data           0  startup_mm32spin2xx_p.o(STACK)

    Global Symbols

    Symbol Name                              Value     Ov Type        Size  Object(Section)

    BuildAttributes$$THM_ISAv3M$S$PE$A:L22$X:L11$S22$IEEE1$IW$USESV6$~STKCKD$USESV7$~SHL$OSPACE$ROPI$EBA8$UX$STANDARDLIB$REQ8$PRES8$EABIv2 0x00000000   Number         0  anon$$obj.o ABSOLUTE
    __ARM_use_no_argv                        0x00000000   Number         0  main.o ABSOLUTE
    __ARM_exceptions_init                     - Undefined Weak Reference
    __alloca_initialize                       - Undefined Weak Reference
    __arm_preinit_                            - Undefined Weak Reference
    __cpp_initialize__aeabi_                  - Undefined Weak Reference
    __cxa_finalize                            - Undefined Weak Reference
    __rt_locale                               - Undefined Weak Reference
    __sigvec_lookup                           - Undefined Weak Reference
    _atexit_init                              - Undefined Weak Reference
    _call_atexit_fns                          - Undefined Weak Reference
    _clock_init                               - Undefined Weak Reference
    _fp_trap_init                             - Undefined Weak Reference
    _fp_trap_shutdown                         - Undefined Weak Reference
    _get_lc_collate                           - Undefined Weak Reference
    _get_lc_ctype                             - Undefined Weak Reference
    _get_lc_monetary                          - Undefined Weak Reference
    _get_lc_numeric                           - Undefined Weak Reference
    _get_lc_time                              - Undefined Weak Reference
    _getenv_init                              - Undefined Weak Reference
    _handle_redirection                       - Undefined Weak Reference
    _init_alloc                               - Undefined Weak Reference
    _init_user_alloc                          - Undefined Weak Reference
    _initio                                   - Undefined Weak Reference
    _rand_init                                - Undefined Weak Reference
    _signal_finish                            - Undefined Weak Reference
    _signal_init                              - Undefined Weak Reference
    _terminate_alloc                          - Undefined Weak Reference
    _terminate_user_alloc                     - Undefined Weak Reference
    _terminateio                              - Undefined Weak Reference
    __Vectors_Size                           0x000000b4   Number         0  startup_mm32spin2xx_p.o ABSOLUTE
    __Vectors                                0x08000000   Data           4  startup_mm32spin2xx_p.o(RESET)
    __Vectors_End                            0x080000b4   Data           0  startup_mm32spin2xx_p.o(RESET)
    __main                                   0x080000b5   Thumb Code     8  __main.o(!!!main)
    __scatterload                            0x080000bd   Thumb Code     0  __scatter.o(!!!scatter)
    __scatterload_rt2                        0x080000bd   Thumb Code    52  __scatter.o(!!!scatter)
    __scatterload_rt2_thumb_only             0x080000bd   Thumb Code     0  __scatter.o(!!!scatter)
    __scatterload_null                       0x080000cd   Thumb Code     0  __scatter.o(!!!scatter)
    __scatterload_copy                       0x080000f9   Thumb Code    26  __scatter_copy.o(!!handler_copy)
    __scatterload_zeroinit                   0x08000115   Thumb Code    28  __scatter_zi.o(!!handler_zi)
    __rt_lib_init                            0x08000131   Thumb Code     0  libinit.o(.ARM.Collect$$libinit$$00000000)
    __rt_lib_init_alloca_1                   0x08000133   Thumb Code     0  libinit2.o(.ARM.Collect$$libinit$$0000002E)
    __rt_lib_init_argv_1                     0x08000133   Thumb Code     0  libinit2.o(.ARM.Collect$$libinit$$0000002C)
    __rt_lib_init_atexit_1                   0x08000133   Thumb Code     0  libinit2.o(.ARM.Collect$$libinit$$0000001B)
    __rt_lib_init_clock_1                    0x08000133   Thumb Code     0  libinit2.o(.ARM.Collect$$libinit$$00000021)
    __rt_lib_init_cpp_1                      0x08000133   Thumb Code     0  libinit2.o(.ARM.Collect$$libinit$$00000032)
    __rt_lib_init_exceptions_1               0x08000133   Thumb Code     0  libinit2.o(.ARM.Collect$$libinit$$00000030)
    __rt_lib_init_fp_1                       0x08000133   Thumb Code     0  libinit2.o(.ARM.Collect$$libinit$$00000002)
    __rt_lib_init_fp_trap_1                  0x08000133   Thumb Code     0  libinit2.o(.ARM.Collect$$libinit$$0000001F)
    __rt_lib_init_getenv_1                   0x08000133   Thumb Code     0  libinit2.o(.ARM.Collect$$libinit$$00000023)
    __rt_lib_init_heap_1                     0x08000133   Thumb Code     0  libinit2.o(.ARM.Collect$$libinit$$0000000A)
    __rt_lib_init_lc_collate_1               0x08000133   Thumb Code     0  libinit2.o(.ARM.Collect$$libinit$$00000011)
    __rt_lib_init_lc_ctype_1                 0x08000133   Thumb Code     0  libinit2.o(.ARM.Collect$$libinit$$00000013)
    __rt_lib_init_lc_monetary_1              0x08000133   Thumb Code     0  libinit2.o(.ARM.Collect$$libinit$$00000015)
    __rt_lib_init_lc_numeric_1               0x08000133   Thumb Code     0  libinit2.o(.ARM.Collect$$libinit$$00000017)
    __rt_lib_init_lc_time_1                  0x08000133   Thumb Code     0  libinit2.o(.ARM.Collect$$libinit$$00000019)
    __rt_lib_init_preinit_1                  0x08000133   Thumb Code     0  libinit2.o(.ARM.Collect$$libinit$$00000004)
    __rt_lib_init_rand_1                     0x08000133   Thumb Code     0  libinit2.o(.ARM.Collect$$libinit$$0000000E)
    __rt_lib_init_return                     0x08000133   Thumb Code     0  libinit2.o(.ARM.Collect$$libinit$$00000033)
    __rt_lib_init_signal_1                   0x08000133   Thumb Code     0  libinit2.o(.ARM.Collect$$libinit$$0000001D)
    __rt_lib_init_stdio_1                    0x08000133   Thumb Code     0  libinit2.o(.ARM.Collect$$libinit$$00000025)
    __rt_lib_init_user_alloc_1               0x08000133   Thumb Code     0  libinit2.o(.ARM.Collect$$libinit$$0000000C)
    __rt_lib_shutdown                        0x08000135   Thumb Code     0  libshutdown.o(.ARM.Collect$$libshutdown$$00000000)
    __rt_lib_shutdown_cpp_1                  0x08000137   Thumb Code     0  libshutdown2.o(.ARM.Collect$$libshutdown$$00000002)
    __rt_lib_shutdown_fp_trap_1              0x08000137   Thumb Code     0  libshutdown2.o(.ARM.Collect$$libshutdown$$00000007)
    __rt_lib_shutdown_heap_1                 0x08000137   Thumb Code     0  libshutdown2.o(.ARM.Collect$$libshutdown$$0000000F)
    __rt_lib_shutdown_return                 0x08000137   Thumb Code     0  libshutdown2.o(.ARM.Collect$$libshutdown$$00000010)
    __rt_lib_shutdown_signal_1               0x08000137   Thumb Code     0  libshutdown2.o(.ARM.Collect$$libshutdown$$0000000A)
    __rt_lib_shutdown_stdio_1                0x08000137   Thumb Code     0  libshutdown2.o(.ARM.Collect$$libshutdown$$00000004)
    __rt_lib_shutdown_user_alloc_1           0x08000137   Thumb Code     0  libshutdown2.o(.ARM.Collect$$libshutdown$$0000000C)
    __rt_entry                               0x08000139   Thumb Code     0  __rtentry.o(.ARM.Collect$$rtentry$$00000000)
    __rt_entry_presh_1                       0x08000139   Thumb Code     0  __rtentry2.o(.ARM.Collect$$rtentry$$00000002)
    __rt_entry_sh                            0x08000139   Thumb Code     0  __rtentry4.o(.ARM.Collect$$rtentry$$00000004)
    __rt_entry_li                            0x0800013f   Thumb Code     0  __rtentry2.o(.ARM.Collect$$rtentry$$0000000A)
    __rt_entry_postsh_1                      0x0800013f   Thumb Code     0  __rtentry2.o(.ARM.Collect$$rtentry$$00000009)
    __rt_entry_main                          0x08000143   Thumb Code     0  __rtentry2.o(.ARM.Collect$$rtentry$$0000000D)
    __rt_entry_postli_1                      0x08000143   Thumb Code     0  __rtentry2.o(.ARM.Collect$$rtentry$$0000000C)
    __rt_exit                                0x0800014b   Thumb Code     0  rtexit.o(.ARM.Collect$$rtexit$$00000000)
    __rt_exit_ls                             0x0800014d   Thumb Code     0  rtexit2.o(.ARM.Collect$$rtexit$$00000003)
    __rt_exit_prels_1                        0x0800014d   Thumb Code     0  rtexit2.o(.ARM.Collect$$rtexit$$00000002)
    __rt_exit_exit                           0x08000151   Thumb Code     0  rtexit2.o(.ARM.Collect$$rtexit$$00000004)
    Reset_Handler                            0x08000159   Thumb Code    50  startup_mm32spin2xx_p.o(.text)
    NMI_Handler                              0x0800018b   Thumb Code     2  startup_mm32spin2xx_p.o(.text)
    HardFault_Handler                        0x0800018d   Thumb Code     2  startup_mm32spin2xx_p.o(.text)
    MemManage_Handler                        0x0800018f   Thumb Code     2  startup_mm32spin2xx_p.o(.text)
    BusFault_Handler                         0x08000191   Thumb Code     2  startup_mm32spin2xx_p.o(.text)
    UsageFault_Handler                       0x08000193   Thumb Code     2  startup_mm32spin2xx_p.o(.text)
    SVC_Handler                              0x08000195   Thumb Code     2  startup_mm32spin2xx_p.o(.text)
    DebugMon_Handler                         0x08000197   Thumb Code     2  startup_mm32spin2xx_p.o(.text)
    PendSV_Handler                           0x08000199   Thumb Code     2  startup_mm32spin2xx_p.o(.text)
    SysTick_Handler                          0x0800019b   Thumb Code     2  startup_mm32spin2xx_p.o(.text)
    ADC2_IRQHandler                          0x0800019d   Thumb Code     0  startup_mm32spin2xx_p.o(.text)
    COMP1_2_3_4_5_IRQHandler                 0x0800019d   Thumb Code     0  startup_mm32spin2xx_p.o(.text)
    DMA1_Channel1_IRQHandler                 0x0800019d   Thumb Code     0  startup_mm32spin2xx_p.o(.text)
    DMA1_Channel2_3_IRQHandler               0x0800019d   Thumb Code     0  startup_mm32spin2xx_p.o(.text)
    DMA1_Channel4_5_IRQHandler               0x0800019d   Thumb Code     0  startup_mm32spin2xx_p.o(.text)
    EXTI0_1_IRQHandler                       0x0800019d   Thumb Code     0  startup_mm32spin2xx_p.o(.text)
    EXTI2_3_IRQHandler                       0x0800019d   Thumb Code     0  startup_mm32spin2xx_p.o(.text)
    EXTI4_15_IRQHandler                      0x0800019d   Thumb Code     0  startup_mm32spin2xx_p.o(.text)
    FLASH_IRQHandler                         0x0800019d   Thumb Code     0  startup_mm32spin2xx_p.o(.text)
    HWDIV_IRQHandler                         0x0800019d   Thumb Code     0  startup_mm32spin2xx_p.o(.text)
    I2C1_IRQHandler                          0x0800019d   Thumb Code     0  startup_mm32spin2xx_p.o(.text)
    PVD_IRQHandler                           0x0800019d   Thumb Code     0  startup_mm32spin2xx_p.o(.text)
    PWM_IRQHandler                           0x0800019d   Thumb Code     0  startup_mm32spin2xx_p.o(.text)
    RCC_IRQHandler                           0x0800019d   Thumb Code     0  startup_mm32spin2xx_p.o(.text)
    SPI1_IRQHandler                          0x0800019d   Thumb Code     0  startup_mm32spin2xx_p.o(.text)
    SPI2_IRQHandler                          0x0800019d   Thumb Code     0  startup_mm32spin2xx_p.o(.text)
    TIM14_IRQHandler                         0x0800019d   Thumb Code     0  startup_mm32spin2xx_p.o(.text)
    TIM17_IRQHandler                         0x0800019d   Thumb Code     0  startup_mm32spin2xx_p.o(.text)
    TIM1_CC_IRQHandler                       0x0800019d   Thumb Code     0  startup_mm32spin2xx_p.o(.text)
    TIM2_IRQHandler                          0x0800019d   Thumb Code     0  startup_mm32spin2xx_p.o(.text)
    TIM8_BRK_UP_TRG_COM_IRQHandler           0x0800019d   Thumb Code     0  startup_mm32spin2xx_p.o(.text)
    TIM8_CC_IRQHandler                       0x0800019d   Thumb Code     0  startup_mm32spin2xx_p.o(.text)
    UART1_IRQHandler                         0x0800019d   Thumb Code     0  startup_mm32spin2xx_p.o(.text)
    UART2_IRQHandler                         0x0800019d   Thumb Code     0  startup_mm32spin2xx_p.o(.text)
    WWDG_IRQHandler                          0x0800019d   Thumb Code     0  startup_mm32spin2xx_p.o(.text)
    __user_initial_stackheap                 0x080001a1   Thumb Code     0  startup_mm32spin2xx_p.o(.text)
    __aeabi_uidiv                            0x080001e9   Thumb Code     0  aeabi_sdiv.o(.text)
    __aeabi_uidivmod                         0x080001e9   Thumb Code    20  aeabi_sdiv.o(.text)
    __aeabi_idiv                             0x080001fd   Thumb Code     0  aeabi_sdiv.o(.text)
    __aeabi_idivmod                          0x080001fd   Thumb Code   326  aeabi_sdiv.o(.text)
    __use_two_region_memory                  0x08000343   Thumb Code     2  heapauxi.o(.text)
    __rt_heap_escrow$2region                 0x08000345   Thumb Code     2  heapauxi.o(.text)
    __rt_heap_expand$2region                 0x08000347   Thumb Code     2  heapauxi.o(.text)
    __aeabi_fdiv                             0x08000349   Thumb Code     0  fdiv.o(.text)
    _fdiv                                    0x08000349   Thumb Code   334  fdiv.o(.text)
    _frdiv                                   0x08000497   Thumb Code     8  fdiv.o(.text)
    __aeabi_f2iz                             0x080004a9   Thumb Code     0  ffixi.o(.text)
    _ffix                                    0x080004a9   Thumb Code    76  ffixi.o(.text)
    __aeabi_i2f_normalise                    0x080004f5   Thumb Code    72  fflti.o(.text)
    __aeabi_i2f                              0x0800053d   Thumb Code    16  fflti.o(.text)
    _fflt                                    0x0800053d   Thumb Code     0  fflti.o(.text)
    __aeabi_ui2f                             0x0800054d   Thumb Code     6  fflti.o(.text)
    _ffltu                                   0x0800054d   Thumb Code     0  fflti.o(.text)
    __user_setup_stackheap                   0x08000553   Thumb Code    62  sys_stackheap_outer.o(.text)
    exit                                     0x08000591   Thumb Code    16  exit.o(.text)
    __user_libspace                          0x080005a1   Thumb Code     8  libspace.o(.text)
    __user_perproc_libspace                  0x080005a1   Thumb Code     0  libspace.o(.text)
    __user_perthread_libspace                0x080005a1   Thumb Code     0  libspace.o(.text)
    _sys_exit                                0x080005a9   Thumb Code     8  sys_exit.o(.text)
    __I$use$semihosting                      0x080005b5   Thumb Code     0  use_no_semi.o(.text)
    __use_no_semihosting_swi                 0x080005b5   Thumb Code     2  use_no_semi.o(.text)
    __semihosting_library_function           0x080005b7   Thumb Code     0  indicate_semi.o(.text)
    ADC1_IRQHandler                          0x080005b9   Thumb Code    50  isr.o(i.ADC1_IRQHandler)
    ADC_ClearFlag                            0x080005f9   Thumb Code     8  hal_adc.o(i.ADC_ClearFlag)
    ADC_Cmd                                  0x08000601   Thumb Code    24  hal_adc.o(i.ADC_Cmd)
    ADC_ExternalTrigConvCmd                  0x08000619   Thumb Code    24  hal_adc.o(i.ADC_ExternalTrigConvCmd)
    ADC_ITConfig                             0x08000631   Thumb Code    20  hal_adc.o(i.ADC_ITConfig)
    ADC_Init                                 0x08000645   Thumb Code    44  hal_adc.o(i.ADC_Init)
    ADC_RegularChannelConfig                 0x08000675   Thumb Code    68  hal_adc.o(i.ADC_RegularChannelConfig)
    ADC_StructInit                           0x080006bd   Thumb Code    14  hal_adc.o(i.ADC_StructInit)
    AutoCalPllFactor                         0x080006cb   Thumb Code   106  system_mm32spin2xx_p.o(i.AutoCalPllFactor)
    GPIO_Init                                0x08000735   Thumb Code   222  hal_gpio.o(i.GPIO_Init)
    GPIO_PinAFConfig                         0x08000813   Thumb Code    70  hal_gpio.o(i.GPIO_PinAFConfig)
    GPIO_ReadInputDataBit                    0x08000859   Thumb Code    20  hal_gpio.o(i.GPIO_ReadInputDataBit)
    GPIO_ResetBits                           0x0800086d   Thumb Code     4  hal_gpio.o(i.GPIO_ResetBits)
    GPIO_SetBits                             0x08000871   Thumb Code     4  hal_gpio.o(i.GPIO_SetBits)
    GPIO_WriteBit                            0x08000875   Thumb Code    12  hal_gpio.o(i.GPIO_WriteBit)
    NVIC_Init                                0x08000881   Thumb Code   106  hal_misc.o(i.NVIC_Init)
    OPAMP_Configure                          0x080008f1   Thumb Code    28  hal_op.o(i.OPAMP_Configure)
    RCC_AHBPeriphClockCmd                    0x08000911   Thumb Code    28  hal_rcc.o(i.RCC_AHBPeriphClockCmd)
    RCC_APB1PeriphClockCmd                   0x08000931   Thumb Code    28  hal_rcc.o(i.RCC_APB1PeriphClockCmd)
    RCC_APB1PeriphResetCmd                   0x08000951   Thumb Code    28  hal_rcc.o(i.RCC_APB1PeriphResetCmd)
    RCC_APB2PeriphClockCmd                   0x08000971   Thumb Code    28  hal_rcc.o(i.RCC_APB2PeriphClockCmd)
    RCC_APB2PeriphResetCmd                   0x08000991   Thumb Code    28  hal_rcc.o(i.RCC_APB2PeriphResetCmd)
    RCC_GetClocksFreq                        0x080009b1   Thumb Code   226  hal_rcc.o(i.RCC_GetClocksFreq)
    SystemInit                               0x08000be5   Thumb Code    96  system_mm32spin2xx_p.o(i.SystemInit)
    TIM16_IRQHandler                         0x08000cdd   Thumb Code   184  isr.o(i.TIM16_IRQHandler)
    TIM1_BRK_UP_TRG_COM_IRQHandler           0x08000dad   Thumb Code    44  isr.o(i.TIM1_BRK_UP_TRG_COM_IRQHandler)
    TIM3_IRQHandler                          0x08000ddd   Thumb Code   170  isr.o(i.TIM3_IRQHandler)
    TIM_ARRPreloadConfig                     0x08000ea5   Thumb Code    24  hal_tim.o(i.TIM_ARRPreloadConfig)
    TIM_BDTRConfig                           0x08000ec1   Thumb Code    30  hal_tim.o(i.TIM_BDTRConfig)
    TIM_BDTRStructInit                       0x08000edf   Thumb Code    18  hal_tim.o(i.TIM_BDTRStructInit)
    TIM_ClearFlag                            0x08000ef1   Thumb Code     8  hal_tim.o(i.TIM_ClearFlag)
    TIM_ClearITPendingBit                    0x08000ef9   Thumb Code     6  hal_tim.o(i.TIM_ClearITPendingBit)
    TIM_Cmd                                  0x08000f01   Thumb Code    24  hal_tim.o(i.TIM_Cmd)
    TIM_DeInit                               0x08000f1d   Thumb Code   180  hal_tim.o(i.TIM_DeInit)
    TIM_GetFlagStatus                        0x08000fe9   Thumb Code    20  hal_tim.o(i.TIM_GetFlagStatus)
    TIM_GetITStatus                          0x08000ffd   Thumb Code    38  hal_tim.o(i.TIM_GetITStatus)
    TIM_ICStructInit                         0x08001023   Thumb Code    18  hal_tim.o(i.TIM_ICStructInit)
    TIM_ITConfig                             0x08001035   Thumb Code    20  hal_tim.o(i.TIM_ITConfig)
    TIM_OC1Init                              0x08001049   Thumb Code   128  hal_tim.o(i.TIM_OC1Init)
    TIM_OC1PreloadConfig                     0x080010e1   Thumb Code    22  hal_tim.o(i.TIM_OC1PreloadConfig)
    TIM_OC2Init                              0x080010fd   Thumb Code   154  hal_tim.o(i.TIM_OC2Init)
    TIM_OC2PreloadConfig                     0x080011b5   Thumb Code    22  hal_tim.o(i.TIM_OC2PreloadConfig)
    TIM_OC3Init                              0x080011d1   Thumb Code   136  hal_tim.o(i.TIM_OC3Init)
    TIM_OC3PreloadConfig                     0x08001279   Thumb Code    22  hal_tim.o(i.TIM_OC3PreloadConfig)
    TIM_OC4Init                              0x08001295   Thumb Code   100  hal_tim.o(i.TIM_OC4Init)
    TIM_OC4PreloadConfig                     0x08001315   Thumb Code    22  hal_tim.o(i.TIM_OC4PreloadConfig)
    TIM_OCStructInit                         0x08001331   Thumb Code    20  hal_tim.o(i.TIM_OCStructInit)
    TIM_PWMIConfig                           0x08001345   Thumb Code   124  hal_tim.o(i.TIM_PWMIConfig)
    TIM_SetIC1Prescaler                      0x080013c1   Thumb Code    16  hal_tim.o(i.TIM_SetIC1Prescaler)
    TIM_SetIC2Prescaler                      0x080013d5   Thumb Code    20  hal_tim.o(i.TIM_SetIC2Prescaler)
    TIM_TimeBaseInit                         0x080013ed   Thumb Code    96  hal_tim.o(i.TIM_TimeBaseInit)
    TIM_TimeBaseStructInit                   0x08001469   Thumb Code    16  hal_tim.o(i.TIM_TimeBaseStructInit)
    UART_Cmd                                 0x0800147d   Thumb Code    24  hal_uart.o(i.UART_Cmd)
    UART_Init                                0x08001499   Thumb Code   118  hal_uart.o(i.UART_Init)
    UART_StructInit                          0x08001515   Thumb Code    26  hal_uart.o(i.UART_StructInit)
    __ARM_common_switch8                     0x0800152f   Thumb Code    28  motor.o(i.__ARM_common_switch8)
    adc_init                                 0x0800154d   Thumb Code   278  adc.o(i.adc_init)
    adc_read                                 0x08001675   Thumb Code    48  adc.o(i.adc_read)
    closed_loop_pi_init                      0x080016b1   Thumb Code    24  pid.o(i.closed_loop_pi_init)
    hall_init                                0x080016d5   Thumb Code    36  hall.o(i.hall_init)
    led_control                              0x080016f9   Thumb Code    94  main.o(i.led_control)
    led_en_control                           0x08001765   Thumb Code    18  gpio.o(i.led_en_control)
    led_fault_control                        0x0800177d   Thumb Code    18  gpio.o(i.led_fault_control)
    led_init                                 0x08001795   Thumb Code   150  gpio.o(i.led_init)
    led_run_control                          0x08001835   Thumb Code    18  gpio.o(i.led_run_control)
    main                                     0x0800184d   Thumb Code    64  main.o(i.main)
    motor_brake                              0x08001895   Thumb Code    54  motor.o(i.motor_brake)
    motor_commutation                        0x080018d9   Thumb Code   410  motor.o(i.motor_commutation)
    motor_dir_out                            0x08001a8d   Thumb Code    16  motor.o(i.motor_dir_out)
    motor_duty_out                           0x08001aa5   Thumb Code    10  motor.o(i.motor_duty_out)
    motor_en                                 0x08001ab5   Thumb Code    32  motor.o(i.motor_en)
    motor_information_out_init               0x08001add   Thumb Code    82  motor.o(i.motor_information_out_init)
    motor_power_out                          0x08001b39   Thumb Code    80  motor.o(i.motor_power_out)
    motor_set_dir                            0x08001b91   Thumb Code    36  motor.o(i.motor_set_dir)
    motor_speed_curve_init                   0x08001bbd   Thumb Code    14  motor.o(i.motor_speed_curve_init)
    motor_speed_out                          0x08001bd1   Thumb Code    38  motor.o(i.motor_speed_out)
    move_filter_calc                         0x08001bfd   Thumb Code    96  move_filter.o(i.move_filter_calc)
    move_filter_init                         0x08001c61   Thumb Code    54  move_filter.o(i.move_filter_init)
    opamp_init                               0x08001c9d   Thumb Code    84  opamp.o(i.opamp_init)
    pwm_dir_get                              0x08001cf9   Thumb Code    16  pwm_input.o(i.pwm_dir_get)
    pwm_input_init                           0x08001d09   Thumb Code   230  pwm_input.o(i.pwm_input_init)
    read_hall_value                          0x08001e01   Thumb Code    52  hall.o(i.read_hall_value)
    scan_hall_status                         0x08001e39   Thumb Code   284  hall.o(i.scan_hall_status)
    tim1_complementary_pwm                   0x08001f91   Thumb Code   426  timer.o(i.tim1_complementary_pwm)
    tim3_init                                0x08002145   Thumb Code    96  timer.o(i.tim3_init)
    uart_init                                0x080021a9   Thumb Code   128  uart.o(i.uart_init)
    __aeabi_fmul                             0x08002231   Thumb Code     0  fmul.o(x$fpl$fmul)
    _fmul                                    0x08002231   Thumb Code   172  fmul.o(x$fpl$fmul)
    __I$use$fp                               0x080022e0   Number         0  usenofp.o(x$fpl$usenofp)
    Region$$Table$$Base                      0x08002320   Number         0  anon$$obj.o(Region$$Table)
    Region$$Table$$Limit                     0x08002340   Number         0  anon$$obj.o(Region$$Table)
    duty_cycle                               0x20000004   Data           4  pwm_input.o(.data)
    duty_flag                                0x20000008   Data           1  pwm_input.o(.data)
    period                                   0x2000000a   Data           2  pwm_input.o(.data)
    duty_low                                 0x2000000c   Data           2  pwm_input.o(.data)
    duty_high                                0x2000000e   Data           2  pwm_input.o(.data)
    hall_value_now                           0x20000014   Data           1  hall.o(.data)
    hall_value_last                          0x20000015   Data           1  hall.o(.data)
    next_hall_value                          0x20000016   Data           1  hall.o(.data)
    hall_steps_normal                        0x20000017   Data          24  hall.o(.data)
    hall_steps_advance                       0x2000002f   Data          24  hall.o(.data)
    hall_steps_break                         0x20000047   Data           8  hall.o(.data)
    hall_index                               0x2000004f   Data           1  hall.o(.data)
    commutation_time_save                    0x20000050   Data          12  hall.o(.data)
    commutation_time_sum                     0x2000005c   Data           4  hall.o(.data)
    commutation_time                         0x20000060   Data           2  hall.o(.data)
    commutation_delay                        0x20000064   Data           4  hall.o(.data)
    commutation_delay_ratio                  0x20000068   Data           2  hall.o(.data)
    SystemCoreClock                          0x2000007c   Data           4  system_mm32spin2xx_p.o(.data)
    AHBPrescTable                            0x20000080   Data          16  system_mm32spin2xx_p.o(.data)
    adc_information                          0x20000090   Data          10  adc.o(.bss)
    motor_control                            0x2000009c   Data          20  motor.o(.bss)
    closed_loop                              0x200000b0   Data          36  pid.o(.bss)
    speed_filter                             0x200000d4   Data         140  move_filter.o(.bss)
    __libspace_start                         0x20000160   Data          96  libspace.o(.bss)
    __temporary_stack_top$libspace           0x200001c0   Data           0  libspace.o(.bss)



==============================================================================

Memory Map of the image

  Image Entry point : 0x080000b5

  Load Region LR_IROM1 (Base: 0x08000000, Size: 0x000023d0, Max: 0x00020000, ABSOLUTE)

    Execution Region ER_IROM1 (Exec base: 0x08000000, Load base: 0x08000000, Size: 0x00002340, Max: 0x00020000, ABSOLUTE)

    Exec Addr    Load Addr    Size         Type   Attr      Idx    E Section Name        Object

    0x08000000   0x08000000   0x000000b4   Data   RO         2886    RESET               startup_mm32spin2xx_p.o
    0x080000b4   0x080000b4   0x00000008   Code   RO         2899  * !!!main             c_p.l(__main.o)
    0x080000bc   0x080000bc   0x0000003c   Code   RO         3096    !!!scatter          c_p.l(__scatter.o)
    0x080000f8   0x080000f8   0x0000001a   Code   RO         3098    !!handler_copy      c_p.l(__scatter_copy.o)
    0x08000112   0x08000112   0x00000002   PAD
    0x08000114   0x08000114   0x0000001c   Code   RO         3100    !!handler_zi        c_p.l(__scatter_zi.o)
    0x08000130   0x08000130   0x00000002   Code   RO         2963    .ARM.Collect$$libinit$$00000000  c_p.l(libinit.o)
    0x08000132   0x08000132   0x00000000   Code   RO         2979    .ARM.Collect$$libinit$$00000002  c_p.l(libinit2.o)
    0x08000132   0x08000132   0x00000000   Code   RO         2981    .ARM.Collect$$libinit$$00000004  c_p.l(libinit2.o)
    0x08000132   0x08000132   0x00000000   Code   RO         2984    .ARM.Collect$$libinit$$0000000A  c_p.l(libinit2.o)
    0x08000132   0x08000132   0x00000000   Code   RO         2986    .ARM.Collect$$libinit$$0000000C  c_p.l(libinit2.o)
    0x08000132   0x08000132   0x00000000   Code   RO         2988    .ARM.Collect$$libinit$$0000000E  c_p.l(libinit2.o)
    0x08000132   0x08000132   0x00000000   Code   RO         2991    .ARM.Collect$$libinit$$00000011  c_p.l(libinit2.o)
    0x08000132   0x08000132   0x00000000   Code   RO         2993    .ARM.Collect$$libinit$$00000013  c_p.l(libinit2.o)
    0x08000132   0x08000132   0x00000000   Code   RO         2995    .ARM.Collect$$libinit$$00000015  c_p.l(libinit2.o)
    0x08000132   0x08000132   0x00000000   Code   RO         2997    .ARM.Collect$$libinit$$00000017  c_p.l(libinit2.o)
    0x08000132   0x08000132   0x00000000   Code   RO         2999    .ARM.Collect$$libinit$$00000019  c_p.l(libinit2.o)
    0x08000132   0x08000132   0x00000000   Code   RO         3001    .ARM.Collect$$libinit$$0000001B  c_p.l(libinit2.o)
    0x08000132   0x08000132   0x00000000   Code   RO         3003    .ARM.Collect$$libinit$$0000001D  c_p.l(libinit2.o)
    0x08000132   0x08000132   0x00000000   Code   RO         3005    .ARM.Collect$$libinit$$0000001F  c_p.l(libinit2.o)
    0x08000132   0x08000132   0x00000000   Code   RO         3007    .ARM.Collect$$libinit$$00000021  c_p.l(libinit2.o)
    0x08000132   0x08000132   0x00000000   Code   RO         3009    .ARM.Collect$$libinit$$00000023  c_p.l(libinit2.o)
    0x08000132   0x08000132   0x00000000   Code   RO         3011    .ARM.Collect$$libinit$$00000025  c_p.l(libinit2.o)
    0x08000132   0x08000132   0x00000000   Code   RO         3015    .ARM.Collect$$libinit$$0000002C  c_p.l(libinit2.o)
    0x08000132   0x08000132   0x00000000   Code   RO         3017    .ARM.Collect$$libinit$$0000002E  c_p.l(libinit2.o)
    0x08000132   0x08000132   0x00000000   Code   RO         3019    .ARM.Collect$$libinit$$00000030  c_p.l(libinit2.o)
    0x08000132   0x08000132   0x00000000   Code   RO         3021    .ARM.Collect$$libinit$$00000032  c_p.l(libinit2.o)
    0x08000132   0x08000132   0x00000002   Code   RO         3022    .ARM.Collect$$libinit$$00000033  c_p.l(libinit2.o)
    0x08000134   0x08000134   0x00000002   Code   RO         3053    .ARM.Collect$$libshutdown$$00000000  c_p.l(libshutdown.o)
    0x08000136   0x08000136   0x00000000   Code   RO         3079    .ARM.Collect$$libshutdown$$00000002  c_p.l(libshutdown2.o)
    0x08000136   0x08000136   0x00000000   Code   RO         3081    .ARM.Collect$$libshutdown$$00000004  c_p.l(libshutdown2.o)
    0x08000136   0x08000136   0x00000000   Code   RO         3084    .ARM.Collect$$libshutdown$$00000007  c_p.l(libshutdown2.o)
    0x08000136   0x08000136   0x00000000   Code   RO         3087    .ARM.Collect$$libshutdown$$0000000A  c_p.l(libshutdown2.o)
    0x08000136   0x08000136   0x00000000   Code   RO         3089    .ARM.Collect$$libshutdown$$0000000C  c_p.l(libshutdown2.o)
    0x08000136   0x08000136   0x00000000   Code   RO         3092    .ARM.Collect$$libshutdown$$0000000F  c_p.l(libshutdown2.o)
    0x08000136   0x08000136   0x00000002   Code   RO         3093    .ARM.Collect$$libshutdown$$00000010  c_p.l(libshutdown2.o)
    0x08000138   0x08000138   0x00000000   Code   RO         2920    .ARM.Collect$$rtentry$$00000000  c_p.l(__rtentry.o)
    0x08000138   0x08000138   0x00000000   Code   RO         2929    .ARM.Collect$$rtentry$$00000002  c_p.l(__rtentry2.o)
    0x08000138   0x08000138   0x00000006   Code   RO         2941    .ARM.Collect$$rtentry$$00000004  c_p.l(__rtentry4.o)
    0x0800013e   0x0800013e   0x00000000   Code   RO         2931    .ARM.Collect$$rtentry$$00000009  c_p.l(__rtentry2.o)
    0x0800013e   0x0800013e   0x00000004   Code   RO         2932    .ARM.Collect$$rtentry$$0000000A  c_p.l(__rtentry2.o)
    0x08000142   0x08000142   0x00000000   Code   RO         2934    .ARM.Collect$$rtentry$$0000000C  c_p.l(__rtentry2.o)
    0x08000142   0x08000142   0x00000008   Code   RO         2935    .ARM.Collect$$rtentry$$0000000D  c_p.l(__rtentry2.o)
    0x0800014a   0x0800014a   0x00000002   Code   RO         2970    .ARM.Collect$$rtexit$$00000000  c_p.l(rtexit.o)
    0x0800014c   0x0800014c   0x00000000   Code   RO         3026    .ARM.Collect$$rtexit$$00000002  c_p.l(rtexit2.o)
    0x0800014c   0x0800014c   0x00000004   Code   RO         3027    .ARM.Collect$$rtexit$$00000003  c_p.l(rtexit2.o)
    0x08000150   0x08000150   0x00000006   Code   RO         3028    .ARM.Collect$$rtexit$$00000004  c_p.l(rtexit2.o)
    0x08000156   0x08000156   0x00000002   PAD
    0x08000158   0x08000158   0x00000090   Code   RO         2887    .text               startup_mm32spin2xx_p.o
    0x080001e8   0x080001e8   0x0000015a   Code   RO         2893    .text               c_p.l(aeabi_sdiv.o)
    0x08000342   0x08000342   0x00000006   Code   RO         2897    .text               c_p.l(heapauxi.o)
    0x08000348   0x08000348   0x00000160   Code   RO         2907    .text               fz_ps.l(fdiv.o)
    0x080004a8   0x080004a8   0x0000004c   Code   RO         2910    .text               fz_ps.l(ffixi.o)
    0x080004f4   0x080004f4   0x0000005e   Code   RO         2912    .text               fz_ps.l(fflti.o)
    0x08000552   0x08000552   0x0000003e   Code   RO         2949    .text               c_p.l(sys_stackheap_outer.o)
    0x08000590   0x08000590   0x00000010   Code   RO         2952    .text               c_p.l(exit.o)
    0x080005a0   0x080005a0   0x00000008   Code   RO         2966    .text               c_p.l(libspace.o)
    0x080005a8   0x080005a8   0x0000000c   Code   RO         3023    .text               c_p.l(sys_exit.o)
    0x080005b4   0x080005b4   0x00000002   Code   RO         3042    .text               c_p.l(use_no_semi.o)
    0x080005b6   0x080005b6   0x00000000   Code   RO         3044    .text               c_p.l(indicate_semi.o)
    0x080005b6   0x080005b6   0x00000002   PAD
    0x080005b8   0x080005b8   0x00000040   Code   RO          160    i.ADC1_IRQHandler   isr.o
    0x080005f8   0x080005f8   0x00000008   Code   RO          643    i.ADC_ClearFlag     hal_adc.o
    0x08000600   0x08000600   0x00000018   Code   RO          645    i.ADC_Cmd           hal_adc.o
    0x08000618   0x08000618   0x00000018   Code   RO          648    i.ADC_ExternalTrigConvCmd  hal_adc.o
    0x08000630   0x08000630   0x00000014   Code   RO          654    i.ADC_ITConfig      hal_adc.o
    0x08000644   0x08000644   0x00000030   Code   RO          655    i.ADC_Init          hal_adc.o
    0x08000674   0x08000674   0x00000048   Code   RO          656    i.ADC_RegularChannelConfig  hal_adc.o
    0x080006bc   0x080006bc   0x0000000e   Code   RO          659    i.ADC_StructInit    hal_adc.o
    0x080006ca   0x080006ca   0x0000006a   Code   RO         2844    i.AutoCalPllFactor  system_mm32spin2xx_p.o
    0x08000734   0x08000734   0x000000de   Code   RO         1224    i.GPIO_Init         hal_gpio.o
    0x08000812   0x08000812   0x00000046   Code   RO         1225    i.GPIO_PinAFConfig  hal_gpio.o
    0x08000858   0x08000858   0x00000014   Code   RO         1228    i.GPIO_ReadInputDataBit  hal_gpio.o
    0x0800086c   0x0800086c   0x00000004   Code   RO         1231    i.GPIO_ResetBits    hal_gpio.o
    0x08000870   0x08000870   0x00000004   Code   RO         1232    i.GPIO_SetBits      hal_gpio.o
    0x08000874   0x08000874   0x0000000c   Code   RO         1235    i.GPIO_WriteBit     hal_gpio.o
    0x08000880   0x08000880   0x00000070   Code   RO         1544    i.NVIC_Init         hal_misc.o
    0x080008f0   0x080008f0   0x00000020   Code   RO         1582    i.OPAMP_Configure   hal_op.o
    0x08000910   0x08000910   0x00000020   Code   RO         1676    i.RCC_AHBPeriphClockCmd  hal_rcc.o
    0x08000930   0x08000930   0x00000020   Code   RO         1677    i.RCC_APB1PeriphClockCmd  hal_rcc.o
    0x08000950   0x08000950   0x00000020   Code   RO         1678    i.RCC_APB1PeriphResetCmd  hal_rcc.o
    0x08000970   0x08000970   0x00000020   Code   RO         1679    i.RCC_APB2PeriphClockCmd  hal_rcc.o
    0x08000990   0x08000990   0x00000020   Code   RO         1680    i.RCC_APB2PeriphResetCmd  hal_rcc.o
    0x080009b0   0x080009b0   0x000000fc   Code   RO         1686    i.RCC_GetClocksFreq  hal_rcc.o
    0x08000aac   0x08000aac   0x00000008   Code   RO         2845    i.SetSysClock       system_mm32spin2xx_p.o
    0x08000ab4   0x08000ab4   0x00000130   Code   RO         2846    i.SetSysClockToXX_HSI  system_mm32spin2xx_p.o
    0x08000be4   0x08000be4   0x0000006c   Code   RO         2847    i.SystemInit        system_mm32spin2xx_p.o
    0x08000c50   0x08000c50   0x0000003c   Code   RO         2014    i.TI1_Config        hal_tim.o
    0x08000c8c   0x08000c8c   0x00000050   Code   RO         2015    i.TI2_Config        hal_tim.o
    0x08000cdc   0x08000cdc   0x000000d0   Code   RO          162    i.TIM16_IRQHandler  isr.o
    0x08000dac   0x08000dac   0x00000030   Code   RO          163    i.TIM1_BRK_UP_TRG_COM_IRQHandler  isr.o
    0x08000ddc   0x08000ddc   0x000000c8   Code   RO          164    i.TIM3_IRQHandler   isr.o
    0x08000ea4   0x08000ea4   0x0000001c   Code   RO         2018    i.TIM_ARRPreloadConfig  hal_tim.o
    0x08000ec0   0x08000ec0   0x0000001e   Code   RO         2019    i.TIM_BDTRConfig    hal_tim.o
    0x08000ede   0x08000ede   0x00000012   Code   RO         2020    i.TIM_BDTRStructInit  hal_tim.o
    0x08000ef0   0x08000ef0   0x00000008   Code   RO         2024    i.TIM_ClearFlag     hal_tim.o
    0x08000ef8   0x08000ef8   0x00000006   Code   RO         2025    i.TIM_ClearITPendingBit  hal_tim.o
    0x08000efe   0x08000efe   0x00000002   PAD
    0x08000f00   0x08000f00   0x0000001c   Code   RO         2031    i.TIM_Cmd           hal_tim.o
    0x08000f1c   0x08000f1c   0x000000cc   Code   RO         2036    i.TIM_DeInit        hal_tim.o
    0x08000fe8   0x08000fe8   0x00000014   Code   RO         2052    i.TIM_GetFlagStatus  hal_tim.o
    0x08000ffc   0x08000ffc   0x00000026   Code   RO         2053    i.TIM_GetITStatus   hal_tim.o
    0x08001022   0x08001022   0x00000012   Code   RO         2056    i.TIM_ICStructInit  hal_tim.o
    0x08001034   0x08001034   0x00000014   Code   RO         2057    i.TIM_ITConfig      hal_tim.o
    0x08001048   0x08001048   0x00000098   Code   RO         2062    i.TIM_OC1Init       hal_tim.o
    0x080010e0   0x080010e0   0x0000001c   Code   RO         2065    i.TIM_OC1PreloadConfig  hal_tim.o
    0x080010fc   0x080010fc   0x000000b8   Code   RO         2067    i.TIM_OC2Init       hal_tim.o
    0x080011b4   0x080011b4   0x0000001c   Code   RO         2070    i.TIM_OC2PreloadConfig  hal_tim.o
    0x080011d0   0x080011d0   0x000000a8   Code   RO         2072    i.TIM_OC3Init       hal_tim.o
    0x08001278   0x08001278   0x0000001c   Code   RO         2075    i.TIM_OC3PreloadConfig  hal_tim.o
    0x08001294   0x08001294   0x00000080   Code   RO         2077    i.TIM_OC4Init       hal_tim.o
    0x08001314   0x08001314   0x0000001c   Code   RO         2079    i.TIM_OC4PreloadConfig  hal_tim.o
    0x08001330   0x08001330   0x00000014   Code   RO         2084    i.TIM_OCStructInit  hal_tim.o
    0x08001344   0x08001344   0x0000007c   Code   RO         2085    i.TIM_PWMIConfig    hal_tim.o
    0x080013c0   0x080013c0   0x00000014   Code   RO         2104    i.TIM_SetIC1Prescaler  hal_tim.o
    0x080013d4   0x080013d4   0x00000018   Code   RO         2105    i.TIM_SetIC2Prescaler  hal_tim.o
    0x080013ec   0x080013ec   0x0000007c   Code   RO         2109    i.TIM_TimeBaseInit  hal_tim.o
    0x08001468   0x08001468   0x00000014   Code   RO         2110    i.TIM_TimeBaseStructInit  hal_tim.o
    0x0800147c   0x0800147c   0x0000001c   Code   RO         2620    i.UART_Cmd          hal_uart.o
    0x08001498   0x08001498   0x0000007c   Code   RO         2628    i.UART_Init         hal_uart.o
    0x08001514   0x08001514   0x0000001a   Code   RO         2641    i.UART_StructInit   hal_uart.o
    0x0800152e   0x0800152e   0x0000001c   Code   RO          511    i.__ARM_common_switch8  motor.o
    0x0800154a   0x0800154a   0x00000002   PAD
    0x0800154c   0x0800154c   0x00000128   Code   RO          211    i.adc_init          adc.o
    0x08001674   0x08001674   0x0000003c   Code   RO          212    i.adc_read          adc.o
    0x080016b0   0x080016b0   0x00000024   Code   RO          520    i.closed_loop_pi_init  pid.o
    0x080016d4   0x080016d4   0x00000024   Code   RO          551    i.hall_init         hall.o
    0x080016f8   0x080016f8   0x0000006c   Code   RO            3    i.led_control       main.o
    0x08001764   0x08001764   0x00000018   Code   RO          269    i.led_en_control    gpio.o
    0x0800177c   0x0800177c   0x00000018   Code   RO          270    i.led_fault_control  gpio.o
    0x08001794   0x08001794   0x000000a0   Code   RO          271    i.led_init          gpio.o
    0x08001834   0x08001834   0x00000018   Code   RO          272    i.led_run_control   gpio.o
    0x0800184c   0x0800184c   0x00000048   Code   RO            4    i.main              main.o
    0x08001894   0x08001894   0x00000044   Code   RO          432    i.motor_brake       motor.o
    0x080018d8   0x080018d8   0x000001b4   Code   RO          433    i.motor_commutation  motor.o
    0x08001a8c   0x08001a8c   0x00000018   Code   RO          434    i.motor_dir_out     motor.o
    0x08001aa4   0x08001aa4   0x00000010   Code   RO          435    i.motor_duty_out    motor.o
    0x08001ab4   0x08001ab4   0x00000028   Code   RO          436    i.motor_en          motor.o
    0x08001adc   0x08001adc   0x0000005c   Code   RO          437    i.motor_information_out_init  motor.o
    0x08001b38   0x08001b38   0x00000058   Code   RO          438    i.motor_power_out   motor.o
    0x08001b90   0x08001b90   0x0000002c   Code   RO          439    i.motor_set_dir     motor.o
    0x08001bbc   0x08001bbc   0x00000014   Code   RO          441    i.motor_speed_curve_init  motor.o
    0x08001bd0   0x08001bd0   0x0000002c   Code   RO          442    i.motor_speed_out   motor.o
    0x08001bfc   0x08001bfc   0x00000064   Code   RO          590    i.move_filter_calc  move_filter.o
    0x08001c60   0x08001c60   0x0000003c   Code   RO          591    i.move_filter_init  move_filter.o
    0x08001c9c   0x08001c9c   0x0000005c   Code   RO          307    i.opamp_init        opamp.o
    0x08001cf8   0x08001cf8   0x00000010   Code   RO          327    i.pwm_dir_get       pwm_input.o
    0x08001d08   0x08001d08   0x000000f8   Code   RO          328    i.pwm_input_init    pwm_input.o
    0x08001e00   0x08001e00   0x00000038   Code   RO          552    i.read_hall_value   hall.o
    0x08001e38   0x08001e38   0x00000158   Code   RO          553    i.scan_hall_status  hall.o
    0x08001f90   0x08001f90   0x000001b4   Code   RO          362    i.tim1_complementary_pwm  timer.o
    0x08002144   0x08002144   0x00000064   Code   RO          364    i.tim3_init         timer.o
    0x080021a8   0x080021a8   0x00000088   Code   RO          394    i.uart_init         uart.o
    0x08002230   0x08002230   0x000000b0   Code   RO         2916    x$fpl$fmul          fz_ps.l(fmul.o)
    0x080022e0   0x080022e0   0x00000000   Code   RO         2927    x$fpl$usenofp       fz_ps.l(usenofp.o)
    0x080022e0   0x080022e0   0x00000040   Data   RO         2908    .constdata          fz_ps.l(fdiv.o)
    0x08002320   0x08002320   0x00000020   Data   RO         3094    Region$$Table       anon$$obj.o


    Execution Region RW_IRAM1 (Exec base: 0x20000000, Load base: 0x08002340, Size: 0x000007c0, Max: 0x00002000, ABSOLUTE)

    Exec Addr    Load Addr    Size         Type   Attr      Idx    E Section Name        Object

    0x20000000   0x08002340   0x00000001   Data   RW          165    .data               isr.o
    0x20000001   0x08002341   0x00000003   PAD
    0x20000004   0x08002344   0x0000000c   Data   RW          329    .data               pwm_input.o
    0x20000010   0x08002350   0x00000001   Data   RW          444    .data               motor.o
    0x20000011   0x08002351   0x00000003   PAD
    0x20000014   0x08002354   0x00000056   Data   RW          554    .data               hall.o
    0x2000006a   0x080023aa   0x00000010   Data   RW         1703    .data               hal_rcc.o
    0x2000007a   0x080023ba   0x00000002   PAD
    0x2000007c   0x080023bc   0x00000014   Data   RW         2848    .data               system_mm32spin2xx_p.o
    0x20000090        -       0x0000000a   Zero   RW          213    .bss                adc.o
    0x2000009a   0x080023d0   0x00000002   PAD
    0x2000009c        -       0x00000014   Zero   RW          443    .bss                motor.o
    0x200000b0        -       0x00000024   Zero   RW          522    .bss                pid.o
    0x200000d4        -       0x0000008c   Zero   RW          592    .bss                move_filter.o
    0x20000160        -       0x00000060   Zero   RW         2967    .bss                c_p.l(libspace.o)
    0x200001c0        -       0x00000200   Zero   RW         2885    HEAP                startup_mm32spin2xx_p.o
    0x200003c0        -       0x00000400   Zero   RW         2884    STACK               startup_mm32spin2xx_p.o


==============================================================================

Image component sizes


      Code (inc. data)   RO Data    RW Data    ZI Data      Debug   Object Name

       356         30          0          0         10       2040   adc.o
       232         28          0          0          0       2282   gpio.o
       210          8          0          0          0       6806   hal_adc.o
       332          0          0          0          0       5351   hal_gpio.o
       112          6          0          0          0       1132   hal_misc.o
        32          4          0          0          0        618   hal_op.o
       412         46          0         16          0       6692   hal_rcc.o
      1634        224          0          0          0      19196   hal_tim.o
       178         10          0          0          0       3321   hal_uart.o
       436         64          0         86          0       3622   hall.o
       520         72          0          1          0       2192   isr.o
       180         22          0          0          0     146669   main.o
       900        110          0          1         20       8268   motor.o
       160         10          0          0        140       2473   move_filter.o
        92          8          0          0          0        569   opamp.o
        36         12          0          0         36       1296   pid.o
       264         18          0         12          0       1760   pwm_input.o
       144         64        180          0       1536        956   startup_mm32spin2xx_p.o
       526         40          0         20          0       3748   system_mm32spin2xx_p.o
       536         14          0          0          0       1789   timer.o
       136          8          0          0          0        704   uart.o

    ----------------------------------------------------------------------
      7432        798        212        144       1744     221484   Object Totals
         0          0         32          0          0          0   (incl. Generated)
         4          0          0          8          2          0   (incl. Padding)

    ----------------------------------------------------------------------

      Code (inc. data)   RO Data    RW Data    ZI Data      Debug   Library Member Name

         8          0          0          0          0         68   __main.o
         0          0          0          0          0          0   __rtentry.o
        12          0          0          0          0          0   __rtentry2.o
         6          0          0          0          0          0   __rtentry4.o
        60          8          0          0          0          0   __scatter.o
        26          0          0          0          0          0   __scatter_copy.o
        28          0          0          0          0          0   __scatter_zi.o
       346          0          0          0          0         92   aeabi_sdiv.o
        16          0          0          0          0         68   exit.o
         6          0          0          0          0        136   heapauxi.o
         0          0          0          0          0          0   indicate_semi.o
         2          0          0          0          0          0   libinit.o
         2          0          0          0          0          0   libinit2.o
         2          0          0          0          0          0   libshutdown.o
         2          0          0          0          0          0   libshutdown2.o
         8          4          0          0         96         68   libspace.o
         2          0          0          0          0          0   rtexit.o
        10          0          0          0          0          0   rtexit2.o
        12          4          0          0          0         60   sys_exit.o
        62          0          0          0          0         80   sys_stackheap_outer.o
         2          0          0          0          0         68   use_no_semi.o
       352         10         64          0          0         92   fdiv.o
        76          0          0          0          0         68   ffixi.o
        94          0          0          0          0         92   fflti.o
       176          4          0          0          0         80   fmul.o
         0          0          0          0          0          0   usenofp.o

    ----------------------------------------------------------------------
      1316         30         64          0         96        972   Library Totals
         6          0          0          0          0          0   (incl. Padding)

    ----------------------------------------------------------------------

      Code (inc. data)   RO Data    RW Data    ZI Data      Debug   Library Name

       612         16          0          0         96        640   c_p.l
       698         14         64          0          0        332   fz_ps.l

    ----------------------------------------------------------------------
      1316         30         64          0         96        972   Library Totals

    ----------------------------------------------------------------------

==============================================================================


      Code (inc. data)   RO Data    RW Data    ZI Data      Debug   

      8748        828        276        144       1840     218256   Grand Totals
      8748        828        276        144       1840     218256   ELF Image Totals
      8748        828        276        144          0          0   ROM Totals

==============================================================================

    Total RO  Size (Code + RO Data)                 9024 (   8.81kB)
    Total RW  Size (RW Data + ZI Data)              1984 (   1.94kB)
    Total ROM Size (Code + RO Data + RW Data)       9168 (   8.95kB)

==============================================================================

